{"contracts/gaslessRelayer.sol":{"GaslessRelayer":{"abi":[{"inputs":[{"internalType":"address","name":"_feeToken","type":"address"},{"internalType":"uint256","name":"_initialFee","type":"uint256"},{"internalType":"address","name":"_uniswapPool","type":"address"},{"internalType":"bool","name":"_isToken0USDC","type":"bool"}],"stateMutability":"nonpayable","type":"constructor"},{"inputs":[],"name":"InvalidShortString","type":"error"},{"inputs":[{"internalType":"string","name":"str","type":"string"}],"name":"StringTooLong","type":"error"},{"anonymous":false,"inputs":[{"indexed":false,"internalType":"address","name":"from","type":"address"},{"indexed":false,"internalType":"address","name":"relayer","type":"address"},{"indexed":false,"internalType":"uint256","name":"usdcFee","type":"uint256"},{"indexed":false,"internalType":"uint256","name":"balance","type":"uint256"},{"indexed":false,"internalType":"uint256","name":"allowance","type":"uint256"},{"indexed":false,"internalType":"uint256","name":"gasLimit","type":"uint256"},{"indexed":false,"internalType":"uint256","name":"gasPrice","type":"uint256"},{"indexed":false,"internalType":"uint256","name":"ethPriceInUSDC","type":"uint256"}],"name":"DebugInfo","type":"event"},{"anonymous":false,"inputs":[],"name":"EIP712DomainChanged","type":"event"},{"anonymous":false,"inputs":[{"indexed":false,"internalType":"address","name":"newToken","type":"address"}],"name":"FeeTokenUpdated","type":"event"},{"anonymous":false,"inputs":[{"indexed":false,"internalType":"uint256","name":"newFee","type":"uint256"}],"name":"FeeUpdated","type":"event"},{"anonymous":false,"inputs":[{"indexed":true,"internalType":"address","name":"previousOwner","type":"address"},{"indexed":true,"internalType":"address","name":"newOwner","type":"address"}],"name":"OwnershipTransferred","type":"event"},{"anonymous":false,"inputs":[{"indexed":true,"internalType":"address","name":"from","type":"address"},{"indexed":true,"internalType":"address","name":"to","type":"address"},{"indexed":false,"internalType":"bool","name":"success","type":"bool"},{"indexed":false,"internalType":"bytes","name":"returnData","type":"bytes"}],"name":"TransactionRelayed","type":"event"},{"anonymous":false,"inputs":[{"indexed":false,"internalType":"address","name":"newPool","type":"address"}],"name":"UniswapPoolUpdated","type":"event"},{"inputs":[],"name":"eip712Domain","outputs":[{"internalType":"bytes1","name":"fields","type":"bytes1"},{"internalType":"string","name":"name","type":"string"},{"internalType":"string","name":"version","type":"string"},{"internalType":"uint256","name":"chainId","type":"uint256"},{"internalType":"address","name":"verifyingContract","type":"address"},{"internalType":"bytes32","name":"salt","type":"bytes32"},{"internalType":"uint256[]","name":"extensions","type":"uint256[]"}],"stateMutability":"view","type":"function"},{"inputs":[{"components":[{"internalType":"address","name":"from","type":"address"},{"internalType":"address","name":"to","type":"address"},{"internalType":"uint256","name":"value","type":"uint256"},{"internalType":"uint256","name":"gas","type":"uint256"},{"internalType":"uint256","name":"nonce","type":"uint256"},{"internalType":"bytes","name":"data","type":"bytes"}],"internalType":"struct GaslessRelayer.ForwardRequest","name":"req","type":"tuple"},{"internalType":"bytes","name":"signature","type":"bytes"}],"name":"execute","outputs":[{"internalType":"bool","name":"success","type":"bool"},{"internalType":"bytes","name":"ret","type":"bytes"}],"stateMutability":"nonpayable","type":"function"},{"inputs":[],"name":"feeToken","outputs":[{"internalType":"contract IERC20","name":"","type":"address"}],"stateMutability":"view","type":"function"},{"inputs":[{"internalType":"uint256","name":"priceX96","type":"uint256"}],"name":"getActualPrice","outputs":[{"internalType":"uint256","name":"","type":"uint256"}],"stateMutability":"view","type":"function"},{"inputs":[],"name":"getEthPriceInUSDC","outputs":[{"internalType":"uint256","name":"","type":"uint256"}],"stateMutability":"view","type":"function"},{"inputs":[{"internalType":"address","name":"from","type":"address"}],"name":"getNonce","outputs":[{"internalType":"uint256","name":"","type":"uint256"}],"stateMutability":"view","type":"function"},{"inputs":[{"internalType":"uint160","name":"sqrtPriceX96","type":"uint160"}],"name":"getPriceX96FromSqrtPriceX96","outputs":[{"internalType":"uint256","name":"","type":"uint256"}],"stateMutability":"pure","type":"function"},{"inputs":[],"name":"isToken0USDC","outputs":[{"internalType":"bool","name":"","type":"bool"}],"stateMutability":"view","type":"function"},{"inputs":[{"internalType":"address","name":"","type":"address"}],"name":"nonces","outputs":[{"internalType":"uint256","name":"","type":"uint256"}],"stateMutability":"view","type":"function"},{"inputs":[],"name":"owner","outputs":[{"internalType":"address","name":"","type":"address"}],"stateMutability":"view","type":"function"},{"inputs":[],"name":"relayerFee","outputs":[{"internalType":"uint256","name":"","type":"uint256"}],"stateMutability":"view","type":"function"},{"inputs":[],"name":"renounceOwnership","outputs":[],"stateMutability":"nonpayable","type":"function"},{"inputs":[{"internalType":"uint256","name":"_newFee","type":"uint256"}],"name":"setFee","outputs":[],"stateMutability":"nonpayable","type":"function"},{"inputs":[{"internalType":"address","name":"_newToken","type":"address"}],"name":"setFeeToken","outputs":[],"stateMutability":"nonpayable","type":"function"},{"inputs":[{"internalType":"address","name":"_newPool","type":"address"}],"name":"setUniswapPool","outputs":[],"stateMutability":"nonpayable","type":"function"},{"inputs":[{"internalType":"address","name":"newOwner","type":"address"}],"name":"transferOwnership","outputs":[],"stateMutability":"nonpayable","type":"function"},{"inputs":[],"name":"uniswapPool","outputs":[{"internalType":"contract IUniswapV3Pool","name":"","type":"address"}],"stateMutability":"view","type":"function"},{"inputs":[{"components":[{"internalType":"address","name":"from","type":"address"},{"internalType":"address","name":"to","type":"address"},{"internalType":"uint256","name":"value","type":"uint256"},{"internalType":"uint256","name":"gas","type":"uint256"},{"internalType":"uint256","name":"nonce","type":"uint256"},{"internalType":"bytes","name":"data","type":"bytes"}],"internalType":"struct GaslessRelayer.ForwardRequest","name":"req","type":"tuple"},{"internalType":"bytes","name":"signature","type":"bytes"}],"name":"verify","outputs":[{"internalType":"bool","name":"","type":"bool"}],"stateMutability":"view","type":"function"},{"stateMutability":"payable","type":"receive"}],"devdoc":{"events":{"EIP712DomainChanged()":{"details":"MAY be emitted to signal that the domain could have changed."}},"kind":"dev","methods":{"eip712Domain()":{"details":"See {EIP-5267}. _Available since v4.9._"},"owner()":{"details":"Returns the address of the current owner."},"renounceOwnership()":{"details":"Leaves the contract without owner. It will not be possible to call `onlyOwner` functions. Can only be called by the current owner. NOTE: Renouncing ownership will leave the contract without an owner, thereby disabling any functionality that is only available to the owner."},"transferOwnership(address)":{"details":"Transfers ownership of the contract to a new account (`newOwner`). Can only be called by the current owner."}},"version":1},"evm":{"bytecode":{"linkReferences":{},"object":"610160346200034457601f6200201d38819003918201601f19168301926001600160401b03929091838511838610176200032e5781608092849260409788528339810103126200034457620000548162000365565b926020808301519360606200006b84860162000365565b940151948515158096036200034457835194620000888662000349565b600e8652838601966d23b0b9b632b9b9a932b630bcb2b960911b8852855198620000b28a62000349565b60018a52858a01603160f81b8152620000cb896200037a565b996101209a8b52620000dd8c6200054d565b996101409a8b525190209a8b60e052519020926101009a848c524660a052885194888601917f8b73c3c69bb8fe3d512ecc4cf759cc79239f7b179b0ffacaa9a75d522b39400f83528a87015260608601524660808601523060a086015260a0855260c0850196858810908811176200032e57868952845190206080523060c052600280546001600160a01b031980821633908117909355976001600160a01b03949092859283167f8be0079c531659141344cd1fd0a4f28419497f9722a3daafe3b4186f6b6457e0600080a316948515620002ec57505016938415620002a857927fa0ca04e9956a42929fa24e6299bb6622c8703ac575c61b33e01fb170100ee6dc86848197969487867f8c4d35e54a3f2ef1134138fd8ea3daee6a3c89e10d2665996babdf70261e2c76987fb8dc65e6cb5562c7dbcf0e8300047feabefb8dcf59d737565f34ae0db58874e69c98600354161760035560045416176004558460055560ff8019600654169116176006558951908152a18651908152a18351908152a151916119229384620006fb85396080518461126a015260a05184611336015260c05184611234015260e051846112b9015251836112df01525182610356015251816103800152f35b865162461bcd60e51b815260048101879052601c60248201527f496e76616c696420556e697377617020706f6f6c2061646472657373000000006044820152606490fd5b907f496e76616c69642066656520746f6b656e2061646472657373000000000000006101046064938b62461bcd60e51b855260c4820152601960e48201520152fd5b634e487b7160e01b600052604160045260246000fd5b600080fd5b604081019081106001600160401b038211176200032e57604052565b51906001600160a01b03821682036200034457565b8051602091908281101562000419575090601f825111620003b85780825192015190808310620003a957501790565b82600019910360031b1b161790565b90604051809263305a27a960e01b82528060048301528251908160248401526000935b828510620003ff575050604492506000838284010152601f80199101168101030190fd5b8481018201518686016044015293810193859350620003db565b6001600160401b0381116200032e576000928354926001938481811c9116801562000542575b838210146200052e57601f8111620004f8575b5081601f8411600114620004915750928293918392869462000485575b50501b916000199060031b1c191617905560ff90565b0151925038806200046f565b919083601f1981168780528488209488905b88838310620004dd5750505010620004c3575b505050811b01905560ff90565b015160001960f88460031b161c19169055388080620004b6565b858701518855909601959485019487935090810190620004a3565b85805284601f848820920160051c820191601f860160051c015b8281106200052257505062000452565b87815501859062000512565b634e487b7160e01b86526022600452602486fd5b90607f16906200043f565b805160209081811015620005db5750601f8251116200057a5780825192015190808310620003a957501790565b90604051809263305a27a960e01b82528060048301528251908160248401526000935b828510620005c1575050604492506000838284010152601f80199101168101030190fd5b84810182015186860160440152938101938593506200059d565b9192916001600160401b0381116200032e5760019182548381811c91168015620006ef575b82821014620006d957601f8111620006a0575b5080601f83116001146200065357508192939460009262000647575b5050600019600383901b1c191690821b17905560ff90565b0151905038806200062f565b90601f198316958460005282600020926000905b888210620006885750508385969710620004c357505050811b01905560ff90565b80878596829496860151815501950193019062000667565b8360005283601f83600020920160051c820191601f850160051c015b828110620006cc57505062000613565b60008155018490620006bc565b634e487b7160e01b600052602260045260246000fd5b90607f16906200060056fe60406080815260048036101561001f575b5050361561001d57600080fd5b005b600091823560e01c806315cce22414610a545780632d0335ab1461045c5780632fdeb11114610a355780633a0fad7f14610a1157806347153f821461059e5780634e09a6101461056a578063647846a51461054157806369fe0e2d146104f3578063715018a6146104965780637ecebe001461045c57806384b0196e146103405780638da5cb5b146103175780638f90e9021461025f578063aedc8e381461023c578063bdd3d82514610214578063bf5d3bdb146101ef578063d4e895cb146101c75763f2fde38b146100f25750610010565b346101c35760203660031901126101c3576001600160a01b038235818116939192908490036101bf57610123610bd3565b831561016d575050600254826bffffffffffffffffffffffff60a01b821617600255167f8be0079c531659141344cd1fd0a4f28419497f9722a3daafe3b4186f6b6457e08380a380f35b906020608492519162461bcd60e51b8352820152602660248201527f4f776e61626c653a206e6577206f776e657220697320746865207a65726f206160448201526564647265737360d01b6064820152fd5b8480fd5b8280fd5b8382346101eb57816003193601126101eb576020906101e4611378565b9051908152f35b5080fd5b8382346101eb5760209061020b61020536610b0b565b91610f0f565b90519015158152f35b5090346101c357826003193601126101c3575490516001600160a01b03909116815260209150f35b50823461025c57602036600319011261025c57506101e4602092356114b4565b80fd5b50346101c35760203660031901126101c35781356001600160a01b03811692908390036103135761028e610bd3565b82156102d15780546001600160a01b03191683179055519081527fb8dc65e6cb5562c7dbcf0e8300047feabefb8dcf59d737565f34ae0db58874e690602090a180f35b6020606492519162461bcd60e51b8352820152601c60248201527f496e76616c696420556e697377617020706f6f6c2061646472657373000000006044820152fd5b8380fd5b8382346101eb57816003193601126101eb5760025490516001600160a01b039091168152602090f35b50346101c357826003193601126101c35761037a7f0000000000000000000000000000000000000000000000000000000000000000610c7f565b926103a47f0000000000000000000000000000000000000000000000000000000000000000610da2565b908251926020928385019585871067ffffffffffffffff881117610449575092806103ff8388966103f2998b9996528686528151998a99600f60f81b8b5260e0868c015260e08b0190610b77565b91898303908a0152610b77565b924660608801523060808801528460a088015286840360c088015251928381520193925b82811061043257505050500390f35b835185528695509381019392810192600101610423565b634e487b7160e01b845260419052602483fd5b5090346101c35760203660031901126101c357356001600160a01b038116908190036101c357828291602094526007845220549051908152f35b833461025c578060031936011261025c576104af610bd3565b600280546001600160a01b0319811690915581906001600160a01b03167f8be0079c531659141344cd1fd0a4f28419497f9722a3daafe3b4186f6b6457e08280a380f35b5090346101c35760203660031901126101c3577f8c4d35e54a3f2ef1134138fd8ea3daee6a3c89e10d2665996babdf70261e2c76916020913590610535610bd3565b8160055551908152a180f35b8382346101eb57816003193601126101eb5760035490516001600160a01b039091168152602090f35b5090346101c35760203660031901126101c357356001600160a01b038116929083900361025c57506101e4826020936117e5565b50346101c357916105bb926105b236610b0b565b90829692610f0f565b156109db576060840135803a02933a850482143a1517156109c8576105e86105e1611378565b8096611741565b600554808211156109c05750945b6003546001600160a01b039081169690929061061189610e91565b86516370a0823160e01b815290851683820152602098602494918a818781855afa9081156109b6578a91610985575b5061064a8c610e91565b8951636eb1769f60e11b8152908816868201523087820152918b83604481845afa9283156108c8578b93610956575b50848210610914578483106108d2578b8860648f8e6106988f92610e91565b915195869485936323b872dd60e01b8552168c840152338d8401528a60448401525af19081156108c8578b9161088f575b501561085757917f5a7f31020e1376e114fbdaffcace5c65b44bbfa0a23d287a94cdbc8cd60b672c9391610100936107008e610e91565b93898c51951685528d33908601528b850152606084015260808301528760a08301523a60c083015260e0820152a18261073889610e91565b16865260078752848620918254916000198314610846575050600101905583808688019361076585610e91565b9061077360a08b018b610ea5565b9190828951938492833781018581520392888c013591f1933d15610810576107ea6107e461080c9697987ff58c4d9d66b0fb7f8f24128aedb552f542f6684e19cf741a6e776bc591b4e3e2933d906107ca82610e75565b916107d78a519384610c5d565b8252819b3d92013e610e91565b93610e91565b918085519316931691806107ff898983610bb7565b0390a35192839283610bb7565b0390f35b5061080c9394507ff58c4d9d66b0fb7f8f24128aedb552f542f6684e19cf741a6e776bc591b4e3e26107ea6107e4606098610e91565b634e487b7160e01b88526011905286fd5b885162461bcd60e51b81528086018c905260138188015272119959481d1c985b9cd9995c8819985a5b1959606a1b6044820152606490fd5b90508b81813d83116108c1575b6108a68183610c5d565b810103126108bd576108b79061136b565b386106c9565b8a80fd5b503d61089c565b8a513d8d823e3d90fd5b895162461bcd60e51b81528087018d9052601b818901527f496e73756666696369656e74205553444320616c6c6f77616e636500000000006044820152606490fd5b895162461bcd60e51b81528087018d90526019818901527f496e73756666696369656e7420555344432062616c616e6365000000000000006044820152606490fd5b9092508b81813d831161097e575b61096e8183610c5d565b810103126108bd57519138610679565b503d610964565b90508a81813d83116109af575b61099c8183610c5d565b810103126109ab575138610640565b8980fd5b503d610992565b89513d8c823e3d90fd5b9050946105f6565b634e487b7160e01b845260119052602483fd5b5162461bcd60e51b81526020818401526011602482015270496e76616c6964207369676e617475726560781b6044820152606490fd5b8382346101eb57816003193601126101eb5760209060ff6006541690519015158152f35b8382346101eb57816003193601126101eb576020906005549051908152f35b50346101c35760203660031901126101c35781356001600160a01b038116929083900361031357610a83610bd3565b8215610ac95750600380546001600160a01b03191683179055519081527fa0ca04e9956a42929fa24e6299bb6622c8703ac575c61b33e01fb170100ee6dc90602090a180f35b6020606492519162461bcd60e51b8352820152601960248201527f496e76616c69642066656520746f6b656e2061646472657373000000000000006044820152fd5b9060031990604082840112610b725760043567ffffffffffffffff92838211610b725760c0908286030112610b72576004019260243590838211610b725780602383011215610b72578160040135938411610b725760248483010111610b72576024019190565b600080fd5b919082519283825260005b848110610ba3575050826000602080949584010152601f8019910116010190565b602081830181015184830182015201610b82565b604090610bd09392151581528160208201520190610b77565b90565b6002546001600160a01b03163303610be757565b606460405162461bcd60e51b815260206004820152602060248201527f4f776e61626c653a2063616c6c6572206973206e6f7420746865206f776e65726044820152fd5b6040810190811067ffffffffffffffff821117610c4757604052565b634e487b7160e01b600052604160045260246000fd5b90601f8019910116810190811067ffffffffffffffff821117610c4757604052565b60ff8114610cbd5760ff811690601f8211610cab5760405191610ca183610c2b565b8252602082015290565b604051632cd44ac360e21b8152600490fd5b506040516000805490600182811c90808416938415610d98575b6020948584108114610d845783875286949392918115610d645750600114610d08575b5050610bd092500382610c5d565b60008080527f290decd9548b62a8d60345a988386fc84ba6bc95484008f6362f93160ef3e56395935091905b818310610d4c575050610bd093508201013880610cfa565b85548784018501529485019486945091830191610d34565b915050610bd094925060ff191682840152151560051b8201013880610cfa565b634e487b7160e01b85526022600452602485fd5b91607f1691610cd7565b60ff8114610dc45760ff811690601f8211610cab5760405191610ca183610c2b565b50604051600060019081549182811c90808416938415610e6b575b6020948584108114610d845783875286949392918115610d645750600114610e0f575050610bd092500382610c5d565b60008181527fb10e2d527612073b26eecdfd717e6a320cf44b4afac2b0732d9fcbe2b7fa0cf695935091905b818310610e53575050610bd093508201013880610cfa565b85548784018501529485019486945091830191610e3b565b91607f1691610ddf565b67ffffffffffffffff8111610c4757601f01601f191660200190565b356001600160a01b0381168103610b725790565b903590601e1981360301821215610b72570180359067ffffffffffffffff8211610b7257602001918136038313610b7257565b929192610ee482610e75565b91610ef26040519384610c5d565b829481845281830111610b72578281602093846000960137010152565b91610f1983610e91565b610f2560208501610e91565b91608085013591610f43610f3c60a0880188610ea5565b3691610ed8565b602081519101209160409283519060208201937fdd8f4b70b0f4393e889bd39128a30628a78b61816a9eb8199759e7a349657e48855260018060a01b03978880921687850152166060830152848901356080830152606089013560a08301528560c083015260e082015260e0815261010081019681881067ffffffffffffffff891117610c4757604261100a94611004936110129a8852519020610fe5611231565b9087519161190160f01b83526002830152602282015220923691610ed8565b9061116a565b949094611050565b8261101c86610e91565b16600052600760205260002054149283611037575b50505090565b8192935061104490610e91565b16911614388080611031565b600581101561115457806110615750565b600181036110ae5760405162461bcd60e51b815260206004820152601860248201527f45434453413a20696e76616c6964207369676e617475726500000000000000006044820152606490fd5b600281036110fb5760405162461bcd60e51b815260206004820152601f60248201527f45434453413a20696e76616c6964207369676e6174757265206c656e677468006044820152606490fd5b60031461110457565b60405162461bcd60e51b815260206004820152602260248201527f45434453413a20696e76616c6964207369676e6174757265202773272076616c604482015261756560f01b6064820152608490fd5b634e487b7160e01b600052602160045260246000fd5b90604181511460001461119857611194916020820151906060604084015193015160001a906111a2565b9091565b5050600090600290565b9291907f7fffffffffffffffffffffffffffffff5d576e7357a4501ddfe92f46681b20a083116112255791608094939160ff602094604051948552168484015260408301526060820152600093849182805260015afa156112185781516001600160a01b03811615611212579190565b50600190565b50604051903d90823e3d90fd5b50505050600090600390565b307f00000000000000000000000000000000000000000000000000000000000000006001600160a01b03161480611333575b1561128c577f000000000000000000000000000000000000000000000000000000000000000090565b60405160208101907f8b73c3c69bb8fe3d512ecc4cf759cc79239f7b179b0ffacaa9a75d522b39400f82527f000000000000000000000000000000000000000000000000000000000000000060408201527f000000000000000000000000000000000000000000000000000000000000000060608201524660808201523060a082015260a0815260c0810181811067ffffffffffffffff821117610c475760405251902090565b507f00000000000000000000000000000000000000000000000000000000000000004614611263565b519061ffff82168203610b7257565b51908115158203610b7257565b60048054604051633850c7bd60e01b81526001600160a01b0392909160e0918391829086165afa908115611458576000916113c3575b50610bd0916113be9116806117e5565b6114b4565b60e0813d8211611450575b816113db60e09383610c5d565b810103126101eb57805191838316830361025c5760208201518060020b0361025c576114096040830161135c565b506114166060830161135c565b506114236080830161135c565b5060a082015160ff81160361025c5750916113be9161144760c0610bd0950161136b565b509150916113ae565b3d91506113ce565b6040513d6000823e3d90fd5b90816020910312610b7257516001600160a01b0381168103610b725790565b9190820391821161149057565b634e487b7160e01b600052601160045260246000fd5b604d811161149057600a0a90565b60065460ff169081156116ed5760048054604051630dfe168160e01b81529160209183919082906001600160a01b03165afa8015611458576116cf575b505b60018060a01b03918260045416906040938451630dfe168160e01b81526020908181600481885afa9081156116c4576000916116a7575b5086519482866004818763313ce56760e01b96878352165afa95861561166d57600096611678575b50908260049289519384809263d21220a760e01b82525afa91821561166d579083929160009261163b575b50600490895195869384928352165afa9586156116315750600095611600575b50506000906000146115da5750610bd092818111156115ce576115c8916115c391611483565b6114a6565b906117e5565b50506115c860006114a6565b610bd0936115f492818111156115f9576115c39250611483565b61182a565b50506114a6565b8181969293963d831161162a575b6116188183610c5d565b8101031261025c57505192388061159d565b503d61160e565b513d6000823e3d90fd5b600491925061165f90843d8611611666575b6116578183610c5d565b810190611464565b919061157d565b503d61164d565b88513d6000823e3d90fd5b90958382813d83116116a0575b61168f8183610c5d565b8101031261025c5750519482611552565b503d611685565b6116be9150823d8411611666576116578183610c5d565b3861152a565b87513d6000823e3d90fd5b6116e69060203d8111611666576116578183610c5d565b50386114f1565b6004805460405163d21220a760e01b81529160209183919082906001600160a01b03165afa801561145857611723575b506114f3565b61173a9060203d8111611666576116578183610c5d565b503861171d565b90600019818309818302918280831092039180830392146117d457670de0b6b3a764000090828211156117a4577faccb18165bd6fe31ae1cf318dc5b51eee0e1ba569b88cd74c1773b91fac10669940990828211900360ee1b910360121c170290565b60405162461bcd60e51b81526020600482015260086024820152674f766572666c6f7760c01b6044820152606490fd5b5050670de0b6b3a764000091500490565b600019828209908281029283808410930392808403931461182157600160601b91838311156117a4570990828211900360a01b910360601c1790565b50505060601c90565b600160601b91600019828409928260601b928380861095039480860395146118a657848311156117a4578291096001821901821680920460028082600302188083028203028083028203028083028203028083028203028083028203028092029003029360018380600003040190848311900302920304170290565b5050809250156118b4570490565b60405162461bcd60e51b815260206004820152601060248201526f44656e6f6d696e61746f72207a65726f60801b6044820152606490fdfea2646970667358221220f302a4ab5a034554ba7b506fea01910c4f4d613e8f49e00b824875daac6b4cf964736f6c63430008140033","opcodes":"PUSH2 0x160 CALLVALUE PUSH3 0x344 JUMPI PUSH1 0x1F PUSH3 0x201D CODESIZE DUP2 SWAP1 SUB SWAP2 DUP3 ADD PUSH1 0x1F NOT AND DUP4 ADD SWAP3 PUSH1 0x1 PUSH1 0x1 PUSH1 0x40 SHL SUB SWAP3 SWAP1 SWAP2 DUP4 DUP6 GT DUP4 DUP7 LT OR PUSH3 0x32E JUMPI DUP2 PUSH1 0x80 SWAP3 DUP5 SWAP3 PUSH1 0x40 SWAP8 DUP9 MSTORE DUP4 CODECOPY DUP2 ADD SUB SLT PUSH3 0x344 JUMPI PUSH3 0x54 DUP2 PUSH3 0x365 JUMP JUMPDEST SWAP3 PUSH1 0x20 DUP1 DUP4 ADD MLOAD SWAP4 PUSH1 0x60 PUSH3 0x6B DUP5 DUP7 ADD PUSH3 0x365 JUMP JUMPDEST SWAP5 ADD MLOAD SWAP5 DUP6 ISZERO ISZERO DUP1 SWAP7 SUB PUSH3 0x344 JUMPI DUP4 MLOAD SWAP5 PUSH3 0x88 DUP7 PUSH3 0x349 JUMP JUMPDEST PUSH1 0xE DUP7 MSTORE DUP4 DUP7 ADD SWAP7 PUSH14 0x23B0B9B632B9B9A932B630BCB2B9 PUSH1 0x91 SHL DUP9 MSTORE DUP6 MLOAD SWAP9 PUSH3 0xB2 DUP11 PUSH3 0x349 JUMP JUMPDEST PUSH1 0x1 DUP11 MSTORE DUP6 DUP11 ADD PUSH1 0x31 PUSH1 0xF8 SHL DUP2 MSTORE PUSH3 0xCB DUP10 PUSH3 0x37A JUMP JUMPDEST SWAP10 PUSH2 0x120 SWAP11 DUP12 MSTORE PUSH3 0xDD DUP13 PUSH3 0x54D JUMP JUMPDEST SWAP10 PUSH2 0x140 SWAP11 DUP12 MSTORE MLOAD SWAP1 KECCAK256 SWAP11 DUP12 PUSH1 0xE0 MSTORE MLOAD SWAP1 KECCAK256 SWAP3 PUSH2 0x100 SWAP11 DUP5 DUP13 MSTORE CHAINID PUSH1 0xA0 MSTORE DUP9 MLOAD SWAP5 DUP9 DUP7 ADD SWAP2 PUSH32 0x8B73C3C69BB8FE3D512ECC4CF759CC79239F7B179B0FFACAA9A75D522B39400F DUP4 MSTORE DUP11 DUP8 ADD MSTORE PUSH1 0x60 DUP7 ADD MSTORE CHAINID PUSH1 0x80 DUP7 ADD MSTORE ADDRESS PUSH1 0xA0 DUP7 ADD MSTORE PUSH1 0xA0 DUP6 MSTORE PUSH1 0xC0 DUP6 ADD SWAP7 DUP6 DUP9 LT SWAP1 DUP9 GT OR PUSH3 0x32E JUMPI DUP7 DUP10 MSTORE DUP5 MLOAD SWAP1 KECCAK256 PUSH1 0x80 MSTORE ADDRESS PUSH1 0xC0 MSTORE PUSH1 0x2 DUP1 SLOAD PUSH1 0x1 PUSH1 0x1 PUSH1 0xA0 SHL SUB NOT DUP1 DUP3 AND CALLER SWAP1 DUP2 OR SWAP1 SWAP4 SSTORE SWAP8 PUSH1 0x1 PUSH1 0x1 PUSH1 0xA0 SHL SUB SWAP5 SWAP1 SWAP3 DUP6 SWAP3 DUP4 AND PUSH32 0x8BE0079C531659141344CD1FD0A4F28419497F9722A3DAAFE3B4186F6B6457E0 PUSH1 0x0 DUP1 LOG3 AND SWAP5 DUP6 ISZERO PUSH3 0x2EC JUMPI POP POP AND SWAP4 DUP5 ISZERO PUSH3 0x2A8 JUMPI SWAP3 PUSH32 0xA0CA04E9956A42929FA24E6299BB6622C8703AC575C61B33E01FB170100EE6DC DUP7 DUP5 DUP2 SWAP8 SWAP7 SWAP5 DUP8 DUP7 PUSH32 0x8C4D35E54A3F2EF1134138FD8EA3DAEE6A3C89E10D2665996BABDF70261E2C76 SWAP9 PUSH32 0xB8DC65E6CB5562C7DBCF0E8300047FEABEFB8DCF59D737565F34AE0DB58874E6 SWAP13 SWAP9 PUSH1 0x3 SLOAD AND OR PUSH1 0x3 SSTORE PUSH1 0x4 SLOAD AND OR PUSH1 0x4 SSTORE DUP5 PUSH1 0x5 SSTORE PUSH1 0xFF DUP1 NOT PUSH1 0x6 SLOAD AND SWAP2 AND OR PUSH1 0x6 SSTORE DUP10 MLOAD SWAP1 DUP2 MSTORE LOG1 DUP7 MLOAD SWAP1 DUP2 MSTORE LOG1 DUP4 MLOAD SWAP1 DUP2 MSTORE LOG1 MLOAD SWAP2 PUSH2 0x1922 SWAP4 DUP5 PUSH3 0x6FB DUP6 CODECOPY PUSH1 0x80 MLOAD DUP5 PUSH2 0x126A ADD MSTORE PUSH1 0xA0 MLOAD DUP5 PUSH2 0x1336 ADD MSTORE PUSH1 0xC0 MLOAD DUP5 PUSH2 0x1234 ADD MSTORE PUSH1 0xE0 MLOAD DUP5 PUSH2 0x12B9 ADD MSTORE MLOAD DUP4 PUSH2 0x12DF ADD MSTORE MLOAD DUP3 PUSH2 0x356 ADD MSTORE MLOAD DUP2 PUSH2 0x380 ADD MSTORE RETURN JUMPDEST DUP7 MLOAD PUSH3 0x461BCD PUSH1 0xE5 SHL DUP2 MSTORE PUSH1 0x4 DUP2 ADD DUP8 SWAP1 MSTORE PUSH1 0x1C PUSH1 0x24 DUP3 ADD MSTORE PUSH32 0x496E76616C696420556E697377617020706F6F6C206164647265737300000000 PUSH1 0x44 DUP3 ADD MSTORE PUSH1 0x64 SWAP1 REVERT JUMPDEST SWAP1 PUSH32 0x496E76616C69642066656520746F6B656E206164647265737300000000000000 PUSH2 0x104 PUSH1 0x64 SWAP4 DUP12 PUSH3 0x461BCD PUSH1 0xE5 SHL DUP6 MSTORE PUSH1 0xC4 DUP3 ADD MSTORE PUSH1 0x19 PUSH1 0xE4 DUP3 ADD MSTORE ADD MSTORE REVERT JUMPDEST PUSH4 0x4E487B71 PUSH1 0xE0 SHL PUSH1 0x0 MSTORE PUSH1 0x41 PUSH1 0x4 MSTORE PUSH1 0x24 PUSH1 0x0 REVERT JUMPDEST PUSH1 0x0 DUP1 REVERT JUMPDEST PUSH1 0x40 DUP2 ADD SWAP1 DUP2 LT PUSH1 0x1 PUSH1 0x1 PUSH1 0x40 SHL SUB DUP3 GT OR PUSH3 0x32E JUMPI PUSH1 0x40 MSTORE JUMP JUMPDEST MLOAD SWAP1 PUSH1 0x1 PUSH1 0x1 PUSH1 0xA0 SHL SUB DUP3 AND DUP3 SUB PUSH3 0x344 JUMPI JUMP JUMPDEST DUP1 MLOAD PUSH1 0x20 SWAP2 SWAP1 DUP3 DUP2 LT ISZERO PUSH3 0x419 JUMPI POP SWAP1 PUSH1 0x1F DUP3 MLOAD GT PUSH3 0x3B8 JUMPI DUP1 DUP3 MLOAD SWAP3 ADD MLOAD SWAP1 DUP1 DUP4 LT PUSH3 0x3A9 JUMPI POP OR SWAP1 JUMP JUMPDEST DUP3 PUSH1 0x0 NOT SWAP2 SUB PUSH1 0x3 SHL SHL AND OR SWAP1 JUMP JUMPDEST SWAP1 PUSH1 0x40 MLOAD DUP1 SWAP3 PUSH4 0x305A27A9 PUSH1 0xE0 SHL DUP3 MSTORE DUP1 PUSH1 0x4 DUP4 ADD MSTORE DUP3 MLOAD SWAP1 DUP2 PUSH1 0x24 DUP5 ADD MSTORE PUSH1 0x0 SWAP4 JUMPDEST DUP3 DUP6 LT PUSH3 0x3FF JUMPI POP POP PUSH1 0x44 SWAP3 POP PUSH1 0x0 DUP4 DUP3 DUP5 ADD ADD MSTORE PUSH1 0x1F DUP1 NOT SWAP2 ADD AND DUP2 ADD SUB ADD SWAP1 REVERT JUMPDEST DUP5 DUP2 ADD DUP3 ADD MLOAD DUP7 DUP7 ADD PUSH1 0x44 ADD MSTORE SWAP4 DUP2 ADD SWAP4 DUP6 SWAP4 POP PUSH3 0x3DB JUMP JUMPDEST PUSH1 0x1 PUSH1 0x1 PUSH1 0x40 SHL SUB DUP2 GT PUSH3 0x32E JUMPI PUSH1 0x0 SWAP3 DUP4 SLOAD SWAP3 PUSH1 0x1 SWAP4 DUP5 DUP2 DUP2 SHR SWAP2 AND DUP1 ISZERO PUSH3 0x542 JUMPI JUMPDEST DUP4 DUP3 LT EQ PUSH3 0x52E JUMPI PUSH1 0x1F DUP2 GT PUSH3 0x4F8 JUMPI JUMPDEST POP DUP2 PUSH1 0x1F DUP5 GT PUSH1 0x1 EQ PUSH3 0x491 JUMPI POP SWAP3 DUP3 SWAP4 SWAP2 DUP4 SWAP3 DUP7 SWAP5 PUSH3 0x485 JUMPI JUMPDEST POP POP SHL SWAP2 PUSH1 0x0 NOT SWAP1 PUSH1 0x3 SHL SHR NOT AND OR SWAP1 SSTORE PUSH1 0xFF SWAP1 JUMP JUMPDEST ADD MLOAD SWAP3 POP CODESIZE DUP1 PUSH3 0x46F JUMP JUMPDEST SWAP2 SWAP1 DUP4 PUSH1 0x1F NOT DUP2 AND DUP8 DUP1 MSTORE DUP5 DUP9 KECCAK256 SWAP5 DUP9 SWAP1 JUMPDEST DUP9 DUP4 DUP4 LT PUSH3 0x4DD JUMPI POP POP POP LT PUSH3 0x4C3 JUMPI JUMPDEST POP POP POP DUP2 SHL ADD SWAP1 SSTORE PUSH1 0xFF SWAP1 JUMP JUMPDEST ADD MLOAD PUSH1 0x0 NOT PUSH1 0xF8 DUP5 PUSH1 0x3 SHL AND SHR NOT AND SWAP1 SSTORE CODESIZE DUP1 DUP1 PUSH3 0x4B6 JUMP JUMPDEST DUP6 DUP8 ADD MLOAD DUP9 SSTORE SWAP1 SWAP7 ADD SWAP6 SWAP5 DUP6 ADD SWAP5 DUP8 SWAP4 POP SWAP1 DUP2 ADD SWAP1 PUSH3 0x4A3 JUMP JUMPDEST DUP6 DUP1 MSTORE DUP5 PUSH1 0x1F DUP5 DUP9 KECCAK256 SWAP3 ADD PUSH1 0x5 SHR DUP3 ADD SWAP2 PUSH1 0x1F DUP7 ADD PUSH1 0x5 SHR ADD JUMPDEST DUP3 DUP2 LT PUSH3 0x522 JUMPI POP POP PUSH3 0x452 JUMP JUMPDEST DUP8 DUP2 SSTORE ADD DUP6 SWAP1 PUSH3 0x512 JUMP JUMPDEST PUSH4 0x4E487B71 PUSH1 0xE0 SHL DUP7 MSTORE PUSH1 0x22 PUSH1 0x4 MSTORE PUSH1 0x24 DUP7 REVERT JUMPDEST SWAP1 PUSH1 0x7F AND SWAP1 PUSH3 0x43F JUMP JUMPDEST DUP1 MLOAD PUSH1 0x20 SWAP1 DUP2 DUP2 LT ISZERO PUSH3 0x5DB JUMPI POP PUSH1 0x1F DUP3 MLOAD GT PUSH3 0x57A JUMPI DUP1 DUP3 MLOAD SWAP3 ADD MLOAD SWAP1 DUP1 DUP4 LT PUSH3 0x3A9 JUMPI POP OR SWAP1 JUMP JUMPDEST SWAP1 PUSH1 0x40 MLOAD DUP1 SWAP3 PUSH4 0x305A27A9 PUSH1 0xE0 SHL DUP3 MSTORE DUP1 PUSH1 0x4 DUP4 ADD MSTORE DUP3 MLOAD SWAP1 DUP2 PUSH1 0x24 DUP5 ADD MSTORE PUSH1 0x0 SWAP4 JUMPDEST DUP3 DUP6 LT PUSH3 0x5C1 JUMPI POP POP PUSH1 0x44 SWAP3 POP PUSH1 0x0 DUP4 DUP3 DUP5 ADD ADD MSTORE PUSH1 0x1F DUP1 NOT SWAP2 ADD AND DUP2 ADD SUB ADD SWAP1 REVERT JUMPDEST DUP5 DUP2 ADD DUP3 ADD MLOAD DUP7 DUP7 ADD PUSH1 0x44 ADD MSTORE SWAP4 DUP2 ADD SWAP4 DUP6 SWAP4 POP PUSH3 0x59D JUMP JUMPDEST SWAP2 SWAP3 SWAP2 PUSH1 0x1 PUSH1 0x1 PUSH1 0x40 SHL SUB DUP2 GT PUSH3 0x32E JUMPI PUSH1 0x1 SWAP2 DUP3 SLOAD DUP4 DUP2 DUP2 SHR SWAP2 AND DUP1 ISZERO PUSH3 0x6EF JUMPI JUMPDEST DUP3 DUP3 LT EQ PUSH3 0x6D9 JUMPI PUSH1 0x1F DUP2 GT PUSH3 0x6A0 JUMPI JUMPDEST POP DUP1 PUSH1 0x1F DUP4 GT PUSH1 0x1 EQ PUSH3 0x653 JUMPI POP DUP2 SWAP3 SWAP4 SWAP5 PUSH1 0x0 SWAP3 PUSH3 0x647 JUMPI JUMPDEST POP POP PUSH1 0x0 NOT PUSH1 0x3 DUP4 SWAP1 SHL SHR NOT AND SWAP1 DUP3 SHL OR SWAP1 SSTORE PUSH1 0xFF SWAP1 JUMP JUMPDEST ADD MLOAD SWAP1 POP CODESIZE DUP1 PUSH3 0x62F JUMP JUMPDEST SWAP1 PUSH1 0x1F NOT DUP4 AND SWAP6 DUP5 PUSH1 0x0 MSTORE DUP3 PUSH1 0x0 KECCAK256 SWAP3 PUSH1 0x0 SWAP1 JUMPDEST DUP9 DUP3 LT PUSH3 0x688 JUMPI POP POP DUP4 DUP6 SWAP7 SWAP8 LT PUSH3 0x4C3 JUMPI POP POP POP DUP2 SHL ADD SWAP1 SSTORE PUSH1 0xFF SWAP1 JUMP JUMPDEST DUP1 DUP8 DUP6 SWAP7 DUP3 SWAP5 SWAP7 DUP7 ADD MLOAD DUP2 SSTORE ADD SWAP6 ADD SWAP4 ADD SWAP1 PUSH3 0x667 JUMP JUMPDEST DUP4 PUSH1 0x0 MSTORE DUP4 PUSH1 0x1F DUP4 PUSH1 0x0 KECCAK256 SWAP3 ADD PUSH1 0x5 SHR DUP3 ADD SWAP2 PUSH1 0x1F DUP6 ADD PUSH1 0x5 SHR ADD JUMPDEST DUP3 DUP2 LT PUSH3 0x6CC JUMPI POP POP PUSH3 0x613 JUMP JUMPDEST PUSH1 0x0 DUP2 SSTORE ADD DUP5 SWAP1 PUSH3 0x6BC JUMP JUMPDEST PUSH4 0x4E487B71 PUSH1 0xE0 SHL PUSH1 0x0 MSTORE PUSH1 0x22 PUSH1 0x4 MSTORE PUSH1 0x24 PUSH1 0x0 REVERT JUMPDEST SWAP1 PUSH1 0x7F AND SWAP1 PUSH3 0x600 JUMP INVALID PUSH1 0x40 PUSH1 0x80 DUP2 MSTORE PUSH1 0x4 DUP1 CALLDATASIZE LT ISZERO PUSH2 0x1F JUMPI JUMPDEST POP POP CALLDATASIZE ISZERO PUSH2 0x1D JUMPI PUSH1 0x0 DUP1 REVERT JUMPDEST STOP JUMPDEST PUSH1 0x0 SWAP2 DUP3 CALLDATALOAD PUSH1 0xE0 SHR DUP1 PUSH4 0x15CCE224 EQ PUSH2 0xA54 JUMPI DUP1 PUSH4 0x2D0335AB EQ PUSH2 0x45C JUMPI DUP1 PUSH4 0x2FDEB111 EQ PUSH2 0xA35 JUMPI DUP1 PUSH4 0x3A0FAD7F EQ PUSH2 0xA11 JUMPI DUP1 PUSH4 0x47153F82 EQ PUSH2 0x59E JUMPI DUP1 PUSH4 0x4E09A610 EQ PUSH2 0x56A JUMPI DUP1 PUSH4 0x647846A5 EQ PUSH2 0x541 JUMPI DUP1 PUSH4 0x69FE0E2D EQ PUSH2 0x4F3 JUMPI DUP1 PUSH4 0x715018A6 EQ PUSH2 0x496 JUMPI DUP1 PUSH4 0x7ECEBE00 EQ PUSH2 0x45C JUMPI DUP1 PUSH4 0x84B0196E EQ PUSH2 0x340 JUMPI DUP1 PUSH4 0x8DA5CB5B EQ PUSH2 0x317 JUMPI DUP1 PUSH4 0x8F90E902 EQ PUSH2 0x25F JUMPI DUP1 PUSH4 0xAEDC8E38 EQ PUSH2 0x23C JUMPI DUP1 PUSH4 0xBDD3D825 EQ PUSH2 0x214 JUMPI DUP1 PUSH4 0xBF5D3BDB EQ PUSH2 0x1EF JUMPI DUP1 PUSH4 0xD4E895CB EQ PUSH2 0x1C7 JUMPI PUSH4 0xF2FDE38B EQ PUSH2 0xF2 JUMPI POP PUSH2 0x10 JUMP JUMPDEST CALLVALUE PUSH2 0x1C3 JUMPI PUSH1 0x20 CALLDATASIZE PUSH1 0x3 NOT ADD SLT PUSH2 0x1C3 JUMPI PUSH1 0x1 PUSH1 0x1 PUSH1 0xA0 SHL SUB DUP3 CALLDATALOAD DUP2 DUP2 AND SWAP4 SWAP2 SWAP3 SWAP1 DUP5 SWAP1 SUB PUSH2 0x1BF JUMPI PUSH2 0x123 PUSH2 0xBD3 JUMP JUMPDEST DUP4 ISZERO PUSH2 0x16D JUMPI POP POP PUSH1 0x2 SLOAD DUP3 PUSH12 0xFFFFFFFFFFFFFFFFFFFFFFFF PUSH1 0xA0 SHL DUP3 AND OR PUSH1 0x2 SSTORE AND PUSH32 0x8BE0079C531659141344CD1FD0A4F28419497F9722A3DAAFE3B4186F6B6457E0 DUP4 DUP1 LOG3 DUP1 RETURN JUMPDEST SWAP1 PUSH1 0x20 PUSH1 0x84 SWAP3 MLOAD SWAP2 PUSH3 0x461BCD PUSH1 0xE5 SHL DUP4 MSTORE DUP3 ADD MSTORE PUSH1 0x26 PUSH1 0x24 DUP3 ADD MSTORE PUSH32 0x4F776E61626C653A206E6577206F776E657220697320746865207A65726F2061 PUSH1 0x44 DUP3 ADD MSTORE PUSH6 0x646472657373 PUSH1 0xD0 SHL PUSH1 0x64 DUP3 ADD MSTORE REVERT JUMPDEST DUP5 DUP1 REVERT JUMPDEST DUP3 DUP1 REVERT JUMPDEST DUP4 DUP3 CALLVALUE PUSH2 0x1EB JUMPI DUP2 PUSH1 0x3 NOT CALLDATASIZE ADD SLT PUSH2 0x1EB JUMPI PUSH1 0x20 SWAP1 PUSH2 0x1E4 PUSH2 0x1378 JUMP JUMPDEST SWAP1 MLOAD SWAP1 DUP2 MSTORE RETURN JUMPDEST POP DUP1 REVERT JUMPDEST DUP4 DUP3 CALLVALUE PUSH2 0x1EB JUMPI PUSH1 0x20 SWAP1 PUSH2 0x20B PUSH2 0x205 CALLDATASIZE PUSH2 0xB0B JUMP JUMPDEST SWAP2 PUSH2 0xF0F JUMP JUMPDEST SWAP1 MLOAD SWAP1 ISZERO ISZERO DUP2 MSTORE RETURN JUMPDEST POP SWAP1 CALLVALUE PUSH2 0x1C3 JUMPI DUP3 PUSH1 0x3 NOT CALLDATASIZE ADD SLT PUSH2 0x1C3 JUMPI SLOAD SWAP1 MLOAD PUSH1 0x1 PUSH1 0x1 PUSH1 0xA0 SHL SUB SWAP1 SWAP2 AND DUP2 MSTORE PUSH1 0x20 SWAP2 POP RETURN JUMPDEST POP DUP3 CALLVALUE PUSH2 0x25C JUMPI PUSH1 0x20 CALLDATASIZE PUSH1 0x3 NOT ADD SLT PUSH2 0x25C JUMPI POP PUSH2 0x1E4 PUSH1 0x20 SWAP3 CALLDATALOAD PUSH2 0x14B4 JUMP JUMPDEST DUP1 REVERT JUMPDEST POP CALLVALUE PUSH2 0x1C3 JUMPI PUSH1 0x20 CALLDATASIZE PUSH1 0x3 NOT ADD SLT PUSH2 0x1C3 JUMPI DUP2 CALLDATALOAD PUSH1 0x1 PUSH1 0x1 PUSH1 0xA0 SHL SUB DUP2 AND SWAP3 SWAP1 DUP4 SWAP1 SUB PUSH2 0x313 JUMPI PUSH2 0x28E PUSH2 0xBD3 JUMP JUMPDEST DUP3 ISZERO PUSH2 0x2D1 JUMPI DUP1 SLOAD PUSH1 0x1 PUSH1 0x1 PUSH1 0xA0 SHL SUB NOT AND DUP4 OR SWAP1 SSTORE MLOAD SWAP1 DUP2 MSTORE PUSH32 0xB8DC65E6CB5562C7DBCF0E8300047FEABEFB8DCF59D737565F34AE0DB58874E6 SWAP1 PUSH1 0x20 SWAP1 LOG1 DUP1 RETURN JUMPDEST PUSH1 0x20 PUSH1 0x64 SWAP3 MLOAD SWAP2 PUSH3 0x461BCD PUSH1 0xE5 SHL DUP4 MSTORE DUP3 ADD MSTORE PUSH1 0x1C PUSH1 0x24 DUP3 ADD MSTORE PUSH32 0x496E76616C696420556E697377617020706F6F6C206164647265737300000000 PUSH1 0x44 DUP3 ADD MSTORE REVERT JUMPDEST DUP4 DUP1 REVERT JUMPDEST DUP4 DUP3 CALLVALUE PUSH2 0x1EB JUMPI DUP2 PUSH1 0x3 NOT CALLDATASIZE ADD SLT PUSH2 0x1EB JUMPI PUSH1 0x2 SLOAD SWAP1 MLOAD PUSH1 0x1 PUSH1 0x1 PUSH1 0xA0 SHL SUB SWAP1 SWAP2 AND DUP2 MSTORE PUSH1 0x20 SWAP1 RETURN JUMPDEST POP CALLVALUE PUSH2 0x1C3 JUMPI DUP3 PUSH1 0x3 NOT CALLDATASIZE ADD SLT PUSH2 0x1C3 JUMPI PUSH2 0x37A PUSH32 0x0 PUSH2 0xC7F JUMP JUMPDEST SWAP3 PUSH2 0x3A4 PUSH32 0x0 PUSH2 0xDA2 JUMP JUMPDEST SWAP1 DUP3 MLOAD SWAP3 PUSH1 0x20 SWAP3 DUP4 DUP6 ADD SWAP6 DUP6 DUP8 LT PUSH8 0xFFFFFFFFFFFFFFFF DUP9 GT OR PUSH2 0x449 JUMPI POP SWAP3 DUP1 PUSH2 0x3FF DUP4 DUP9 SWAP7 PUSH2 0x3F2 SWAP10 DUP12 SWAP10 SWAP7 MSTORE DUP7 DUP7 MSTORE DUP2 MLOAD SWAP10 DUP11 SWAP10 PUSH1 0xF PUSH1 0xF8 SHL DUP12 MSTORE PUSH1 0xE0 DUP7 DUP13 ADD MSTORE PUSH1 0xE0 DUP12 ADD SWAP1 PUSH2 0xB77 JUMP JUMPDEST SWAP2 DUP10 DUP4 SUB SWAP1 DUP11 ADD MSTORE PUSH2 0xB77 JUMP JUMPDEST SWAP3 CHAINID PUSH1 0x60 DUP9 ADD MSTORE ADDRESS PUSH1 0x80 DUP9 ADD MSTORE DUP5 PUSH1 0xA0 DUP9 ADD MSTORE DUP7 DUP5 SUB PUSH1 0xC0 DUP9 ADD MSTORE MLOAD SWAP3 DUP4 DUP2 MSTORE ADD SWAP4 SWAP3 JUMPDEST DUP3 DUP2 LT PUSH2 0x432 JUMPI POP POP POP POP SUB SWAP1 RETURN JUMPDEST DUP4 MLOAD DUP6 MSTORE DUP7 SWAP6 POP SWAP4 DUP2 ADD SWAP4 SWAP3 DUP2 ADD SWAP3 PUSH1 0x1 ADD PUSH2 0x423 JUMP JUMPDEST PUSH4 0x4E487B71 PUSH1 0xE0 SHL DUP5 MSTORE PUSH1 0x41 SWAP1 MSTORE PUSH1 0x24 DUP4 REVERT JUMPDEST POP SWAP1 CALLVALUE PUSH2 0x1C3 JUMPI PUSH1 0x20 CALLDATASIZE PUSH1 0x3 NOT ADD SLT PUSH2 0x1C3 JUMPI CALLDATALOAD PUSH1 0x1 PUSH1 0x1 PUSH1 0xA0 SHL SUB DUP2 AND SWAP1 DUP2 SWAP1 SUB PUSH2 0x1C3 JUMPI DUP3 DUP3 SWAP2 PUSH1 0x20 SWAP5 MSTORE PUSH1 0x7 DUP5 MSTORE KECCAK256 SLOAD SWAP1 MLOAD SWAP1 DUP2 MSTORE RETURN JUMPDEST DUP4 CALLVALUE PUSH2 0x25C JUMPI DUP1 PUSH1 0x3 NOT CALLDATASIZE ADD SLT PUSH2 0x25C JUMPI PUSH2 0x4AF PUSH2 0xBD3 JUMP JUMPDEST PUSH1 0x2 DUP1 SLOAD PUSH1 0x1 PUSH1 0x1 PUSH1 0xA0 SHL SUB NOT DUP2 AND SWAP1 SWAP2 SSTORE DUP2 SWAP1 PUSH1 0x1 PUSH1 0x1 PUSH1 0xA0 SHL SUB AND PUSH32 0x8BE0079C531659141344CD1FD0A4F28419497F9722A3DAAFE3B4186F6B6457E0 DUP3 DUP1 LOG3 DUP1 RETURN JUMPDEST POP SWAP1 CALLVALUE PUSH2 0x1C3 JUMPI PUSH1 0x20 CALLDATASIZE PUSH1 0x3 NOT ADD SLT PUSH2 0x1C3 JUMPI PUSH32 0x8C4D35E54A3F2EF1134138FD8EA3DAEE6A3C89E10D2665996BABDF70261E2C76 SWAP2 PUSH1 0x20 SWAP2 CALLDATALOAD SWAP1 PUSH2 0x535 PUSH2 0xBD3 JUMP JUMPDEST DUP2 PUSH1 0x5 SSTORE MLOAD SWAP1 DUP2 MSTORE LOG1 DUP1 RETURN JUMPDEST DUP4 DUP3 CALLVALUE PUSH2 0x1EB JUMPI DUP2 PUSH1 0x3 NOT CALLDATASIZE ADD SLT PUSH2 0x1EB JUMPI PUSH1 0x3 SLOAD SWAP1 MLOAD PUSH1 0x1 PUSH1 0x1 PUSH1 0xA0 SHL SUB SWAP1 SWAP2 AND DUP2 MSTORE PUSH1 0x20 SWAP1 RETURN JUMPDEST POP SWAP1 CALLVALUE PUSH2 0x1C3 JUMPI PUSH1 0x20 CALLDATASIZE PUSH1 0x3 NOT ADD SLT PUSH2 0x1C3 JUMPI CALLDATALOAD PUSH1 0x1 PUSH1 0x1 PUSH1 0xA0 SHL SUB DUP2 AND SWAP3 SWAP1 DUP4 SWAP1 SUB PUSH2 0x25C JUMPI POP PUSH2 0x1E4 DUP3 PUSH1 0x20 SWAP4 PUSH2 0x17E5 JUMP JUMPDEST POP CALLVALUE PUSH2 0x1C3 JUMPI SWAP2 PUSH2 0x5BB SWAP3 PUSH2 0x5B2 CALLDATASIZE PUSH2 0xB0B JUMP JUMPDEST SWAP1 DUP3 SWAP7 SWAP3 PUSH2 0xF0F JUMP JUMPDEST ISZERO PUSH2 0x9DB JUMPI PUSH1 0x60 DUP5 ADD CALLDATALOAD DUP1 GASPRICE MUL SWAP4 GASPRICE DUP6 DIV DUP3 EQ GASPRICE ISZERO OR ISZERO PUSH2 0x9C8 JUMPI PUSH2 0x5E8 PUSH2 0x5E1 PUSH2 0x1378 JUMP JUMPDEST DUP1 SWAP7 PUSH2 0x1741 JUMP JUMPDEST PUSH1 0x5 SLOAD DUP1 DUP3 GT ISZERO PUSH2 0x9C0 JUMPI POP SWAP5 JUMPDEST PUSH1 0x3 SLOAD PUSH1 0x1 PUSH1 0x1 PUSH1 0xA0 SHL SUB SWAP1 DUP2 AND SWAP7 SWAP1 SWAP3 SWAP1 PUSH2 0x611 DUP10 PUSH2 0xE91 JUMP JUMPDEST DUP7 MLOAD PUSH4 0x70A08231 PUSH1 0xE0 SHL DUP2 MSTORE SWAP1 DUP6 AND DUP4 DUP3 ADD MSTORE PUSH1 0x20 SWAP9 PUSH1 0x24 SWAP5 SWAP2 DUP11 DUP2 DUP8 DUP2 DUP6 GAS STATICCALL SWAP1 DUP2 ISZERO PUSH2 0x9B6 JUMPI DUP11 SWAP2 PUSH2 0x985 JUMPI JUMPDEST POP PUSH2 0x64A DUP13 PUSH2 0xE91 JUMP JUMPDEST DUP10 MLOAD PUSH4 0x6EB1769F PUSH1 0xE1 SHL DUP2 MSTORE SWAP1 DUP9 AND DUP7 DUP3 ADD MSTORE ADDRESS DUP8 DUP3 ADD MSTORE SWAP2 DUP12 DUP4 PUSH1 0x44 DUP2 DUP5 GAS STATICCALL SWAP3 DUP4 ISZERO PUSH2 0x8C8 JUMPI DUP12 SWAP4 PUSH2 0x956 JUMPI JUMPDEST POP DUP5 DUP3 LT PUSH2 0x914 JUMPI DUP5 DUP4 LT PUSH2 0x8D2 JUMPI DUP12 DUP9 PUSH1 0x64 DUP16 DUP15 PUSH2 0x698 DUP16 SWAP3 PUSH2 0xE91 JUMP JUMPDEST SWAP2 MLOAD SWAP6 DUP7 SWAP5 DUP6 SWAP4 PUSH4 0x23B872DD PUSH1 0xE0 SHL DUP6 MSTORE AND DUP13 DUP5 ADD MSTORE CALLER DUP14 DUP5 ADD MSTORE DUP11 PUSH1 0x44 DUP5 ADD MSTORE GAS CALL SWAP1 DUP2 ISZERO PUSH2 0x8C8 JUMPI DUP12 SWAP2 PUSH2 0x88F JUMPI JUMPDEST POP ISZERO PUSH2 0x857 JUMPI SWAP2 PUSH32 0x5A7F31020E1376E114FBDAFFCACE5C65B44BBFA0A23D287A94CDBC8CD60B672C SWAP4 SWAP2 PUSH2 0x100 SWAP4 PUSH2 0x700 DUP15 PUSH2 0xE91 JUMP JUMPDEST SWAP4 DUP10 DUP13 MLOAD SWAP6 AND DUP6 MSTORE DUP14 CALLER SWAP1 DUP7 ADD MSTORE DUP12 DUP6 ADD MSTORE PUSH1 0x60 DUP5 ADD MSTORE PUSH1 0x80 DUP4 ADD MSTORE DUP8 PUSH1 0xA0 DUP4 ADD MSTORE GASPRICE PUSH1 0xC0 DUP4 ADD MSTORE PUSH1 0xE0 DUP3 ADD MSTORE LOG1 DUP3 PUSH2 0x738 DUP10 PUSH2 0xE91 JUMP JUMPDEST AND DUP7 MSTORE PUSH1 0x7 DUP8 MSTORE DUP5 DUP7 KECCAK256 SWAP2 DUP3 SLOAD SWAP2 PUSH1 0x0 NOT DUP4 EQ PUSH2 0x846 JUMPI POP POP PUSH1 0x1 ADD SWAP1 SSTORE DUP4 DUP1 DUP7 DUP9 ADD SWAP4 PUSH2 0x765 DUP6 PUSH2 0xE91 JUMP JUMPDEST SWAP1 PUSH2 0x773 PUSH1 0xA0 DUP12 ADD DUP12 PUSH2 0xEA5 JUMP JUMPDEST SWAP2 SWAP1 DUP3 DUP10 MLOAD SWAP4 DUP5 SWAP3 DUP4 CALLDATACOPY DUP2 ADD DUP6 DUP2 MSTORE SUB SWAP3 DUP9 DUP13 ADD CALLDATALOAD SWAP2 CALL SWAP4 RETURNDATASIZE ISZERO PUSH2 0x810 JUMPI PUSH2 0x7EA PUSH2 0x7E4 PUSH2 0x80C SWAP7 SWAP8 SWAP9 PUSH32 0xF58C4D9D66B0FB7F8F24128AEDB552F542F6684E19CF741A6E776BC591B4E3E2 SWAP4 RETURNDATASIZE SWAP1 PUSH2 0x7CA DUP3 PUSH2 0xE75 JUMP JUMPDEST SWAP2 PUSH2 0x7D7 DUP11 MLOAD SWAP4 DUP5 PUSH2 0xC5D JUMP JUMPDEST DUP3 MSTORE DUP2 SWAP12 RETURNDATASIZE SWAP3 ADD RETURNDATACOPY PUSH2 0xE91 JUMP JUMPDEST SWAP4 PUSH2 0xE91 JUMP JUMPDEST SWAP2 DUP1 DUP6 MLOAD SWAP4 AND SWAP4 AND SWAP2 DUP1 PUSH2 0x7FF DUP10 DUP10 DUP4 PUSH2 0xBB7 JUMP JUMPDEST SUB SWAP1 LOG3 MLOAD SWAP3 DUP4 SWAP3 DUP4 PUSH2 0xBB7 JUMP JUMPDEST SUB SWAP1 RETURN JUMPDEST POP PUSH2 0x80C SWAP4 SWAP5 POP PUSH32 0xF58C4D9D66B0FB7F8F24128AEDB552F542F6684E19CF741A6E776BC591B4E3E2 PUSH2 0x7EA PUSH2 0x7E4 PUSH1 0x60 SWAP9 PUSH2 0xE91 JUMP JUMPDEST PUSH4 0x4E487B71 PUSH1 0xE0 SHL DUP9 MSTORE PUSH1 0x11 SWAP1 MSTORE DUP7 REVERT JUMPDEST DUP9 MLOAD PUSH3 0x461BCD PUSH1 0xE5 SHL DUP2 MSTORE DUP1 DUP7 ADD DUP13 SWAP1 MSTORE PUSH1 0x13 DUP2 DUP9 ADD MSTORE PUSH19 0x119959481D1C985B9CD9995C8819985A5B1959 PUSH1 0x6A SHL PUSH1 0x44 DUP3 ADD MSTORE PUSH1 0x64 SWAP1 REVERT JUMPDEST SWAP1 POP DUP12 DUP2 DUP2 RETURNDATASIZE DUP4 GT PUSH2 0x8C1 JUMPI JUMPDEST PUSH2 0x8A6 DUP2 DUP4 PUSH2 0xC5D JUMP JUMPDEST DUP2 ADD SUB SLT PUSH2 0x8BD JUMPI PUSH2 0x8B7 SWAP1 PUSH2 0x136B JUMP JUMPDEST CODESIZE PUSH2 0x6C9 JUMP JUMPDEST DUP11 DUP1 REVERT JUMPDEST POP RETURNDATASIZE PUSH2 0x89C JUMP JUMPDEST DUP11 MLOAD RETURNDATASIZE DUP14 DUP3 RETURNDATACOPY RETURNDATASIZE SWAP1 REVERT JUMPDEST DUP10 MLOAD PUSH3 0x461BCD PUSH1 0xE5 SHL DUP2 MSTORE DUP1 DUP8 ADD DUP14 SWAP1 MSTORE PUSH1 0x1B DUP2 DUP10 ADD MSTORE PUSH32 0x496E73756666696369656E74205553444320616C6C6F77616E63650000000000 PUSH1 0x44 DUP3 ADD MSTORE PUSH1 0x64 SWAP1 REVERT JUMPDEST DUP10 MLOAD PUSH3 0x461BCD PUSH1 0xE5 SHL DUP2 MSTORE DUP1 DUP8 ADD DUP14 SWAP1 MSTORE PUSH1 0x19 DUP2 DUP10 ADD MSTORE PUSH32 0x496E73756666696369656E7420555344432062616C616E636500000000000000 PUSH1 0x44 DUP3 ADD MSTORE PUSH1 0x64 SWAP1 REVERT JUMPDEST SWAP1 SWAP3 POP DUP12 DUP2 DUP2 RETURNDATASIZE DUP4 GT PUSH2 0x97E JUMPI JUMPDEST PUSH2 0x96E DUP2 DUP4 PUSH2 0xC5D JUMP JUMPDEST DUP2 ADD SUB SLT PUSH2 0x8BD JUMPI MLOAD SWAP2 CODESIZE PUSH2 0x679 JUMP JUMPDEST POP RETURNDATASIZE PUSH2 0x964 JUMP JUMPDEST SWAP1 POP DUP11 DUP2 DUP2 RETURNDATASIZE DUP4 GT PUSH2 0x9AF JUMPI JUMPDEST PUSH2 0x99C DUP2 DUP4 PUSH2 0xC5D JUMP JUMPDEST DUP2 ADD SUB SLT PUSH2 0x9AB JUMPI MLOAD CODESIZE PUSH2 0x640 JUMP JUMPDEST DUP10 DUP1 REVERT JUMPDEST POP RETURNDATASIZE PUSH2 0x992 JUMP JUMPDEST DUP10 MLOAD RETURNDATASIZE DUP13 DUP3 RETURNDATACOPY RETURNDATASIZE SWAP1 REVERT JUMPDEST SWAP1 POP SWAP5 PUSH2 0x5F6 JUMP JUMPDEST PUSH4 0x4E487B71 PUSH1 0xE0 SHL DUP5 MSTORE PUSH1 0x11 SWAP1 MSTORE PUSH1 0x24 DUP4 REVERT JUMPDEST MLOAD PUSH3 0x461BCD PUSH1 0xE5 SHL DUP2 MSTORE PUSH1 0x20 DUP2 DUP5 ADD MSTORE PUSH1 0x11 PUSH1 0x24 DUP3 ADD MSTORE PUSH17 0x496E76616C6964207369676E6174757265 PUSH1 0x78 SHL PUSH1 0x44 DUP3 ADD MSTORE PUSH1 0x64 SWAP1 REVERT JUMPDEST DUP4 DUP3 CALLVALUE PUSH2 0x1EB JUMPI DUP2 PUSH1 0x3 NOT CALLDATASIZE ADD SLT PUSH2 0x1EB JUMPI PUSH1 0x20 SWAP1 PUSH1 0xFF PUSH1 0x6 SLOAD AND SWAP1 MLOAD SWAP1 ISZERO ISZERO DUP2 MSTORE RETURN JUMPDEST DUP4 DUP3 CALLVALUE PUSH2 0x1EB JUMPI DUP2 PUSH1 0x3 NOT CALLDATASIZE ADD SLT PUSH2 0x1EB JUMPI PUSH1 0x20 SWAP1 PUSH1 0x5 SLOAD SWAP1 MLOAD SWAP1 DUP2 MSTORE RETURN JUMPDEST POP CALLVALUE PUSH2 0x1C3 JUMPI PUSH1 0x20 CALLDATASIZE PUSH1 0x3 NOT ADD SLT PUSH2 0x1C3 JUMPI DUP2 CALLDATALOAD PUSH1 0x1 PUSH1 0x1 PUSH1 0xA0 SHL SUB DUP2 AND SWAP3 SWAP1 DUP4 SWAP1 SUB PUSH2 0x313 JUMPI PUSH2 0xA83 PUSH2 0xBD3 JUMP JUMPDEST DUP3 ISZERO PUSH2 0xAC9 JUMPI POP PUSH1 0x3 DUP1 SLOAD PUSH1 0x1 PUSH1 0x1 PUSH1 0xA0 SHL SUB NOT AND DUP4 OR SWAP1 SSTORE MLOAD SWAP1 DUP2 MSTORE PUSH32 0xA0CA04E9956A42929FA24E6299BB6622C8703AC575C61B33E01FB170100EE6DC SWAP1 PUSH1 0x20 SWAP1 LOG1 DUP1 RETURN JUMPDEST PUSH1 0x20 PUSH1 0x64 SWAP3 MLOAD SWAP2 PUSH3 0x461BCD PUSH1 0xE5 SHL DUP4 MSTORE DUP3 ADD MSTORE PUSH1 0x19 PUSH1 0x24 DUP3 ADD MSTORE PUSH32 0x496E76616C69642066656520746F6B656E206164647265737300000000000000 PUSH1 0x44 DUP3 ADD MSTORE REVERT JUMPDEST SWAP1 PUSH1 0x3 NOT SWAP1 PUSH1 0x40 DUP3 DUP5 ADD SLT PUSH2 0xB72 JUMPI PUSH1 0x4 CALLDATALOAD PUSH8 0xFFFFFFFFFFFFFFFF SWAP3 DUP4 DUP3 GT PUSH2 0xB72 JUMPI PUSH1 0xC0 SWAP1 DUP3 DUP7 SUB ADD SLT PUSH2 0xB72 JUMPI PUSH1 0x4 ADD SWAP3 PUSH1 0x24 CALLDATALOAD SWAP1 DUP4 DUP3 GT PUSH2 0xB72 JUMPI DUP1 PUSH1 0x23 DUP4 ADD SLT ISZERO PUSH2 0xB72 JUMPI DUP2 PUSH1 0x4 ADD CALLDATALOAD SWAP4 DUP5 GT PUSH2 0xB72 JUMPI PUSH1 0x24 DUP5 DUP4 ADD ADD GT PUSH2 0xB72 JUMPI PUSH1 0x24 ADD SWAP2 SWAP1 JUMP JUMPDEST PUSH1 0x0 DUP1 REVERT JUMPDEST SWAP2 SWAP1 DUP3 MLOAD SWAP3 DUP4 DUP3 MSTORE PUSH1 0x0 JUMPDEST DUP5 DUP2 LT PUSH2 0xBA3 JUMPI POP POP DUP3 PUSH1 0x0 PUSH1 0x20 DUP1 SWAP5 SWAP6 DUP5 ADD ADD MSTORE PUSH1 0x1F DUP1 NOT SWAP2 ADD AND ADD ADD SWAP1 JUMP JUMPDEST PUSH1 0x20 DUP2 DUP4 ADD DUP2 ADD MLOAD DUP5 DUP4 ADD DUP3 ADD MSTORE ADD PUSH2 0xB82 JUMP JUMPDEST PUSH1 0x40 SWAP1 PUSH2 0xBD0 SWAP4 SWAP3 ISZERO ISZERO DUP2 MSTORE DUP2 PUSH1 0x20 DUP3 ADD MSTORE ADD SWAP1 PUSH2 0xB77 JUMP JUMPDEST SWAP1 JUMP JUMPDEST PUSH1 0x2 SLOAD PUSH1 0x1 PUSH1 0x1 PUSH1 0xA0 SHL SUB AND CALLER SUB PUSH2 0xBE7 JUMPI JUMP JUMPDEST PUSH1 0x64 PUSH1 0x40 MLOAD PUSH3 0x461BCD PUSH1 0xE5 SHL DUP2 MSTORE PUSH1 0x20 PUSH1 0x4 DUP3 ADD MSTORE PUSH1 0x20 PUSH1 0x24 DUP3 ADD MSTORE PUSH32 0x4F776E61626C653A2063616C6C6572206973206E6F7420746865206F776E6572 PUSH1 0x44 DUP3 ADD MSTORE REVERT JUMPDEST PUSH1 0x40 DUP2 ADD SWAP1 DUP2 LT PUSH8 0xFFFFFFFFFFFFFFFF DUP3 GT OR PUSH2 0xC47 JUMPI PUSH1 0x40 MSTORE JUMP JUMPDEST PUSH4 0x4E487B71 PUSH1 0xE0 SHL PUSH1 0x0 MSTORE PUSH1 0x41 PUSH1 0x4 MSTORE PUSH1 0x24 PUSH1 0x0 REVERT JUMPDEST SWAP1 PUSH1 0x1F DUP1 NOT SWAP2 ADD AND DUP2 ADD SWAP1 DUP2 LT PUSH8 0xFFFFFFFFFFFFFFFF DUP3 GT OR PUSH2 0xC47 JUMPI PUSH1 0x40 MSTORE JUMP JUMPDEST PUSH1 0xFF DUP2 EQ PUSH2 0xCBD JUMPI PUSH1 0xFF DUP2 AND SWAP1 PUSH1 0x1F DUP3 GT PUSH2 0xCAB JUMPI PUSH1 0x40 MLOAD SWAP2 PUSH2 0xCA1 DUP4 PUSH2 0xC2B JUMP JUMPDEST DUP3 MSTORE PUSH1 0x20 DUP3 ADD MSTORE SWAP1 JUMP JUMPDEST PUSH1 0x40 MLOAD PUSH4 0x2CD44AC3 PUSH1 0xE2 SHL DUP2 MSTORE PUSH1 0x4 SWAP1 REVERT JUMPDEST POP PUSH1 0x40 MLOAD PUSH1 0x0 DUP1 SLOAD SWAP1 PUSH1 0x1 DUP3 DUP2 SHR SWAP1 DUP1 DUP5 AND SWAP4 DUP5 ISZERO PUSH2 0xD98 JUMPI JUMPDEST PUSH1 0x20 SWAP5 DUP6 DUP5 LT DUP2 EQ PUSH2 0xD84 JUMPI DUP4 DUP8 MSTORE DUP7 SWAP5 SWAP4 SWAP3 SWAP2 DUP2 ISZERO PUSH2 0xD64 JUMPI POP PUSH1 0x1 EQ PUSH2 0xD08 JUMPI JUMPDEST POP POP PUSH2 0xBD0 SWAP3 POP SUB DUP3 PUSH2 0xC5D JUMP JUMPDEST PUSH1 0x0 DUP1 DUP1 MSTORE PUSH32 0x290DECD9548B62A8D60345A988386FC84BA6BC95484008F6362F93160EF3E563 SWAP6 SWAP4 POP SWAP2 SWAP1 JUMPDEST DUP2 DUP4 LT PUSH2 0xD4C JUMPI POP POP PUSH2 0xBD0 SWAP4 POP DUP3 ADD ADD CODESIZE DUP1 PUSH2 0xCFA JUMP JUMPDEST DUP6 SLOAD DUP8 DUP5 ADD DUP6 ADD MSTORE SWAP5 DUP6 ADD SWAP5 DUP7 SWAP5 POP SWAP2 DUP4 ADD SWAP2 PUSH2 0xD34 JUMP JUMPDEST SWAP2 POP POP PUSH2 0xBD0 SWAP5 SWAP3 POP PUSH1 0xFF NOT AND DUP3 DUP5 ADD MSTORE ISZERO ISZERO PUSH1 0x5 SHL DUP3 ADD ADD CODESIZE DUP1 PUSH2 0xCFA JUMP JUMPDEST PUSH4 0x4E487B71 PUSH1 0xE0 SHL DUP6 MSTORE PUSH1 0x22 PUSH1 0x4 MSTORE PUSH1 0x24 DUP6 REVERT JUMPDEST SWAP2 PUSH1 0x7F AND SWAP2 PUSH2 0xCD7 JUMP JUMPDEST PUSH1 0xFF DUP2 EQ PUSH2 0xDC4 JUMPI PUSH1 0xFF DUP2 AND SWAP1 PUSH1 0x1F DUP3 GT PUSH2 0xCAB JUMPI PUSH1 0x40 MLOAD SWAP2 PUSH2 0xCA1 DUP4 PUSH2 0xC2B JUMP JUMPDEST POP PUSH1 0x40 MLOAD PUSH1 0x0 PUSH1 0x1 SWAP1 DUP2 SLOAD SWAP2 DUP3 DUP2 SHR SWAP1 DUP1 DUP5 AND SWAP4 DUP5 ISZERO PUSH2 0xE6B JUMPI JUMPDEST PUSH1 0x20 SWAP5 DUP6 DUP5 LT DUP2 EQ PUSH2 0xD84 JUMPI DUP4 DUP8 MSTORE DUP7 SWAP5 SWAP4 SWAP3 SWAP2 DUP2 ISZERO PUSH2 0xD64 JUMPI POP PUSH1 0x1 EQ PUSH2 0xE0F JUMPI POP POP PUSH2 0xBD0 SWAP3 POP SUB DUP3 PUSH2 0xC5D JUMP JUMPDEST PUSH1 0x0 DUP2 DUP2 MSTORE PUSH32 0xB10E2D527612073B26EECDFD717E6A320CF44B4AFAC2B0732D9FCBE2B7FA0CF6 SWAP6 SWAP4 POP SWAP2 SWAP1 JUMPDEST DUP2 DUP4 LT PUSH2 0xE53 JUMPI POP POP PUSH2 0xBD0 SWAP4 POP DUP3 ADD ADD CODESIZE DUP1 PUSH2 0xCFA JUMP JUMPDEST DUP6 SLOAD DUP8 DUP5 ADD DUP6 ADD MSTORE SWAP5 DUP6 ADD SWAP5 DUP7 SWAP5 POP SWAP2 DUP4 ADD SWAP2 PUSH2 0xE3B JUMP JUMPDEST SWAP2 PUSH1 0x7F AND SWAP2 PUSH2 0xDDF JUMP JUMPDEST PUSH8 0xFFFFFFFFFFFFFFFF DUP2 GT PUSH2 0xC47 JUMPI PUSH1 0x1F ADD PUSH1 0x1F NOT AND PUSH1 0x20 ADD SWAP1 JUMP JUMPDEST CALLDATALOAD PUSH1 0x1 PUSH1 0x1 PUSH1 0xA0 SHL SUB DUP2 AND DUP2 SUB PUSH2 0xB72 JUMPI SWAP1 JUMP JUMPDEST SWAP1 CALLDATALOAD SWAP1 PUSH1 0x1E NOT DUP2 CALLDATASIZE SUB ADD DUP3 SLT ISZERO PUSH2 0xB72 JUMPI ADD DUP1 CALLDATALOAD SWAP1 PUSH8 0xFFFFFFFFFFFFFFFF DUP3 GT PUSH2 0xB72 JUMPI PUSH1 0x20 ADD SWAP2 DUP2 CALLDATASIZE SUB DUP4 SGT PUSH2 0xB72 JUMPI JUMP JUMPDEST SWAP3 SWAP2 SWAP3 PUSH2 0xEE4 DUP3 PUSH2 0xE75 JUMP JUMPDEST SWAP2 PUSH2 0xEF2 PUSH1 0x40 MLOAD SWAP4 DUP5 PUSH2 0xC5D JUMP JUMPDEST DUP3 SWAP5 DUP2 DUP5 MSTORE DUP2 DUP4 ADD GT PUSH2 0xB72 JUMPI DUP3 DUP2 PUSH1 0x20 SWAP4 DUP5 PUSH1 0x0 SWAP7 ADD CALLDATACOPY ADD ADD MSTORE JUMP JUMPDEST SWAP2 PUSH2 0xF19 DUP4 PUSH2 0xE91 JUMP JUMPDEST PUSH2 0xF25 PUSH1 0x20 DUP6 ADD PUSH2 0xE91 JUMP JUMPDEST SWAP2 PUSH1 0x80 DUP6 ADD CALLDATALOAD SWAP2 PUSH2 0xF43 PUSH2 0xF3C PUSH1 0xA0 DUP9 ADD DUP9 PUSH2 0xEA5 JUMP JUMPDEST CALLDATASIZE SWAP2 PUSH2 0xED8 JUMP JUMPDEST PUSH1 0x20 DUP2 MLOAD SWAP2 ADD KECCAK256 SWAP2 PUSH1 0x40 SWAP3 DUP4 MLOAD SWAP1 PUSH1 0x20 DUP3 ADD SWAP4 PUSH32 0xDD8F4B70B0F4393E889BD39128A30628A78B61816A9EB8199759E7A349657E48 DUP6 MSTORE PUSH1 0x1 DUP1 PUSH1 0xA0 SHL SUB SWAP8 DUP9 DUP1 SWAP3 AND DUP8 DUP6 ADD MSTORE AND PUSH1 0x60 DUP4 ADD MSTORE DUP5 DUP10 ADD CALLDATALOAD PUSH1 0x80 DUP4 ADD MSTORE PUSH1 0x60 DUP10 ADD CALLDATALOAD PUSH1 0xA0 DUP4 ADD MSTORE DUP6 PUSH1 0xC0 DUP4 ADD MSTORE PUSH1 0xE0 DUP3 ADD MSTORE PUSH1 0xE0 DUP2 MSTORE PUSH2 0x100 DUP2 ADD SWAP7 DUP2 DUP9 LT PUSH8 0xFFFFFFFFFFFFFFFF DUP10 GT OR PUSH2 0xC47 JUMPI PUSH1 0x42 PUSH2 0x100A SWAP5 PUSH2 0x1004 SWAP4 PUSH2 0x1012 SWAP11 DUP9 MSTORE MLOAD SWAP1 KECCAK256 PUSH2 0xFE5 PUSH2 0x1231 JUMP JUMPDEST SWAP1 DUP8 MLOAD SWAP2 PUSH2 0x1901 PUSH1 0xF0 SHL DUP4 MSTORE PUSH1 0x2 DUP4 ADD MSTORE PUSH1 0x22 DUP3 ADD MSTORE KECCAK256 SWAP3 CALLDATASIZE SWAP2 PUSH2 0xED8 JUMP JUMPDEST SWAP1 PUSH2 0x116A JUMP JUMPDEST SWAP5 SWAP1 SWAP5 PUSH2 0x1050 JUMP JUMPDEST DUP3 PUSH2 0x101C DUP7 PUSH2 0xE91 JUMP JUMPDEST AND PUSH1 0x0 MSTORE PUSH1 0x7 PUSH1 0x20 MSTORE PUSH1 0x0 KECCAK256 SLOAD EQ SWAP3 DUP4 PUSH2 0x1037 JUMPI JUMPDEST POP POP POP SWAP1 JUMP JUMPDEST DUP2 SWAP3 SWAP4 POP PUSH2 0x1044 SWAP1 PUSH2 0xE91 JUMP JUMPDEST AND SWAP2 AND EQ CODESIZE DUP1 DUP1 PUSH2 0x1031 JUMP JUMPDEST PUSH1 0x5 DUP2 LT ISZERO PUSH2 0x1154 JUMPI DUP1 PUSH2 0x1061 JUMPI POP JUMP JUMPDEST PUSH1 0x1 DUP2 SUB PUSH2 0x10AE JUMPI PUSH1 0x40 MLOAD PUSH3 0x461BCD PUSH1 0xE5 SHL DUP2 MSTORE PUSH1 0x20 PUSH1 0x4 DUP3 ADD MSTORE PUSH1 0x18 PUSH1 0x24 DUP3 ADD MSTORE PUSH32 0x45434453413A20696E76616C6964207369676E61747572650000000000000000 PUSH1 0x44 DUP3 ADD MSTORE PUSH1 0x64 SWAP1 REVERT JUMPDEST PUSH1 0x2 DUP2 SUB PUSH2 0x10FB JUMPI PUSH1 0x40 MLOAD PUSH3 0x461BCD PUSH1 0xE5 SHL DUP2 MSTORE PUSH1 0x20 PUSH1 0x4 DUP3 ADD MSTORE PUSH1 0x1F PUSH1 0x24 DUP3 ADD MSTORE PUSH32 0x45434453413A20696E76616C6964207369676E6174757265206C656E67746800 PUSH1 0x44 DUP3 ADD MSTORE PUSH1 0x64 SWAP1 REVERT JUMPDEST PUSH1 0x3 EQ PUSH2 0x1104 JUMPI JUMP JUMPDEST PUSH1 0x40 MLOAD PUSH3 0x461BCD PUSH1 0xE5 SHL DUP2 MSTORE PUSH1 0x20 PUSH1 0x4 DUP3 ADD MSTORE PUSH1 0x22 PUSH1 0x24 DUP3 ADD MSTORE PUSH32 0x45434453413A20696E76616C6964207369676E6174757265202773272076616C PUSH1 0x44 DUP3 ADD MSTORE PUSH2 0x7565 PUSH1 0xF0 SHL PUSH1 0x64 DUP3 ADD MSTORE PUSH1 0x84 SWAP1 REVERT JUMPDEST PUSH4 0x4E487B71 PUSH1 0xE0 SHL PUSH1 0x0 MSTORE PUSH1 0x21 PUSH1 0x4 MSTORE PUSH1 0x24 PUSH1 0x0 REVERT JUMPDEST SWAP1 PUSH1 0x41 DUP2 MLOAD EQ PUSH1 0x0 EQ PUSH2 0x1198 JUMPI PUSH2 0x1194 SWAP2 PUSH1 0x20 DUP3 ADD MLOAD SWAP1 PUSH1 0x60 PUSH1 0x40 DUP5 ADD MLOAD SWAP4 ADD MLOAD PUSH1 0x0 BYTE SWAP1 PUSH2 0x11A2 JUMP JUMPDEST SWAP1 SWAP2 JUMP JUMPDEST POP POP PUSH1 0x0 SWAP1 PUSH1 0x2 SWAP1 JUMP JUMPDEST SWAP3 SWAP2 SWAP1 PUSH32 0x7FFFFFFFFFFFFFFFFFFFFFFFFFFFFFFF5D576E7357A4501DDFE92F46681B20A0 DUP4 GT PUSH2 0x1225 JUMPI SWAP2 PUSH1 0x80 SWAP5 SWAP4 SWAP2 PUSH1 0xFF PUSH1 0x20 SWAP5 PUSH1 0x40 MLOAD SWAP5 DUP6 MSTORE AND DUP5 DUP5 ADD MSTORE PUSH1 0x40 DUP4 ADD MSTORE PUSH1 0x60 DUP3 ADD MSTORE PUSH1 0x0 SWAP4 DUP5 SWAP2 DUP3 DUP1 MSTORE PUSH1 0x1 GAS STATICCALL ISZERO PUSH2 0x1218 JUMPI DUP2 MLOAD PUSH1 0x1 PUSH1 0x1 PUSH1 0xA0 SHL SUB DUP2 AND ISZERO PUSH2 0x1212 JUMPI SWAP2 SWAP1 JUMP JUMPDEST POP PUSH1 0x1 SWAP1 JUMP JUMPDEST POP PUSH1 0x40 MLOAD SWAP1 RETURNDATASIZE SWAP1 DUP3 RETURNDATACOPY RETURNDATASIZE SWAP1 REVERT JUMPDEST POP POP POP POP PUSH1 0x0 SWAP1 PUSH1 0x3 SWAP1 JUMP JUMPDEST ADDRESS PUSH32 0x0 PUSH1 0x1 PUSH1 0x1 PUSH1 0xA0 SHL SUB AND EQ DUP1 PUSH2 0x1333 JUMPI JUMPDEST ISZERO PUSH2 0x128C JUMPI PUSH32 0x0 SWAP1 JUMP JUMPDEST PUSH1 0x40 MLOAD PUSH1 0x20 DUP2 ADD SWAP1 PUSH32 0x8B73C3C69BB8FE3D512ECC4CF759CC79239F7B179B0FFACAA9A75D522B39400F DUP3 MSTORE PUSH32 0x0 PUSH1 0x40 DUP3 ADD MSTORE PUSH32 0x0 PUSH1 0x60 DUP3 ADD MSTORE CHAINID PUSH1 0x80 DUP3 ADD MSTORE ADDRESS PUSH1 0xA0 DUP3 ADD MSTORE PUSH1 0xA0 DUP2 MSTORE PUSH1 0xC0 DUP2 ADD DUP2 DUP2 LT PUSH8 0xFFFFFFFFFFFFFFFF DUP3 GT OR PUSH2 0xC47 JUMPI PUSH1 0x40 MSTORE MLOAD SWAP1 KECCAK256 SWAP1 JUMP JUMPDEST POP PUSH32 0x0 CHAINID EQ PUSH2 0x1263 JUMP JUMPDEST MLOAD SWAP1 PUSH2 0xFFFF DUP3 AND DUP3 SUB PUSH2 0xB72 JUMPI JUMP JUMPDEST MLOAD SWAP1 DUP2 ISZERO ISZERO DUP3 SUB PUSH2 0xB72 JUMPI JUMP JUMPDEST PUSH1 0x4 DUP1 SLOAD PUSH1 0x40 MLOAD PUSH4 0x3850C7BD PUSH1 0xE0 SHL DUP2 MSTORE PUSH1 0x1 PUSH1 0x1 PUSH1 0xA0 SHL SUB SWAP3 SWAP1 SWAP2 PUSH1 0xE0 SWAP2 DUP4 SWAP2 DUP3 SWAP1 DUP7 AND GAS STATICCALL SWAP1 DUP2 ISZERO PUSH2 0x1458 JUMPI PUSH1 0x0 SWAP2 PUSH2 0x13C3 JUMPI JUMPDEST POP PUSH2 0xBD0 SWAP2 PUSH2 0x13BE SWAP2 AND DUP1 PUSH2 0x17E5 JUMP JUMPDEST PUSH2 0x14B4 JUMP JUMPDEST PUSH1 0xE0 DUP2 RETURNDATASIZE DUP3 GT PUSH2 0x1450 JUMPI JUMPDEST DUP2 PUSH2 0x13DB PUSH1 0xE0 SWAP4 DUP4 PUSH2 0xC5D JUMP JUMPDEST DUP2 ADD SUB SLT PUSH2 0x1EB JUMPI DUP1 MLOAD SWAP2 DUP4 DUP4 AND DUP4 SUB PUSH2 0x25C JUMPI PUSH1 0x20 DUP3 ADD MLOAD DUP1 PUSH1 0x2 SIGNEXTEND SUB PUSH2 0x25C JUMPI PUSH2 0x1409 PUSH1 0x40 DUP4 ADD PUSH2 0x135C JUMP JUMPDEST POP PUSH2 0x1416 PUSH1 0x60 DUP4 ADD PUSH2 0x135C JUMP JUMPDEST POP PUSH2 0x1423 PUSH1 0x80 DUP4 ADD PUSH2 0x135C JUMP JUMPDEST POP PUSH1 0xA0 DUP3 ADD MLOAD PUSH1 0xFF DUP2 AND SUB PUSH2 0x25C JUMPI POP SWAP2 PUSH2 0x13BE SWAP2 PUSH2 0x1447 PUSH1 0xC0 PUSH2 0xBD0 SWAP6 ADD PUSH2 0x136B JUMP JUMPDEST POP SWAP2 POP SWAP2 PUSH2 0x13AE JUMP JUMPDEST RETURNDATASIZE SWAP2 POP PUSH2 0x13CE JUMP JUMPDEST PUSH1 0x40 MLOAD RETURNDATASIZE PUSH1 0x0 DUP3 RETURNDATACOPY RETURNDATASIZE SWAP1 REVERT JUMPDEST SWAP1 DUP2 PUSH1 0x20 SWAP2 SUB SLT PUSH2 0xB72 JUMPI MLOAD PUSH1 0x1 PUSH1 0x1 PUSH1 0xA0 SHL SUB DUP2 AND DUP2 SUB PUSH2 0xB72 JUMPI SWAP1 JUMP JUMPDEST SWAP2 SWAP1 DUP3 SUB SWAP2 DUP3 GT PUSH2 0x1490 JUMPI JUMP JUMPDEST PUSH4 0x4E487B71 PUSH1 0xE0 SHL PUSH1 0x0 MSTORE PUSH1 0x11 PUSH1 0x4 MSTORE PUSH1 0x24 PUSH1 0x0 REVERT JUMPDEST PUSH1 0x4D DUP2 GT PUSH2 0x1490 JUMPI PUSH1 0xA EXP SWAP1 JUMP JUMPDEST PUSH1 0x6 SLOAD PUSH1 0xFF AND SWAP1 DUP2 ISZERO PUSH2 0x16ED JUMPI PUSH1 0x4 DUP1 SLOAD PUSH1 0x40 MLOAD PUSH4 0xDFE1681 PUSH1 0xE0 SHL DUP2 MSTORE SWAP2 PUSH1 0x20 SWAP2 DUP4 SWAP2 SWAP1 DUP3 SWAP1 PUSH1 0x1 PUSH1 0x1 PUSH1 0xA0 SHL SUB AND GAS STATICCALL DUP1 ISZERO PUSH2 0x1458 JUMPI PUSH2 0x16CF JUMPI JUMPDEST POP JUMPDEST PUSH1 0x1 DUP1 PUSH1 0xA0 SHL SUB SWAP2 DUP3 PUSH1 0x4 SLOAD AND SWAP1 PUSH1 0x40 SWAP4 DUP5 MLOAD PUSH4 0xDFE1681 PUSH1 0xE0 SHL DUP2 MSTORE PUSH1 0x20 SWAP1 DUP2 DUP2 PUSH1 0x4 DUP2 DUP9 GAS STATICCALL SWAP1 DUP2 ISZERO PUSH2 0x16C4 JUMPI PUSH1 0x0 SWAP2 PUSH2 0x16A7 JUMPI JUMPDEST POP DUP7 MLOAD SWAP5 DUP3 DUP7 PUSH1 0x4 DUP2 DUP8 PUSH4 0x313CE567 PUSH1 0xE0 SHL SWAP7 DUP8 DUP4 MSTORE AND GAS STATICCALL SWAP6 DUP7 ISZERO PUSH2 0x166D JUMPI PUSH1 0x0 SWAP7 PUSH2 0x1678 JUMPI JUMPDEST POP SWAP1 DUP3 PUSH1 0x4 SWAP3 DUP10 MLOAD SWAP4 DUP5 DUP1 SWAP3 PUSH4 0xD21220A7 PUSH1 0xE0 SHL DUP3 MSTORE GAS STATICCALL SWAP2 DUP3 ISZERO PUSH2 0x166D JUMPI SWAP1 DUP4 SWAP3 SWAP2 PUSH1 0x0 SWAP3 PUSH2 0x163B JUMPI JUMPDEST POP PUSH1 0x4 SWAP1 DUP10 MLOAD SWAP6 DUP7 SWAP4 DUP5 SWAP3 DUP4 MSTORE AND GAS STATICCALL SWAP6 DUP7 ISZERO PUSH2 0x1631 JUMPI POP PUSH1 0x0 SWAP6 PUSH2 0x1600 JUMPI JUMPDEST POP POP PUSH1 0x0 SWAP1 PUSH1 0x0 EQ PUSH2 0x15DA JUMPI POP PUSH2 0xBD0 SWAP3 DUP2 DUP2 GT ISZERO PUSH2 0x15CE JUMPI PUSH2 0x15C8 SWAP2 PUSH2 0x15C3 SWAP2 PUSH2 0x1483 JUMP JUMPDEST PUSH2 0x14A6 JUMP JUMPDEST SWAP1 PUSH2 0x17E5 JUMP JUMPDEST POP POP PUSH2 0x15C8 PUSH1 0x0 PUSH2 0x14A6 JUMP JUMPDEST PUSH2 0xBD0 SWAP4 PUSH2 0x15F4 SWAP3 DUP2 DUP2 GT ISZERO PUSH2 0x15F9 JUMPI PUSH2 0x15C3 SWAP3 POP PUSH2 0x1483 JUMP JUMPDEST PUSH2 0x182A JUMP JUMPDEST POP POP PUSH2 0x14A6 JUMP JUMPDEST DUP2 DUP2 SWAP7 SWAP3 SWAP4 SWAP7 RETURNDATASIZE DUP4 GT PUSH2 0x162A JUMPI JUMPDEST PUSH2 0x1618 DUP2 DUP4 PUSH2 0xC5D JUMP JUMPDEST DUP2 ADD SUB SLT PUSH2 0x25C JUMPI POP MLOAD SWAP3 CODESIZE DUP1 PUSH2 0x159D JUMP JUMPDEST POP RETURNDATASIZE PUSH2 0x160E JUMP JUMPDEST MLOAD RETURNDATASIZE PUSH1 0x0 DUP3 RETURNDATACOPY RETURNDATASIZE SWAP1 REVERT JUMPDEST PUSH1 0x4 SWAP2 SWAP3 POP PUSH2 0x165F SWAP1 DUP5 RETURNDATASIZE DUP7 GT PUSH2 0x1666 JUMPI JUMPDEST PUSH2 0x1657 DUP2 DUP4 PUSH2 0xC5D JUMP JUMPDEST DUP2 ADD SWAP1 PUSH2 0x1464 JUMP JUMPDEST SWAP2 SWAP1 PUSH2 0x157D JUMP JUMPDEST POP RETURNDATASIZE PUSH2 0x164D JUMP JUMPDEST DUP9 MLOAD RETURNDATASIZE PUSH1 0x0 DUP3 RETURNDATACOPY RETURNDATASIZE SWAP1 REVERT JUMPDEST SWAP1 SWAP6 DUP4 DUP3 DUP2 RETURNDATASIZE DUP4 GT PUSH2 0x16A0 JUMPI JUMPDEST PUSH2 0x168F DUP2 DUP4 PUSH2 0xC5D JUMP JUMPDEST DUP2 ADD SUB SLT PUSH2 0x25C JUMPI POP MLOAD SWAP5 DUP3 PUSH2 0x1552 JUMP JUMPDEST POP RETURNDATASIZE PUSH2 0x1685 JUMP JUMPDEST PUSH2 0x16BE SWAP2 POP DUP3 RETURNDATASIZE DUP5 GT PUSH2 0x1666 JUMPI PUSH2 0x1657 DUP2 DUP4 PUSH2 0xC5D JUMP JUMPDEST CODESIZE PUSH2 0x152A JUMP JUMPDEST DUP8 MLOAD RETURNDATASIZE PUSH1 0x0 DUP3 RETURNDATACOPY RETURNDATASIZE SWAP1 REVERT JUMPDEST PUSH2 0x16E6 SWAP1 PUSH1 0x20 RETURNDATASIZE DUP2 GT PUSH2 0x1666 JUMPI PUSH2 0x1657 DUP2 DUP4 PUSH2 0xC5D JUMP JUMPDEST POP CODESIZE PUSH2 0x14F1 JUMP JUMPDEST PUSH1 0x4 DUP1 SLOAD PUSH1 0x40 MLOAD PUSH4 0xD21220A7 PUSH1 0xE0 SHL DUP2 MSTORE SWAP2 PUSH1 0x20 SWAP2 DUP4 SWAP2 SWAP1 DUP3 SWAP1 PUSH1 0x1 PUSH1 0x1 PUSH1 0xA0 SHL SUB AND GAS STATICCALL DUP1 ISZERO PUSH2 0x1458 JUMPI PUSH2 0x1723 JUMPI JUMPDEST POP PUSH2 0x14F3 JUMP JUMPDEST PUSH2 0x173A SWAP1 PUSH1 0x20 RETURNDATASIZE DUP2 GT PUSH2 0x1666 JUMPI PUSH2 0x1657 DUP2 DUP4 PUSH2 0xC5D JUMP JUMPDEST POP CODESIZE PUSH2 0x171D JUMP JUMPDEST SWAP1 PUSH1 0x0 NOT DUP2 DUP4 MULMOD DUP2 DUP4 MUL SWAP2 DUP3 DUP1 DUP4 LT SWAP3 SUB SWAP2 DUP1 DUP4 SUB SWAP3 EQ PUSH2 0x17D4 JUMPI PUSH8 0xDE0B6B3A7640000 SWAP1 DUP3 DUP3 GT ISZERO PUSH2 0x17A4 JUMPI PUSH32 0xACCB18165BD6FE31AE1CF318DC5B51EEE0E1BA569B88CD74C1773B91FAC10669 SWAP5 MULMOD SWAP1 DUP3 DUP3 GT SWAP1 SUB PUSH1 0xEE SHL SWAP2 SUB PUSH1 0x12 SHR OR MUL SWAP1 JUMP JUMPDEST PUSH1 0x40 MLOAD PUSH3 0x461BCD PUSH1 0xE5 SHL DUP2 MSTORE PUSH1 0x20 PUSH1 0x4 DUP3 ADD MSTORE PUSH1 0x8 PUSH1 0x24 DUP3 ADD MSTORE PUSH8 0x4F766572666C6F77 PUSH1 0xC0 SHL PUSH1 0x44 DUP3 ADD MSTORE PUSH1 0x64 SWAP1 REVERT JUMPDEST POP POP PUSH8 0xDE0B6B3A7640000 SWAP2 POP DIV SWAP1 JUMP JUMPDEST PUSH1 0x0 NOT DUP3 DUP3 MULMOD SWAP1 DUP3 DUP2 MUL SWAP3 DUP4 DUP1 DUP5 LT SWAP4 SUB SWAP3 DUP1 DUP5 SUB SWAP4 EQ PUSH2 0x1821 JUMPI PUSH1 0x1 PUSH1 0x60 SHL SWAP2 DUP4 DUP4 GT ISZERO PUSH2 0x17A4 JUMPI MULMOD SWAP1 DUP3 DUP3 GT SWAP1 SUB PUSH1 0xA0 SHL SWAP2 SUB PUSH1 0x60 SHR OR SWAP1 JUMP JUMPDEST POP POP POP PUSH1 0x60 SHR SWAP1 JUMP JUMPDEST PUSH1 0x1 PUSH1 0x60 SHL SWAP2 PUSH1 0x0 NOT DUP3 DUP5 MULMOD SWAP3 DUP3 PUSH1 0x60 SHL SWAP3 DUP4 DUP1 DUP7 LT SWAP6 SUB SWAP5 DUP1 DUP7 SUB SWAP6 EQ PUSH2 0x18A6 JUMPI DUP5 DUP4 GT ISZERO PUSH2 0x17A4 JUMPI DUP3 SWAP2 MULMOD PUSH1 0x1 DUP3 NOT ADD DUP3 AND DUP1 SWAP3 DIV PUSH1 0x2 DUP1 DUP3 PUSH1 0x3 MUL XOR DUP1 DUP4 MUL DUP3 SUB MUL DUP1 DUP4 MUL DUP3 SUB MUL DUP1 DUP4 MUL DUP3 SUB MUL DUP1 DUP4 MUL DUP3 SUB MUL DUP1 DUP4 MUL DUP3 SUB MUL DUP1 SWAP3 MUL SWAP1 SUB MUL SWAP4 PUSH1 0x1 DUP4 DUP1 PUSH1 0x0 SUB DIV ADD SWAP1 DUP5 DUP4 GT SWAP1 SUB MUL SWAP3 SUB DIV OR MUL SWAP1 JUMP JUMPDEST POP POP DUP1 SWAP3 POP ISZERO PUSH2 0x18B4 JUMPI DIV SWAP1 JUMP JUMPDEST PUSH1 0x40 MLOAD PUSH3 0x461BCD PUSH1 0xE5 SHL DUP2 MSTORE PUSH1 0x20 PUSH1 0x4 DUP3 ADD MSTORE PUSH1 0x10 PUSH1 0x24 DUP3 ADD MSTORE PUSH16 0x44656E6F6D696E61746F72207A65726F PUSH1 0x80 SHL PUSH1 0x44 DUP3 ADD MSTORE PUSH1 0x64 SWAP1 REVERT INVALID LOG2 PUSH5 0x6970667358 0x22 SLT KECCAK256 RETURN MUL LOG4 0xAB GAS SUB GASLIMIT SLOAD 0xBA PUSH28 0x506FEA01910C4F4D613E8F49E00B824875DAAC6B4CF964736F6C6343 STOP ADDMOD EQ STOP CALLER "},"gasEstimates":{"creation":{"codeDepositCost":"1286800","executionCost":"infinite","totalCost":"infinite"},"external":{"eip712Domain()":"infinite","execute((address,address,uint256,uint256,uint256,bytes),bytes)":"infinite","feeToken()":"2424","getActualPrice(uint256)":"infinite","getEthPriceInUSDC()":"infinite","getNonce(address)":"2401","getPriceX96FromSqrtPriceX96(uint160)":"545","isToken0USDC()":"2349","nonces(address)":"2577","owner()":"2534","relayerFee()":"2315","renounceOwnership()":"28249","setFee(uint256)":"25608","setFeeToken(address)":"27651","setUniswapPool(address)":"27910","transferOwnership(address)":"28498","uniswapPool()":"2598","verify((address,address,uint256,uint256,uint256,bytes),bytes)":"infinite"}},"methodIdentifiers":{"eip712Domain()":"84b0196e","execute((address,address,uint256,uint256,uint256,bytes),bytes)":"47153f82","feeToken()":"647846a5","getActualPrice(uint256)":"aedc8e38","getEthPriceInUSDC()":"d4e895cb","getNonce(address)":"2d0335ab","getPriceX96FromSqrtPriceX96(uint160)":"4e09a610","isToken0USDC()":"3a0fad7f","nonces(address)":"7ecebe00","owner()":"8da5cb5b","relayerFee()":"2fdeb111","renounceOwnership()":"715018a6","setFee(uint256)":"69fe0e2d","setFeeToken(address)":"15cce224","setUniswapPool(address)":"8f90e902","transferOwnership(address)":"f2fde38b","uniswapPool()":"bdd3d825","verify((address,address,uint256,uint256,uint256,bytes),bytes)":"bf5d3bdb"}},"storageLayout":{"storage":[{"astId":1199,"contract":"contracts/gaslessRelayer.sol:GaslessRelayer","label":"_nameFallback","offset":0,"slot":"0","type":"t_string_storage"},{"astId":1201,"contract":"contracts/gaslessRelayer.sol:GaslessRelayer","label":"_versionFallback","offset":0,"slot":"1","type":"t_string_storage"},{"astId":7,"contract":"contracts/gaslessRelayer.sol:GaslessRelayer","label":"_owner","offset":0,"slot":"2","type":"t_address"},{"astId":2946,"contract":"contracts/gaslessRelayer.sol:GaslessRelayer","label":"feeToken","offset":0,"slot":"3","type":"t_contract(IERC20)215"},{"astId":2949,"contract":"contracts/gaslessRelayer.sol:GaslessRelayer","label":"uniswapPool","offset":0,"slot":"4","type":"t_contract(IUniswapV3Pool)2363"},{"astId":2951,"contract":"contracts/gaslessRelayer.sol:GaslessRelayer","label":"relayerFee","offset":0,"slot":"5","type":"t_uint256"},{"astId":2953,"contract":"contracts/gaslessRelayer.sol:GaslessRelayer","label":"isToken0USDC","offset":0,"slot":"6","type":"t_bool"},{"astId":2957,"contract":"contracts/gaslessRelayer.sol:GaslessRelayer","label":"nonces","offset":0,"slot":"7","type":"t_mapping(t_address,t_uint256)"}],"types":{"t_address":{"encoding":"inplace","label":"address","numberOfBytes":"20"},"t_bool":{"encoding":"inplace","label":"bool","numberOfBytes":"1"},"t_contract(IERC20)215":{"encoding":"inplace","label":"contract IERC20","numberOfBytes":"20"},"t_contract(IUniswapV3Pool)2363":{"encoding":"inplace","label":"contract IUniswapV3Pool","numberOfBytes":"20"},"t_mapping(t_address,t_uint256)":{"encoding":"mapping","key":"t_address","label":"mapping(address => uint256)","numberOfBytes":"32","value":"t_uint256"},"t_string_storage":{"encoding":"bytes","label":"string","numberOfBytes":"32"},"t_uint256":{"encoding":"inplace","label":"uint256","numberOfBytes":"32"}}},"userdoc":{"kind":"user","methods":{},"version":1}}}}