{
  "_format": "hh-sol-artifact-1",
  "contractName": "GaslessRelayer",
  "sourceName": "contracts/gaslessRelayer.sol",
  "abi": [
    {
      "inputs": [
        {
          "internalType": "address",
          "name": "_feeToken",
          "type": "address"
        },
        {
          "internalType": "uint256",
          "name": "_gasOverhead",
          "type": "uint256"
        },
        {
          "internalType": "address",
          "name": "_priceFeed",
          "type": "address"
        }
      ],
      "stateMutability": "nonpayable",
      "type": "constructor"
    },
    {
      "inputs": [],
      "name": "InvalidShortString",
      "type": "error"
    },
    {
      "inputs": [
        {
          "internalType": "string",
          "name": "str",
          "type": "string"
        }
      ],
      "name": "StringTooLong",
      "type": "error"
    },
    {
      "anonymous": false,
      "inputs": [
        {
          "indexed": false,
          "internalType": "address",
          "name": "from",
          "type": "address"
        },
        {
          "indexed": false,
          "internalType": "address",
          "name": "relayer",
          "type": "address"
        },
        {
          "indexed": false,
          "internalType": "uint256",
          "name": "gas",
          "type": "uint256"
        },
        {
          "indexed": false,
          "internalType": "uint256",
          "name": "balance",
          "type": "uint256"
        },
        {
          "indexed": false,
          "internalType": "uint256",
          "name": "allowance",
          "type": "uint256"
        }
      ],
      "name": "DebugInfo",
      "type": "event"
    },
    {
      "anonymous": false,
      "inputs": [],
      "name": "EIP712DomainChanged",
      "type": "event"
    },
    {
      "anonymous": false,
      "inputs": [
        {
          "indexed": false,
          "internalType": "address",
          "name": "newToken",
          "type": "address"
        }
      ],
      "name": "FeeTokenUpdated",
      "type": "event"
    },
    {
      "anonymous": false,
      "inputs": [
        {
          "indexed": true,
          "internalType": "address",
          "name": "previousOwner",
          "type": "address"
        },
        {
          "indexed": true,
          "internalType": "address",
          "name": "newOwner",
          "type": "address"
        }
      ],
      "name": "OwnershipTransferred",
      "type": "event"
    },
    {
      "anonymous": false,
      "inputs": [
        {
          "indexed": true,
          "internalType": "address",
          "name": "from",
          "type": "address"
        },
        {
          "indexed": true,
          "internalType": "address",
          "name": "to",
          "type": "address"
        },
        {
          "indexed": false,
          "internalType": "bool",
          "name": "success",
          "type": "bool"
        },
        {
          "indexed": false,
          "internalType": "bytes",
          "name": "returnData",
          "type": "bytes"
        }
      ],
      "name": "TransactionRelayed",
      "type": "event"
    },
    {
      "anonymous": false,
      "inputs": [
        {
          "indexed": false,
          "internalType": "uint256",
          "name": "newGas",
          "type": "uint256"
        }
      ],
      "name": "gasOverheadUpdated",
      "type": "event"
    },
    {
      "inputs": [],
      "name": "eip712Domain",
      "outputs": [
        {
          "internalType": "bytes1",
          "name": "fields",
          "type": "bytes1"
        },
        {
          "internalType": "string",
          "name": "name",
          "type": "string"
        },
        {
          "internalType": "string",
          "name": "version",
          "type": "string"
        },
        {
          "internalType": "uint256",
          "name": "chainId",
          "type": "uint256"
        },
        {
          "internalType": "address",
          "name": "verifyingContract",
          "type": "address"
        },
        {
          "internalType": "bytes32",
          "name": "salt",
          "type": "bytes32"
        },
        {
          "internalType": "uint256[]",
          "name": "extensions",
          "type": "uint256[]"
        }
      ],
      "stateMutability": "view",
      "type": "function"
    },
    {
      "inputs": [
        {
          "internalType": "uint256",
          "name": "gasEstimate",
          "type": "uint256"
        }
      ],
      "name": "estimateFeeInUSDC",
      "outputs": [
        {
          "internalType": "uint256",
          "name": "",
          "type": "uint256"
        }
      ],
      "stateMutability": "view",
      "type": "function"
    },
    {
      "inputs": [
        {
          "components": [
            {
              "internalType": "address",
              "name": "from",
              "type": "address"
            },
            {
              "internalType": "address",
              "name": "to",
              "type": "address"
            },
            {
              "internalType": "uint256",
              "name": "value",
              "type": "uint256"
            },
            {
              "internalType": "uint256",
              "name": "gas",
              "type": "uint256"
            },
            {
              "internalType": "uint256",
              "name": "nonce",
              "type": "uint256"
            },
            {
              "internalType": "bytes",
              "name": "data",
              "type": "bytes"
            }
          ],
          "internalType": "struct GaslessRelayer.ForwardRequest",
          "name": "req",
          "type": "tuple"
        },
        {
          "internalType": "bytes",
          "name": "signature",
          "type": "bytes"
        }
      ],
      "name": "execute",
      "outputs": [
        {
          "internalType": "bool",
          "name": "success",
          "type": "bool"
        },
        {
          "internalType": "bytes",
          "name": "ret",
          "type": "bytes"
        }
      ],
      "stateMutability": "nonpayable",
      "type": "function"
    },
    {
      "inputs": [],
      "name": "feeToken",
      "outputs": [
        {
          "internalType": "contract IERC20",
          "name": "",
          "type": "address"
        }
      ],
      "stateMutability": "view",
      "type": "function"
    },
    {
      "inputs": [],
      "name": "gasOverhead",
      "outputs": [
        {
          "internalType": "uint256",
          "name": "",
          "type": "uint256"
        }
      ],
      "stateMutability": "view",
      "type": "function"
    },
    {
      "inputs": [],
      "name": "getEthPriceInUSDC",
      "outputs": [
        {
          "internalType": "uint256",
          "name": "",
          "type": "uint256"
        }
      ],
      "stateMutability": "view",
      "type": "function"
    },
    {
      "inputs": [
        {
          "internalType": "address",
          "name": "from",
          "type": "address"
        }
      ],
      "name": "getNonce",
      "outputs": [
        {
          "internalType": "uint256",
          "name": "",
          "type": "uint256"
        }
      ],
      "stateMutability": "view",
      "type": "function"
    },
    {
      "inputs": [
        {
          "internalType": "address",
          "name": "",
          "type": "address"
        }
      ],
      "name": "nonces",
      "outputs": [
        {
          "internalType": "uint256",
          "name": "",
          "type": "uint256"
        }
      ],
      "stateMutability": "view",
      "type": "function"
    },
    {
      "inputs": [],
      "name": "owner",
      "outputs": [
        {
          "internalType": "address",
          "name": "",
          "type": "address"
        }
      ],
      "stateMutability": "view",
      "type": "function"
    },
    {
      "inputs": [],
      "name": "priceFeed",
      "outputs": [
        {
          "internalType": "contract AggregatorV3Interface",
          "name": "",
          "type": "address"
        }
      ],
      "stateMutability": "view",
      "type": "function"
    },
    {
      "inputs": [],
      "name": "renounceOwnership",
      "outputs": [],
      "stateMutability": "nonpayable",
      "type": "function"
    },
    {
      "inputs": [
        {
          "internalType": "uint256",
          "name": "_newGas",
          "type": "uint256"
        }
      ],
      "name": "setFee",
      "outputs": [],
      "stateMutability": "nonpayable",
      "type": "function"
    },
    {
      "inputs": [
        {
          "internalType": "address",
          "name": "_newToken",
          "type": "address"
        }
      ],
      "name": "setFeeToken",
      "outputs": [],
      "stateMutability": "nonpayable",
      "type": "function"
    },
    {
      "inputs": [
        {
          "internalType": "address",
          "name": "newOwner",
          "type": "address"
        }
      ],
      "name": "transferOwnership",
      "outputs": [],
      "stateMutability": "nonpayable",
      "type": "function"
    },
    {
      "inputs": [
        {
          "components": [
            {
              "internalType": "address",
              "name": "from",
              "type": "address"
            },
            {
              "internalType": "address",
              "name": "to",
              "type": "address"
            },
            {
              "internalType": "uint256",
              "name": "value",
              "type": "uint256"
            },
            {
              "internalType": "uint256",
              "name": "gas",
              "type": "uint256"
            },
            {
              "internalType": "uint256",
              "name": "nonce",
              "type": "uint256"
            },
            {
              "internalType": "bytes",
              "name": "data",
              "type": "bytes"
            }
          ],
          "internalType": "struct GaslessRelayer.ForwardRequest",
          "name": "req",
          "type": "tuple"
        },
        {
          "internalType": "bytes",
          "name": "signature",
          "type": "bytes"
        }
      ],
      "name": "verify",
      "outputs": [
        {
          "internalType": "bool",
          "name": "",
          "type": "bool"
        }
      ],
      "stateMutability": "view",
      "type": "function"
    },
    {
      "stateMutability": "payable",
      "type": "receive"
    }
  ],
  "bytecode": "0x6101606040523480156200001257600080fd5b506040516200318238038062003182833981810160405281019062000038919062000517565b6040518060400160405280600e81526020017f4761736c65737352656c617965720000000000000000000000000000000000008152506040518060400160405280600181526020017f3100000000000000000000000000000000000000000000000000000000000000815250620000ba6000836200027860201b90919060201c565b6101208181525050620000d86001826200027860201b90919060201c565b6101408181525050818051906020012060e08181525050808051906020012061010081815250504660a0818152505062000117620002d060201b60201c565b608081815250503073ffffffffffffffffffffffffffffffffffffffff1660c08173ffffffffffffffffffffffffffffffffffffffff1681525050505062000174620001686200032d60201b60201c565b6200033560201b60201c565b82600460006101000a81548173ffffffffffffffffffffffffffffffffffffffff021916908373ffffffffffffffffffffffffffffffffffffffff1602179055508160058190555080600360006101000a81548173ffffffffffffffffffffffffffffffffffffffff021916908373ffffffffffffffffffffffffffffffffffffffff1602179055507fa0ca04e9956a42929fa24e6299bb6622c8703ac575c61b33e01fb170100ee6dc836040516200022e919062000584565b60405180910390a17f9852a7b7f7eac6963e003aec15e5884d12962aeac7c818c9de0d4cf02770d49182604051620002679190620005b2565b60405180910390a150505062000af3565b60006020835110156200029e576200029683620003fb60201b60201c565b9050620002ca565b82620002b0836200046860201b60201c565b6000019081620002c191906200083f565b5060ff60001b90505b92915050565b60007f8b73c3c69bb8fe3d512ecc4cf759cc79239f7b179b0ffacaa9a75d522b39400f60e0516101005146306040516020016200031295949392919062000941565b60405160208183030381529060405280519060200120905090565b600033905090565b6000600260009054906101000a900473ffffffffffffffffffffffffffffffffffffffff16905081600260006101000a81548173ffffffffffffffffffffffffffffffffffffffff021916908373ffffffffffffffffffffffffffffffffffffffff1602179055508173ffffffffffffffffffffffffffffffffffffffff168173ffffffffffffffffffffffffffffffffffffffff167f8be0079c531659141344cd1fd0a4f28419497f9722a3daafe3b4186f6b6457e060405160405180910390a35050565b600080829050601f815111156200044b57826040517f305a27a900000000000000000000000000000000000000000000000000000000815260040162000442919062000a2d565b60405180910390fd5b805181620004599062000a83565b60001c1760001b915050919050565b6000819050919050565b600080fd5b600073ffffffffffffffffffffffffffffffffffffffff82169050919050565b6000620004a48262000477565b9050919050565b620004b68162000497565b8114620004c257600080fd5b50565b600081519050620004d681620004ab565b92915050565b6000819050919050565b620004f181620004dc565b8114620004fd57600080fd5b50565b6000815190506200051181620004e6565b92915050565b60008060006060848603121562000533576200053262000472565b5b60006200054386828701620004c5565b9350506020620005568682870162000500565b92505060406200056986828701620004c5565b9150509250925092565b6200057e8162000497565b82525050565b60006020820190506200059b600083018462000573565b92915050565b620005ac81620004dc565b82525050565b6000602082019050620005c96000830184620005a1565b92915050565b600081519050919050565b7f4e487b7100000000000000000000000000000000000000000000000000000000600052604160045260246000fd5b7f4e487b7100000000000000000000000000000000000000000000000000000000600052602260045260246000fd5b600060028204905060018216806200065157607f821691505b60208210810362000667576200066662000609565b5b50919050565b60008190508160005260206000209050919050565b60006020601f8301049050919050565b600082821b905092915050565b600060088302620006d17fffffffffffffffffffffffffffffffffffffffffffffffffffffffffffffffff8262000692565b620006dd868362000692565b95508019841693508086168417925050509392505050565b6000819050919050565b6000620007206200071a6200071484620004dc565b620006f5565b620004dc565b9050919050565b6000819050919050565b6200073c83620006ff565b620007546200074b8262000727565b8484546200069f565b825550505050565b600090565b6200076b6200075c565b6200077881848462000731565b505050565b5b81811015620007a0576200079460008262000761565b6001810190506200077e565b5050565b601f821115620007ef57620007b9816200066d565b620007c48462000682565b81016020851015620007d4578190505b620007ec620007e38562000682565b8301826200077d565b50505b505050565b600082821c905092915050565b60006200081460001984600802620007f4565b1980831691505092915050565b60006200082f838362000801565b9150826002028217905092915050565b6200084a82620005cf565b67ffffffffffffffff811115620008665762000865620005da565b5b62000872825462000638565b6200087f828285620007a4565b600060209050601f831160018114620008b75760008415620008a2578287015190505b620008ae858262000821565b8655506200091e565b601f198416620008c7866200066d565b60005b82811015620008f157848901518255600182019150602085019450602081019050620008ca565b868310156200091157848901516200090d601f89168262000801565b8355505b6001600288020188555050505b505050505050565b6000819050919050565b6200093b8162000926565b82525050565b600060a08201905062000958600083018862000930565b62000967602083018762000930565b62000976604083018662000930565b620009856060830185620005a1565b62000994608083018462000573565b9695505050505050565b600082825260208201905092915050565b60005b83811015620009cf578082015181840152602081019050620009b2565b60008484015250505050565b6000601f19601f8301169050919050565b6000620009f982620005cf565b62000a0581856200099e565b935062000a17818560208601620009af565b62000a2281620009db565b840191505092915050565b6000602082019050818103600083015262000a498184620009ec565b905092915050565b600081519050919050565b6000819050602082019050919050565b600062000a7a825162000926565b80915050919050565b600062000a908262000a51565b8262000a9c8462000a5c565b905062000aa98162000a6c565b9250602082101562000aec5762000ae77fffffffffffffffffffffffffffffffffffffffffffffffffffffffffffffffff8360200360080262000692565b831692505b5050919050565b60805160a05160c05160e05161010051610120516101405161263462000b4e6000396000610a8e01526000610a5a015260006114ff015260006114de015260006111be015260006112140152600061123d01526126346000f3fe6080604052600436106100ec5760003560e01c80637ecebe001161008a578063bf5d3bdb11610059578063bf5d3bdb146102f6578063d4e895cb14610333578063f0f693711461035e578063f2fde38b1461039b576100f3565b80637ecebe001461023257806383fea4ef1461026f57806384b0196e1461029a5780638da5cb5b146102cb576100f3565b8063647846a5116100c6578063647846a51461019c57806369fe0e2d146101c7578063715018a6146101f0578063741bef1a14610207576100f3565b806315cce224146100f85780632d0335ab1461012157806347153f821461015e576100f3565b366100f357005b600080fd5b34801561010457600080fd5b5061011f600480360381019061011a9190611699565b6103c4565b005b34801561012d57600080fd5b5061014860048036038101906101439190611699565b610447565b60405161015591906116df565b60405180910390f35b34801561016a57600080fd5b5061018560048036038101906101809190611783565b610490565b6040516101939291906118aa565b60405180910390f35b3480156101a857600080fd5b506101b1610980565b6040516101be9190611939565b60405180910390f35b3480156101d357600080fd5b506101ee60048036038101906101e99190611980565b6109a6565b005b3480156101fc57600080fd5b506102056109ef565b005b34801561021357600080fd5b5061021c610a03565b60405161022991906119ce565b60405180910390f35b34801561023e57600080fd5b5061025960048036038101906102549190611699565b610a29565b60405161026691906116df565b60405180910390f35b34801561027b57600080fd5b50610284610a41565b60405161029191906116df565b60405180910390f35b3480156102a657600080fd5b506102af610a47565b6040516102c29796959493929190611b5f565b60405180910390f35b3480156102d757600080fd5b506102e0610b49565b6040516102ed9190611be3565b60405180910390f35b34801561030257600080fd5b5061031d60048036038101906103189190611783565b610b73565b60405161032a9190611bfe565b60405180910390f35b34801561033f57600080fd5b50610348610d29565b60405161035591906116df565b60405180910390f35b34801561036a57600080fd5b5061038560048036038101906103809190611980565b610e19565b60405161039291906116df565b60405180910390f35b3480156103a757600080fd5b506103c260048036038101906103bd9190611699565b610e86565b005b6103cc610f09565b80600460006101000a81548173ffffffffffffffffffffffffffffffffffffffff021916908373ffffffffffffffffffffffffffffffffffffffff1602179055507fa0ca04e9956a42929fa24e6299bb6622c8703ac575c61b33e01fb170100ee6dc8160405161043c9190611be3565b60405180910390a150565b6000600660008373ffffffffffffffffffffffffffffffffffffffff1673ffffffffffffffffffffffffffffffffffffffff168152602001908152602001600020549050919050565b6000606061049f858585610b73565b6104de576040517f08c379a00000000000000000000000000000000000000000000000000000000081526004016104d590611c65565b60405180910390fd5b6000600460009054906101000a900473ffffffffffffffffffffffffffffffffffffffff1673ffffffffffffffffffffffffffffffffffffffff166370a082318760000160208101906105319190611699565b6040518263ffffffff1660e01b815260040161054d9190611be3565b602060405180830381865afa15801561056a573d6000803e3d6000fd5b505050506040513d601f19601f8201168201806040525081019061058e9190611c9a565b90506000600460009054906101000a900473ffffffffffffffffffffffffffffffffffffffff1673ffffffffffffffffffffffffffffffffffffffff1663dd62ed3e8860000160208101906105e39190611699565b306040518363ffffffff1660e01b8152600401610601929190611cc7565b602060405180830381865afa15801561061e573d6000803e3d6000fd5b505050506040513d601f19601f820116820180604052508101906106429190611c9a565b9050600060055488606001356106589190611d1f565b905060003a90506000818361066d9190611d53565b90506000610679610d29565b90506000670de0b6b3a764000082846106929190611d53565b61069c9190611dc4565b90507f64b5c06dd4c8753fb3daa4a219bad5de5eb04d76b76667ff967b94d22a2805718c60000160208101906106d29190611699565b33838a8a6040516106e7959493929190611df5565b60405180910390a1600460009054906101000a900473ffffffffffffffffffffffffffffffffffffffff1673ffffffffffffffffffffffffffffffffffffffff166323b872dd8d60000160208101906107409190611699565b33846040518463ffffffff1660e01b815260040161076093929190611e48565b6020604051808303816000875af115801561077f573d6000803e3d6000fd5b505050506040513d601f19601f820116820180604052508101906107a39190611eab565b6107e2576040517f08c379a00000000000000000000000000000000000000000000000000000000081526004016107d990611f24565b60405180910390fd5b600660008d60000160208101906107f99190611699565b73ffffffffffffffffffffffffffffffffffffffff1673ffffffffffffffffffffffffffffffffffffffff168152602001908152602001600020600081548092919061084490611f44565b91905055508b602001602081019061085c9190611699565b73ffffffffffffffffffffffffffffffffffffffff168c606001358d604001358e8060a0019061088c9190611f9b565b60405161089a92919061203d565b600060405180830381858888f193505050503d80600081146108d8576040519150601f19603f3d011682016040523d82523d6000602084013e6108dd565b606091505b50809950819a5050508b60200160208101906108f99190611699565b73ffffffffffffffffffffffffffffffffffffffff168c60000160208101906109229190611699565b73ffffffffffffffffffffffffffffffffffffffff167ff58c4d9d66b0fb7f8f24128aedb552f542f6684e19cf741a6e776bc591b4e3e28b8b6040516109699291906118aa565b60405180910390a350505050505050935093915050565b600460009054906101000a900473ffffffffffffffffffffffffffffffffffffffff1681565b6109ae610f09565b806005819055507f9852a7b7f7eac6963e003aec15e5884d12962aeac7c818c9de0d4cf02770d491816040516109e491906116df565b60405180910390a150565b6109f7610f09565b610a016000610f87565b565b600360009054906101000a900473ffffffffffffffffffffffffffffffffffffffff1681565b60066020528060005260406000206000915090505481565b60055481565b600060608060008060006060610a8760007f000000000000000000000000000000000000000000000000000000000000000061104d90919063ffffffff16565b610abb60017f000000000000000000000000000000000000000000000000000000000000000061104d90919063ffffffff16565b46306000801b600067ffffffffffffffff811115610adc57610adb612056565b5b604051908082528060200260200182016040528015610b0a5781602001602082028036833780820191505090505b507f0f00000000000000000000000000000000000000000000000000000000000000959493929190965096509650965096509650965090919293949596565b6000600260009054906101000a900473ffffffffffffffffffffffffffffffffffffffff16905090565b600080610c7c84848080601f016020809104026020016040519081016040528093929190818152602001838380828437600081840152601f19601f82011690508083019250505050505050610c6e7fdd8f4b70b0f4393e889bd39128a30628a78b61816a9eb8199759e7a349657e48886000016020810190610bf59190611699565b896020016020810190610c089190611699565b8a604001358b606001358c608001358d8060a00190610c279190611f9b565b604051610c3592919061203d565b6040518091039020604051602001610c539796959493929190612085565b604051602081830303815290604052805190602001206110fd565b61111790919063ffffffff16565b9050846080013560066000876000016020810190610c9a9190611699565b73ffffffffffffffffffffffffffffffffffffffff1673ffffffffffffffffffffffffffffffffffffffff16815260200190815260200160002054148015610d1f5750846000016020810190610cf09190611699565b73ffffffffffffffffffffffffffffffffffffffff168173ffffffffffffffffffffffffffffffffffffffff16145b9150509392505050565b600080600360009054906101000a900473ffffffffffffffffffffffffffffffffffffffff1673ffffffffffffffffffffffffffffffffffffffff1663feaf968c6040518163ffffffff1660e01b815260040160a060405180830381865afa158015610d99573d6000803e3d6000fd5b505050506040513d601f19601f82011682018060405250810190610dbd919061216c565b50505091505060008113610e06576040517f08c379a0000000000000000000000000000000000000000000000000000000008152600401610dfd90612233565b60405180910390fd5b606481610e139190611dc4565b91505090565b60008060055483610e2a9190611d1f565b90506000633b9aca0048610e3e9190611d1f565b905060008183610e4e9190611d53565b90506000610e5a610d29565b9050670de0b6b3a76400008183610e719190611d53565b610e7b9190611dc4565b945050505050919050565b610e8e610f09565b600073ffffffffffffffffffffffffffffffffffffffff168173ffffffffffffffffffffffffffffffffffffffff1603610efd576040517f08c379a0000000000000000000000000000000000000000000000000000000008152600401610ef4906122c5565b60405180910390fd5b610f0681610f87565b50565b610f1161113e565b73ffffffffffffffffffffffffffffffffffffffff16610f2f610b49565b73ffffffffffffffffffffffffffffffffffffffff1614610f85576040517f08c379a0000000000000000000000000000000000000000000000000000000008152600401610f7c90612331565b60405180910390fd5b565b6000600260009054906101000a900473ffffffffffffffffffffffffffffffffffffffff16905081600260006101000a81548173ffffffffffffffffffffffffffffffffffffffff021916908373ffffffffffffffffffffffffffffffffffffffff1602179055508173ffffffffffffffffffffffffffffffffffffffff168173ffffffffffffffffffffffffffffffffffffffff167f8be0079c531659141344cd1fd0a4f28419497f9722a3daafe3b4186f6b6457e060405160405180910390a35050565b606060ff60001b831461106a5761106383611146565b90506110f7565b81805461107690612380565b80601f01602080910402602001604051908101604052809291908181526020018280546110a290612380565b80156110ef5780601f106110c4576101008083540402835291602001916110ef565b820191906000526020600020905b8154815290600101906020018083116110d257829003601f168201915b505050505090505b92915050565b600061111061110a6111ba565b83611271565b9050919050565b600080600061112685856112b2565b9150915061113381611303565b819250505092915050565b600033905090565b6060600061115383611469565b90506000602067ffffffffffffffff81111561117257611171612056565b5b6040519080825280601f01601f1916602001820160405280156111a45781602001600182028036833780820191505090505b5090508181528360208201528092505050919050565b60007f000000000000000000000000000000000000000000000000000000000000000073ffffffffffffffffffffffffffffffffffffffff163073ffffffffffffffffffffffffffffffffffffffff1614801561123657507f000000000000000000000000000000000000000000000000000000000000000046145b15611263577f0000000000000000000000000000000000000000000000000000000000000000905061126e565b61126b6114b9565b90505b90565b60006040517f190100000000000000000000000000000000000000000000000000000000000081528360028201528260228201526042812091505092915050565b60008060418351036112f35760008060006020860151925060408601519150606086015160001a90506112e78782858561154f565b945094505050506112fc565b60006002915091505b9250929050565b60006004811115611317576113166123b1565b5b81600481111561132a576113296123b1565b5b03156114665760016004811115611344576113436123b1565b5b816004811115611357576113566123b1565b5b03611397576040517f08c379a000000000000000000000000000000000000000000000000000000000815260040161138e9061242c565b60405180910390fd5b600260048111156113ab576113aa6123b1565b5b8160048111156113be576113bd6123b1565b5b036113fe576040517f08c379a00000000000000000000000000000000000000000000000000000000081526004016113f590612498565b60405180910390fd5b60036004811115611412576114116123b1565b5b816004811115611425576114246123b1565b5b03611465576040517f08c379a000000000000000000000000000000000000000000000000000000000815260040161145c9061252a565b60405180910390fd5b5b50565b60008060ff8360001c169050601f8111156114b0576040517fb3512b0c00000000000000000000000000000000000000000000000000000000815260040160405180910390fd5b80915050919050565b60007f8b73c3c69bb8fe3d512ecc4cf759cc79239f7b179b0ffacaa9a75d522b39400f7f00000000000000000000000000000000000000000000000000000000000000007f0000000000000000000000000000000000000000000000000000000000000000463060405160200161153495949392919061254a565b60405160208183030381529060405280519060200120905090565b6000807f7fffffffffffffffffffffffffffffff5d576e7357a4501ddfe92f46681b20a08360001c111561158a576000600391509150611628565b6000600187878787604051600081526020016040526040516115af94939291906125b9565b6020604051602081039080840390855afa1580156115d1573d6000803e3d6000fd5b505050602060405103519050600073ffffffffffffffffffffffffffffffffffffffff168173ffffffffffffffffffffffffffffffffffffffff160361161f57600060019250925050611628565b80600092509250505b94509492505050565b600080fd5b600080fd5b600073ffffffffffffffffffffffffffffffffffffffff82169050919050565b60006116668261163b565b9050919050565b6116768161165b565b811461168157600080fd5b50565b6000813590506116938161166d565b92915050565b6000602082840312156116af576116ae611631565b5b60006116bd84828501611684565b91505092915050565b6000819050919050565b6116d9816116c6565b82525050565b60006020820190506116f460008301846116d0565b92915050565b600080fd5b600060c08284031215611715576117146116fa565b5b81905092915050565b600080fd5b600080fd5b600080fd5b60008083601f8401126117435761174261171e565b5b8235905067ffffffffffffffff8111156117605761175f611723565b5b60208301915083600182028301111561177c5761177b611728565b5b9250929050565b60008060006040848603121561179c5761179b611631565b5b600084013567ffffffffffffffff8111156117ba576117b9611636565b5b6117c6868287016116ff565b935050602084013567ffffffffffffffff8111156117e7576117e6611636565b5b6117f38682870161172d565b92509250509250925092565b60008115159050919050565b611814816117ff565b82525050565b600081519050919050565b600082825260208201905092915050565b60005b83811015611854578082015181840152602081019050611839565b60008484015250505050565b6000601f19601f8301169050919050565b600061187c8261181a565b6118868185611825565b9350611896818560208601611836565b61189f81611860565b840191505092915050565b60006040820190506118bf600083018561180b565b81810360208301526118d18184611871565b90509392505050565b6000819050919050565b60006118ff6118fa6118f58461163b565b6118da565b61163b565b9050919050565b6000611911826118e4565b9050919050565b600061192382611906565b9050919050565b61193381611918565b82525050565b600060208201905061194e600083018461192a565b92915050565b61195d816116c6565b811461196857600080fd5b50565b60008135905061197a81611954565b92915050565b60006020828403121561199657611995611631565b5b60006119a48482850161196b565b91505092915050565b60006119b882611906565b9050919050565b6119c8816119ad565b82525050565b60006020820190506119e360008301846119bf565b92915050565b60007fff0000000000000000000000000000000000000000000000000000000000000082169050919050565b611a1e816119e9565b82525050565b600081519050919050565b600082825260208201905092915050565b6000611a4b82611a24565b611a558185611a2f565b9350611a65818560208601611836565b611a6e81611860565b840191505092915050565b611a828161165b565b82525050565b6000819050919050565b611a9b81611a88565b82525050565b600081519050919050565b600082825260208201905092915050565b6000819050602082019050919050565b611ad6816116c6565b82525050565b6000611ae88383611acd565b60208301905092915050565b6000602082019050919050565b6000611b0c82611aa1565b611b168185611aac565b9350611b2183611abd565b8060005b83811015611b52578151611b398882611adc565b9750611b4483611af4565b925050600181019050611b25565b5085935050505092915050565b600060e082019050611b74600083018a611a15565b8181036020830152611b868189611a40565b90508181036040830152611b9a8188611a40565b9050611ba960608301876116d0565b611bb66080830186611a79565b611bc360a0830185611a92565b81810360c0830152611bd58184611b01565b905098975050505050505050565b6000602082019050611bf86000830184611a79565b92915050565b6000602082019050611c13600083018461180b565b92915050565b7f496e76616c6964207369676e6174757265000000000000000000000000000000600082015250565b6000611c4f601183611a2f565b9150611c5a82611c19565b602082019050919050565b60006020820190508181036000830152611c7e81611c42565b9050919050565b600081519050611c9481611954565b92915050565b600060208284031215611cb057611caf611631565b5b6000611cbe84828501611c85565b91505092915050565b6000604082019050611cdc6000830185611a79565b611ce96020830184611a79565b9392505050565b7f4e487b7100000000000000000000000000000000000000000000000000000000600052601160045260246000fd5b6000611d2a826116c6565b9150611d35836116c6565b9250828201905080821115611d4d57611d4c611cf0565b5b92915050565b6000611d5e826116c6565b9150611d69836116c6565b9250828202611d77816116c6565b91508282048414831517611d8e57611d8d611cf0565b5b5092915050565b7f4e487b7100000000000000000000000000000000000000000000000000000000600052601260045260246000fd5b6000611dcf826116c6565b9150611dda836116c6565b925082611dea57611de9611d95565b5b828204905092915050565b600060a082019050611e0a6000830188611a79565b611e176020830187611a79565b611e2460408301866116d0565b611e3160608301856116d0565b611e3e60808301846116d0565b9695505050505050565b6000606082019050611e5d6000830186611a79565b611e6a6020830185611a79565b611e7760408301846116d0565b949350505050565b611e88816117ff565b8114611e9357600080fd5b50565b600081519050611ea581611e7f565b92915050565b600060208284031215611ec157611ec0611631565b5b6000611ecf84828501611e96565b91505092915050565b7f466565207472616e73666572206661696c656400000000000000000000000000600082015250565b6000611f0e601383611a2f565b9150611f1982611ed8565b602082019050919050565b60006020820190508181036000830152611f3d81611f01565b9050919050565b6000611f4f826116c6565b91507fffffffffffffffffffffffffffffffffffffffffffffffffffffffffffffffff8203611f8157611f80611cf0565b5b600182019050919050565b600080fd5b600080fd5b600080fd5b60008083356001602003843603038112611fb857611fb7611f8c565b5b80840192508235915067ffffffffffffffff821115611fda57611fd9611f91565b5b602083019250600182023603831315611ff657611ff5611f96565b5b509250929050565b600081905092915050565b82818337600083830152505050565b60006120248385611ffe565b9350612031838584612009565b82840190509392505050565b600061204a828486612018565b91508190509392505050565b7f4e487b7100000000000000000000000000000000000000000000000000000000600052604160045260246000fd5b600060e08201905061209a600083018a611a92565b6120a76020830189611a79565b6120b46040830188611a79565b6120c160608301876116d0565b6120ce60808301866116d0565b6120db60a08301856116d0565b6120e860c0830184611a92565b98975050505050505050565b600069ffffffffffffffffffff82169050919050565b612113816120f4565b811461211e57600080fd5b50565b6000815190506121308161210a565b92915050565b6000819050919050565b61214981612136565b811461215457600080fd5b50565b60008151905061216681612140565b92915050565b600080600080600060a0868803121561218857612187611631565b5b600061219688828901612121565b95505060206121a788828901612157565b94505060406121b888828901611c85565b93505060606121c988828901611c85565b92505060806121da88828901612121565b9150509295509295909350565b7f496e76616c696420707269636520666565640000000000000000000000000000600082015250565b600061221d601283611a2f565b9150612228826121e7565b602082019050919050565b6000602082019050818103600083015261224c81612210565b9050919050565b7f4f776e61626c653a206e6577206f776e657220697320746865207a65726f206160008201527f6464726573730000000000000000000000000000000000000000000000000000602082015250565b60006122af602683611a2f565b91506122ba82612253565b604082019050919050565b600060208201905081810360008301526122de816122a2565b9050919050565b7f4f776e61626c653a2063616c6c6572206973206e6f7420746865206f776e6572600082015250565b600061231b602083611a2f565b9150612326826122e5565b602082019050919050565b6000602082019050818103600083015261234a8161230e565b9050919050565b7f4e487b7100000000000000000000000000000000000000000000000000000000600052602260045260246000fd5b6000600282049050600182168061239857607f821691505b6020821081036123ab576123aa612351565b5b50919050565b7f4e487b7100000000000000000000000000000000000000000000000000000000600052602160045260246000fd5b7f45434453413a20696e76616c6964207369676e61747572650000000000000000600082015250565b6000612416601883611a2f565b9150612421826123e0565b602082019050919050565b6000602082019050818103600083015261244581612409565b9050919050565b7f45434453413a20696e76616c6964207369676e6174757265206c656e67746800600082015250565b6000612482601f83611a2f565b915061248d8261244c565b602082019050919050565b600060208201905081810360008301526124b181612475565b9050919050565b7f45434453413a20696e76616c6964207369676e6174757265202773272076616c60008201527f7565000000000000000000000000000000000000000000000000000000000000602082015250565b6000612514602283611a2f565b915061251f826124b8565b604082019050919050565b6000602082019050818103600083015261254381612507565b9050919050565b600060a08201905061255f6000830188611a92565b61256c6020830187611a92565b6125796040830186611a92565b61258660608301856116d0565b6125936080830184611a79565b9695505050505050565b600060ff82169050919050565b6125b38161259d565b82525050565b60006080820190506125ce6000830187611a92565b6125db60208301866125aa565b6125e86040830185611a92565b6125f56060830184611a92565b9594505050505056fea26469706673582212204e1044ad1da584cd2666ca47910d3537e9da7c7e17da3583288daa6d832f832264736f6c63430008140033",
  "linkReferences": {},
  "deployedLinkReferences": {}
}