{
  "_format": "hh-sol-artifact-1",
  "contractName": "GaslessRelayer",
  "sourceName": "contracts/gaslessRelayer.sol",
  "abi": [
    {
      "inputs": [
        {
          "internalType": "address",
          "name": "_feeToken",
          "type": "address"
        },
        {
          "internalType": "uint256",
          "name": "_initialFee",
          "type": "uint256"
        }
      ],
      "stateMutability": "nonpayable",
      "type": "constructor"
    },
    {
      "inputs": [],
      "name": "InvalidShortString",
      "type": "error"
    },
    {
      "inputs": [
        {
          "internalType": "string",
          "name": "str",
          "type": "string"
        }
      ],
      "name": "StringTooLong",
      "type": "error"
    },
    {
      "anonymous": false,
      "inputs": [],
      "name": "EIP712DomainChanged",
      "type": "event"
    },
    {
      "anonymous": false,
      "inputs": [
        {
          "indexed": false,
          "internalType": "address",
          "name": "newToken",
          "type": "address"
        }
      ],
      "name": "FeeTokenUpdated",
      "type": "event"
    },
    {
      "anonymous": false,
      "inputs": [
        {
          "indexed": false,
          "internalType": "uint256",
          "name": "newFee",
          "type": "uint256"
        }
      ],
      "name": "FeeUpdated",
      "type": "event"
    },
    {
      "anonymous": false,
      "inputs": [
        {
          "indexed": true,
          "internalType": "address",
          "name": "previousOwner",
          "type": "address"
        },
        {
          "indexed": true,
          "internalType": "address",
          "name": "newOwner",
          "type": "address"
        }
      ],
      "name": "OwnershipTransferred",
      "type": "event"
    },
    {
      "anonymous": false,
      "inputs": [
        {
          "indexed": true,
          "internalType": "address",
          "name": "from",
          "type": "address"
        },
        {
          "indexed": true,
          "internalType": "address",
          "name": "to",
          "type": "address"
        },
        {
          "indexed": false,
          "internalType": "bool",
          "name": "success",
          "type": "bool"
        },
        {
          "indexed": false,
          "internalType": "bytes",
          "name": "returnData",
          "type": "bytes"
        }
      ],
      "name": "TransactionRelayed",
      "type": "event"
    },
    {
      "inputs": [],
      "name": "eip712Domain",
      "outputs": [
        {
          "internalType": "bytes1",
          "name": "fields",
          "type": "bytes1"
        },
        {
          "internalType": "string",
          "name": "name",
          "type": "string"
        },
        {
          "internalType": "string",
          "name": "version",
          "type": "string"
        },
        {
          "internalType": "uint256",
          "name": "chainId",
          "type": "uint256"
        },
        {
          "internalType": "address",
          "name": "verifyingContract",
          "type": "address"
        },
        {
          "internalType": "bytes32",
          "name": "salt",
          "type": "bytes32"
        },
        {
          "internalType": "uint256[]",
          "name": "extensions",
          "type": "uint256[]"
        }
      ],
      "stateMutability": "view",
      "type": "function"
    },
    {
      "inputs": [
        {
          "components": [
            {
              "internalType": "address",
              "name": "from",
              "type": "address"
            },
            {
              "internalType": "address",
              "name": "to",
              "type": "address"
            },
            {
              "internalType": "uint256",
              "name": "value",
              "type": "uint256"
            },
            {
              "internalType": "uint256",
              "name": "gas",
              "type": "uint256"
            },
            {
              "internalType": "uint256",
              "name": "nonce",
              "type": "uint256"
            },
            {
              "internalType": "bytes",
              "name": "data",
              "type": "bytes"
            }
          ],
          "internalType": "struct GaslessRelayer.ForwardRequest",
          "name": "req",
          "type": "tuple"
        },
        {
          "internalType": "bytes",
          "name": "signature",
          "type": "bytes"
        }
      ],
      "name": "execute",
      "outputs": [
        {
          "internalType": "bool",
          "name": "success",
          "type": "bool"
        },
        {
          "internalType": "bytes",
          "name": "ret",
          "type": "bytes"
        }
      ],
      "stateMutability": "nonpayable",
      "type": "function"
    },
    {
      "inputs": [],
      "name": "feeToken",
      "outputs": [
        {
          "internalType": "contract IERC20",
          "name": "",
          "type": "address"
        }
      ],
      "stateMutability": "view",
      "type": "function"
    },
    {
      "inputs": [
        {
          "internalType": "address",
          "name": "from",
          "type": "address"
        }
      ],
      "name": "getNonce",
      "outputs": [
        {
          "internalType": "uint256",
          "name": "",
          "type": "uint256"
        }
      ],
      "stateMutability": "view",
      "type": "function"
    },
    {
      "inputs": [
        {
          "internalType": "address",
          "name": "",
          "type": "address"
        }
      ],
      "name": "nonces",
      "outputs": [
        {
          "internalType": "uint256",
          "name": "",
          "type": "uint256"
        }
      ],
      "stateMutability": "view",
      "type": "function"
    },
    {
      "inputs": [],
      "name": "owner",
      "outputs": [
        {
          "internalType": "address",
          "name": "",
          "type": "address"
        }
      ],
      "stateMutability": "view",
      "type": "function"
    },
    {
      "inputs": [],
      "name": "relayerFee",
      "outputs": [
        {
          "internalType": "uint256",
          "name": "",
          "type": "uint256"
        }
      ],
      "stateMutability": "view",
      "type": "function"
    },
    {
      "inputs": [],
      "name": "renounceOwnership",
      "outputs": [],
      "stateMutability": "nonpayable",
      "type": "function"
    },
    {
      "inputs": [
        {
          "internalType": "uint256",
          "name": "_newFee",
          "type": "uint256"
        }
      ],
      "name": "setFee",
      "outputs": [],
      "stateMutability": "nonpayable",
      "type": "function"
    },
    {
      "inputs": [
        {
          "internalType": "address",
          "name": "_newToken",
          "type": "address"
        }
      ],
      "name": "setFeeToken",
      "outputs": [],
      "stateMutability": "nonpayable",
      "type": "function"
    },
    {
      "inputs": [
        {
          "internalType": "address",
          "name": "newOwner",
          "type": "address"
        }
      ],
      "name": "transferOwnership",
      "outputs": [],
      "stateMutability": "nonpayable",
      "type": "function"
    },
    {
      "inputs": [
        {
          "components": [
            {
              "internalType": "address",
              "name": "from",
              "type": "address"
            },
            {
              "internalType": "address",
              "name": "to",
              "type": "address"
            },
            {
              "internalType": "uint256",
              "name": "value",
              "type": "uint256"
            },
            {
              "internalType": "uint256",
              "name": "gas",
              "type": "uint256"
            },
            {
              "internalType": "uint256",
              "name": "nonce",
              "type": "uint256"
            },
            {
              "internalType": "bytes",
              "name": "data",
              "type": "bytes"
            }
          ],
          "internalType": "struct GaslessRelayer.ForwardRequest",
          "name": "req",
          "type": "tuple"
        },
        {
          "internalType": "bytes",
          "name": "signature",
          "type": "bytes"
        }
      ],
      "name": "verify",
      "outputs": [
        {
          "internalType": "bool",
          "name": "",
          "type": "bool"
        }
      ],
      "stateMutability": "view",
      "type": "function"
    },
    {
      "stateMutability": "payable",
      "type": "receive"
    }
  ],
  "bytecode": "0x6101606040523480156200001257600080fd5b5060405162002b9638038062002b968339818101604052810190620000389190620004d5565b6040518060400160405280600e81526020017f4761736c65737352656c617965720000000000000000000000000000000000008152506040518060400160405280600181526020017f3100000000000000000000000000000000000000000000000000000000000000815250620000ba6000836200023660201b90919060201c565b6101208181525050620000d86001826200023660201b90919060201c565b6101408181525050818051906020012060e08181525050808051906020012061010081815250504660a08181525050620001176200028e60201b60201c565b608081815250503073ffffffffffffffffffffffffffffffffffffffff1660c08173ffffffffffffffffffffffffffffffffffffffff168152505050506200017462000168620002eb60201b60201c565b620002f360201b60201c565b81600360006101000a81548173ffffffffffffffffffffffffffffffffffffffff021916908373ffffffffffffffffffffffffffffffffffffffff160217905550806004819055507fa0ca04e9956a42929fa24e6299bb6622c8703ac575c61b33e01fb170100ee6dc82604051620001ed91906200052d565b60405180910390a17f8c4d35e54a3f2ef1134138fd8ea3daee6a3c89e10d2665996babdf70261e2c76816040516200022691906200055b565b60405180910390a1505062000a9c565b60006020835110156200025c576200025483620003b960201b60201c565b905062000288565b826200026e836200042660201b60201c565b60000190816200027f9190620007e8565b5060ff60001b90505b92915050565b60007f8b73c3c69bb8fe3d512ecc4cf759cc79239f7b179b0ffacaa9a75d522b39400f60e051610100514630604051602001620002d0959493929190620008ea565b60405160208183030381529060405280519060200120905090565b600033905090565b6000600260009054906101000a900473ffffffffffffffffffffffffffffffffffffffff16905081600260006101000a81548173ffffffffffffffffffffffffffffffffffffffff021916908373ffffffffffffffffffffffffffffffffffffffff1602179055508173ffffffffffffffffffffffffffffffffffffffff168173ffffffffffffffffffffffffffffffffffffffff167f8be0079c531659141344cd1fd0a4f28419497f9722a3daafe3b4186f6b6457e060405160405180910390a35050565b600080829050601f815111156200040957826040517f305a27a9000000000000000000000000000000000000000000000000000000008152600401620004009190620009d6565b60405180910390fd5b805181620004179062000a2c565b60001c1760001b915050919050565b6000819050919050565b600080fd5b600073ffffffffffffffffffffffffffffffffffffffff82169050919050565b6000620004628262000435565b9050919050565b620004748162000455565b81146200048057600080fd5b50565b600081519050620004948162000469565b92915050565b6000819050919050565b620004af816200049a565b8114620004bb57600080fd5b50565b600081519050620004cf81620004a4565b92915050565b60008060408385031215620004ef57620004ee62000430565b5b6000620004ff8582860162000483565b92505060206200051285828601620004be565b9150509250929050565b620005278162000455565b82525050565b60006020820190506200054460008301846200051c565b92915050565b62000555816200049a565b82525050565b60006020820190506200057260008301846200054a565b92915050565b600081519050919050565b7f4e487b7100000000000000000000000000000000000000000000000000000000600052604160045260246000fd5b7f4e487b7100000000000000000000000000000000000000000000000000000000600052602260045260246000fd5b60006002820490506001821680620005fa57607f821691505b60208210810362000610576200060f620005b2565b5b50919050565b60008190508160005260206000209050919050565b60006020601f8301049050919050565b600082821b905092915050565b6000600883026200067a7fffffffffffffffffffffffffffffffffffffffffffffffffffffffffffffffff826200063b565b6200068686836200063b565b95508019841693508086168417925050509392505050565b6000819050919050565b6000620006c9620006c3620006bd846200049a565b6200069e565b6200049a565b9050919050565b6000819050919050565b620006e583620006a8565b620006fd620006f482620006d0565b84845462000648565b825550505050565b600090565b6200071462000705565b62000721818484620006da565b505050565b5b8181101562000749576200073d6000826200070a565b60018101905062000727565b5050565b601f8211156200079857620007628162000616565b6200076d846200062b565b810160208510156200077d578190505b620007956200078c856200062b565b83018262000726565b50505b505050565b600082821c905092915050565b6000620007bd600019846008026200079d565b1980831691505092915050565b6000620007d88383620007aa565b9150826002028217905092915050565b620007f38262000578565b67ffffffffffffffff8111156200080f576200080e62000583565b5b6200081b8254620005e1565b620008288282856200074d565b600060209050601f8311600181146200086057600084156200084b578287015190505b620008578582620007ca565b865550620008c7565b601f198416620008708662000616565b60005b828110156200089a5784890151825560018201915060208501945060208101905062000873565b86831015620008ba5784890151620008b6601f891682620007aa565b8355505b6001600288020188555050505b505050505050565b6000819050919050565b620008e481620008cf565b82525050565b600060a082019050620009016000830188620008d9565b620009106020830187620008d9565b6200091f6040830186620008d9565b6200092e60608301856200054a565b6200093d60808301846200051c565b9695505050505050565b600082825260208201905092915050565b60005b83811015620009785780820151818401526020810190506200095b565b60008484015250505050565b6000601f19601f8301169050919050565b6000620009a28262000578565b620009ae818562000947565b9350620009c081856020860162000958565b620009cb8162000984565b840191505092915050565b60006020820190508181036000830152620009f2818462000995565b905092915050565b600081519050919050565b6000819050602082019050919050565b600062000a238251620008cf565b80915050919050565b600062000a3982620009fa565b8262000a458462000a05565b905062000a528162000a15565b9250602082101562000a955762000a907fffffffffffffffffffffffffffffffffffffffffffffffffffffffffffffffff836020036008026200063b565b831692505b5050919050565b60805160a05160c05160e05161010051610120516101405161209f62000af76000396000610868015260006108340152600061117c0152600061115b01526000610e3b01526000610e9101526000610eba015261209f6000f3fe6080604052600436106100ab5760003560e01c8063715018a611610064578063715018a6146101da5780637ecebe00146101f157806384b0196e1461022e5780638da5cb5b1461025f578063bf5d3bdb1461028a578063f2fde38b146102c7576100b2565b806315cce224146100b75780632d0335ab146100e05780632fdeb1111461011d57806347153f8214610148578063647846a51461018657806369fe0e2d146101b1576100b2565b366100b257005b600080fd5b3480156100c357600080fd5b506100de60048036038101906100d99190611316565b6102f0565b005b3480156100ec57600080fd5b5061010760048036038101906101029190611316565b610373565b604051610114919061135c565b60405180910390f35b34801561012957600080fd5b506101326103bc565b60405161013f919061135c565b60405180910390f35b34801561015457600080fd5b5061016f600480360381019061016a9190611400565b6103c2565b60405161017d929190611527565b60405180910390f35b34801561019257600080fd5b5061019b610786565b6040516101a891906115b6565b60405180910390f35b3480156101bd57600080fd5b506101d860048036038101906101d391906115fd565b6107ac565b005b3480156101e657600080fd5b506101ef6107f5565b005b3480156101fd57600080fd5b5061021860048036038101906102139190611316565b610809565b604051610225919061135c565b60405180910390f35b34801561023a57600080fd5b50610243610821565b60405161025697969594939291906117a0565b60405180910390f35b34801561026b57600080fd5b50610274610923565b6040516102819190611824565b60405180910390f35b34801561029657600080fd5b506102b160048036038101906102ac9190611400565b61094d565b6040516102be919061183f565b60405180910390f35b3480156102d357600080fd5b506102ee60048036038101906102e99190611316565b610b03565b005b6102f8610b86565b80600360006101000a81548173ffffffffffffffffffffffffffffffffffffffff021916908373ffffffffffffffffffffffffffffffffffffffff1602179055507fa0ca04e9956a42929fa24e6299bb6622c8703ac575c61b33e01fb170100ee6dc816040516103689190611824565b60405180910390a150565b6000600560008373ffffffffffffffffffffffffffffffffffffffff1673ffffffffffffffffffffffffffffffffffffffff168152602001908152602001600020549050919050565b60045481565b600060606103d185858561094d565b610410576040517f08c379a0000000000000000000000000000000000000000000000000000000008152600401610407906118a6565b60405180910390fd5b600360009054906101000a900473ffffffffffffffffffffffffffffffffffffffff1673ffffffffffffffffffffffffffffffffffffffff166323b872dd8660000160208101906104619190611316565b336004546040518463ffffffff1660e01b8152600401610483939291906118c6565b6020604051808303816000875af11580156104a2573d6000803e3d6000fd5b505050506040513d601f19601f820116820180604052508101906104c69190611929565b610505576040517f08c379a00000000000000000000000000000000000000000000000000000000081526004016104fc906119a2565b60405180910390fd5b6005600086600001602081019061051c9190611316565b73ffffffffffffffffffffffffffffffffffffffff1673ffffffffffffffffffffffffffffffffffffffff1681526020019081526020016000206000815480929190610567906119f1565b919050555084602001602081019061057f9190611316565b73ffffffffffffffffffffffffffffffffffffffff1685606001358660400135878060a001906105af9190611a48565b6040516105bd929190611aea565b600060405180830381858888f193505050503d80600081146105fb576040519150601f19603f3d011682016040523d82523d6000602084013e610600565b606091505b50809250819350505084602001602081019061061c9190611316565b73ffffffffffffffffffffffffffffffffffffffff168560000160208101906106459190611316565b73ffffffffffffffffffffffffffffffffffffffff167ff58c4d9d66b0fb7f8f24128aedb552f542f6684e19cf741a6e776bc591b4e3e2848460405161068c929190611527565b60405180910390a38180156106a1575060003a115b1561077e5760003a5a87606001356106b99190611b03565b6106c39190611b37565b9050600081111561077c5760003373ffffffffffffffffffffffffffffffffffffffff16826040516106f490611b9f565b60006040518083038185875af1925050503d8060008114610731576040519150601f19603f3d011682016040523d82523d6000602084013e610736565b606091505b505090508061077a576040517f08c379a000000000000000000000000000000000000000000000000000000000815260040161077190611c00565b60405180910390fd5b505b505b935093915050565b600360009054906101000a900473ffffffffffffffffffffffffffffffffffffffff1681565b6107b4610b86565b806004819055507f8c4d35e54a3f2ef1134138fd8ea3daee6a3c89e10d2665996babdf70261e2c76816040516107ea919061135c565b60405180910390a150565b6107fd610b86565b6108076000610c04565b565b60056020528060005260406000206000915090505481565b60006060806000806000606061086160007f0000000000000000000000000000000000000000000000000000000000000000610cca90919063ffffffff16565b61089560017f0000000000000000000000000000000000000000000000000000000000000000610cca90919063ffffffff16565b46306000801b600067ffffffffffffffff8111156108b6576108b5611c20565b5b6040519080825280602002602001820160405280156108e45781602001602082028036833780820191505090505b507f0f00000000000000000000000000000000000000000000000000000000000000959493929190965096509650965096509650965090919293949596565b6000600260009054906101000a900473ffffffffffffffffffffffffffffffffffffffff16905090565b600080610a5684848080601f016020809104026020016040519081016040528093929190818152602001838380828437600081840152601f19601f82011690508083019250505050505050610a487fdd8f4b70b0f4393e889bd39128a30628a78b61816a9eb8199759e7a349657e488860000160208101906109cf9190611316565b8960200160208101906109e29190611316565b8a604001358b606001358c608001358d8060a00190610a019190611a48565b604051610a0f929190611aea565b6040518091039020604051602001610a2d9796959493929190611c4f565b60405160208183030381529060405280519060200120610d7a565b610d9490919063ffffffff16565b9050846080013560056000876000016020810190610a749190611316565b73ffffffffffffffffffffffffffffffffffffffff1673ffffffffffffffffffffffffffffffffffffffff16815260200190815260200160002054148015610af95750846000016020810190610aca9190611316565b73ffffffffffffffffffffffffffffffffffffffff168173ffffffffffffffffffffffffffffffffffffffff16145b9150509392505050565b610b0b610b86565b600073ffffffffffffffffffffffffffffffffffffffff168173ffffffffffffffffffffffffffffffffffffffff1603610b7a576040517f08c379a0000000000000000000000000000000000000000000000000000000008152600401610b7190611d30565b60405180910390fd5b610b8381610c04565b50565b610b8e610dbb565b73ffffffffffffffffffffffffffffffffffffffff16610bac610923565b73ffffffffffffffffffffffffffffffffffffffff1614610c02576040517f08c379a0000000000000000000000000000000000000000000000000000000008152600401610bf990611d9c565b60405180910390fd5b565b6000600260009054906101000a900473ffffffffffffffffffffffffffffffffffffffff16905081600260006101000a81548173ffffffffffffffffffffffffffffffffffffffff021916908373ffffffffffffffffffffffffffffffffffffffff1602179055508173ffffffffffffffffffffffffffffffffffffffff168173ffffffffffffffffffffffffffffffffffffffff167f8be0079c531659141344cd1fd0a4f28419497f9722a3daafe3b4186f6b6457e060405160405180910390a35050565b606060ff60001b8314610ce757610ce083610dc3565b9050610d74565b818054610cf390611deb565b80601f0160208091040260200160405190810160405280929190818152602001828054610d1f90611deb565b8015610d6c5780601f10610d4157610100808354040283529160200191610d6c565b820191906000526020600020905b815481529060010190602001808311610d4f57829003601f168201915b505050505090505b92915050565b6000610d8d610d87610e37565b83610eee565b9050919050565b6000806000610da38585610f2f565b91509150610db081610f80565b819250505092915050565b600033905090565b60606000610dd0836110e6565b90506000602067ffffffffffffffff811115610def57610dee611c20565b5b6040519080825280601f01601f191660200182016040528015610e215781602001600182028036833780820191505090505b5090508181528360208201528092505050919050565b60007f000000000000000000000000000000000000000000000000000000000000000073ffffffffffffffffffffffffffffffffffffffff163073ffffffffffffffffffffffffffffffffffffffff16148015610eb357507f000000000000000000000000000000000000000000000000000000000000000046145b15610ee0577f00000000000000000000000000000000000000000000000000000000000000009050610eeb565b610ee8611136565b90505b90565b60006040517f190100000000000000000000000000000000000000000000000000000000000081528360028201528260228201526042812091505092915050565b6000806041835103610f705760008060006020860151925060408601519150606086015160001a9050610f64878285856111cc565b94509450505050610f79565b60006002915091505b9250929050565b60006004811115610f9457610f93611e1c565b5b816004811115610fa757610fa6611e1c565b5b03156110e35760016004811115610fc157610fc0611e1c565b5b816004811115610fd457610fd3611e1c565b5b03611014576040517f08c379a000000000000000000000000000000000000000000000000000000000815260040161100b90611e97565b60405180910390fd5b6002600481111561102857611027611e1c565b5b81600481111561103b5761103a611e1c565b5b0361107b576040517f08c379a000000000000000000000000000000000000000000000000000000000815260040161107290611f03565b60405180910390fd5b6003600481111561108f5761108e611e1c565b5b8160048111156110a2576110a1611e1c565b5b036110e2576040517f08c379a00000000000000000000000000000000000000000000000000000000081526004016110d990611f95565b60405180910390fd5b5b50565b60008060ff8360001c169050601f81111561112d576040517fb3512b0c00000000000000000000000000000000000000000000000000000000815260040160405180910390fd5b80915050919050565b60007f8b73c3c69bb8fe3d512ecc4cf759cc79239f7b179b0ffacaa9a75d522b39400f7f00000000000000000000000000000000000000000000000000000000000000007f000000000000000000000000000000000000000000000000000000000000000046306040516020016111b1959493929190611fb5565b60405160208183030381529060405280519060200120905090565b6000807f7fffffffffffffffffffffffffffffff5d576e7357a4501ddfe92f46681b20a08360001c11156112075760006003915091506112a5565b60006001878787876040516000815260200160405260405161122c9493929190612024565b6020604051602081039080840390855afa15801561124e573d6000803e3d6000fd5b505050602060405103519050600073ffffffffffffffffffffffffffffffffffffffff168173ffffffffffffffffffffffffffffffffffffffff160361129c576000600192509250506112a5565b80600092509250505b94509492505050565b600080fd5b600080fd5b600073ffffffffffffffffffffffffffffffffffffffff82169050919050565b60006112e3826112b8565b9050919050565b6112f3816112d8565b81146112fe57600080fd5b50565b600081359050611310816112ea565b92915050565b60006020828403121561132c5761132b6112ae565b5b600061133a84828501611301565b91505092915050565b6000819050919050565b61135681611343565b82525050565b6000602082019050611371600083018461134d565b92915050565b600080fd5b600060c0828403121561139257611391611377565b5b81905092915050565b600080fd5b600080fd5b600080fd5b60008083601f8401126113c0576113bf61139b565b5b8235905067ffffffffffffffff8111156113dd576113dc6113a0565b5b6020830191508360018202830111156113f9576113f86113a5565b5b9250929050565b600080600060408486031215611419576114186112ae565b5b600084013567ffffffffffffffff811115611437576114366112b3565b5b6114438682870161137c565b935050602084013567ffffffffffffffff811115611464576114636112b3565b5b611470868287016113aa565b92509250509250925092565b60008115159050919050565b6114918161147c565b82525050565b600081519050919050565b600082825260208201905092915050565b60005b838110156114d15780820151818401526020810190506114b6565b60008484015250505050565b6000601f19601f8301169050919050565b60006114f982611497565b61150381856114a2565b93506115138185602086016114b3565b61151c816114dd565b840191505092915050565b600060408201905061153c6000830185611488565b818103602083015261154e81846114ee565b90509392505050565b6000819050919050565b600061157c611577611572846112b8565b611557565b6112b8565b9050919050565b600061158e82611561565b9050919050565b60006115a082611583565b9050919050565b6115b081611595565b82525050565b60006020820190506115cb60008301846115a7565b92915050565b6115da81611343565b81146115e557600080fd5b50565b6000813590506115f7816115d1565b92915050565b600060208284031215611613576116126112ae565b5b6000611621848285016115e8565b91505092915050565b60007fff0000000000000000000000000000000000000000000000000000000000000082169050919050565b61165f8161162a565b82525050565b600081519050919050565b600082825260208201905092915050565b600061168c82611665565b6116968185611670565b93506116a68185602086016114b3565b6116af816114dd565b840191505092915050565b6116c3816112d8565b82525050565b6000819050919050565b6116dc816116c9565b82525050565b600081519050919050565b600082825260208201905092915050565b6000819050602082019050919050565b61171781611343565b82525050565b6000611729838361170e565b60208301905092915050565b6000602082019050919050565b600061174d826116e2565b61175781856116ed565b9350611762836116fe565b8060005b8381101561179357815161177a888261171d565b975061178583611735565b925050600181019050611766565b5085935050505092915050565b600060e0820190506117b5600083018a611656565b81810360208301526117c78189611681565b905081810360408301526117db8188611681565b90506117ea606083018761134d565b6117f760808301866116ba565b61180460a08301856116d3565b81810360c08301526118168184611742565b905098975050505050505050565b600060208201905061183960008301846116ba565b92915050565b60006020820190506118546000830184611488565b92915050565b7f496e76616c6964207369676e6174757265000000000000000000000000000000600082015250565b6000611890601183611670565b915061189b8261185a565b602082019050919050565b600060208201905081810360008301526118bf81611883565b9050919050565b60006060820190506118db60008301866116ba565b6118e860208301856116ba565b6118f5604083018461134d565b949350505050565b6119068161147c565b811461191157600080fd5b50565b600081519050611923816118fd565b92915050565b60006020828403121561193f5761193e6112ae565b5b600061194d84828501611914565b91505092915050565b7f466565207472616e73666572206661696c656400000000000000000000000000600082015250565b600061198c601383611670565b915061199782611956565b602082019050919050565b600060208201905081810360008301526119bb8161197f565b9050919050565b7f4e487b7100000000000000000000000000000000000000000000000000000000600052601160045260246000fd5b60006119fc82611343565b91507fffffffffffffffffffffffffffffffffffffffffffffffffffffffffffffffff8203611a2e57611a2d6119c2565b5b600182019050919050565b600080fd5b600080fd5b600080fd5b60008083356001602003843603038112611a6557611a64611a39565b5b80840192508235915067ffffffffffffffff821115611a8757611a86611a3e565b5b602083019250600182023603831315611aa357611aa2611a43565b5b509250929050565b600081905092915050565b82818337600083830152505050565b6000611ad18385611aab565b9350611ade838584611ab6565b82840190509392505050565b6000611af7828486611ac5565b91508190509392505050565b6000611b0e82611343565b9150611b1983611343565b9250828203905081811115611b3157611b306119c2565b5b92915050565b6000611b4282611343565b9150611b4d83611343565b9250828202611b5b81611343565b91508282048414831517611b7257611b716119c2565b5b5092915050565b50565b6000611b89600083611aab565b9150611b9482611b79565b600082019050919050565b6000611baa82611b7c565b9150819050919050565b7f526566756e64206661696c656400000000000000000000000000000000000000600082015250565b6000611bea600d83611670565b9150611bf582611bb4565b602082019050919050565b60006020820190508181036000830152611c1981611bdd565b9050919050565b7f4e487b7100000000000000000000000000000000000000000000000000000000600052604160045260246000fd5b600060e082019050611c64600083018a6116d3565b611c7160208301896116ba565b611c7e60408301886116ba565b611c8b606083018761134d565b611c98608083018661134d565b611ca560a083018561134d565b611cb260c08301846116d3565b98975050505050505050565b7f4f776e61626c653a206e6577206f776e657220697320746865207a65726f206160008201527f6464726573730000000000000000000000000000000000000000000000000000602082015250565b6000611d1a602683611670565b9150611d2582611cbe565b604082019050919050565b60006020820190508181036000830152611d4981611d0d565b9050919050565b7f4f776e61626c653a2063616c6c6572206973206e6f7420746865206f776e6572600082015250565b6000611d86602083611670565b9150611d9182611d50565b602082019050919050565b60006020820190508181036000830152611db581611d79565b9050919050565b7f4e487b7100000000000000000000000000000000000000000000000000000000600052602260045260246000fd5b60006002820490506001821680611e0357607f821691505b602082108103611e1657611e15611dbc565b5b50919050565b7f4e487b7100000000000000000000000000000000000000000000000000000000600052602160045260246000fd5b7f45434453413a20696e76616c6964207369676e61747572650000000000000000600082015250565b6000611e81601883611670565b9150611e8c82611e4b565b602082019050919050565b60006020820190508181036000830152611eb081611e74565b9050919050565b7f45434453413a20696e76616c6964207369676e6174757265206c656e67746800600082015250565b6000611eed601f83611670565b9150611ef882611eb7565b602082019050919050565b60006020820190508181036000830152611f1c81611ee0565b9050919050565b7f45434453413a20696e76616c6964207369676e6174757265202773272076616c60008201527f7565000000000000000000000000000000000000000000000000000000000000602082015250565b6000611f7f602283611670565b9150611f8a82611f23565b604082019050919050565b60006020820190508181036000830152611fae81611f72565b9050919050565b600060a082019050611fca60008301886116d3565b611fd760208301876116d3565b611fe460408301866116d3565b611ff1606083018561134d565b611ffe60808301846116ba565b9695505050505050565b600060ff82169050919050565b61201e81612008565b82525050565b600060808201905061203960008301876116d3565b6120466020830186612015565b61205360408301856116d3565b61206060608301846116d3565b9594505050505056fea2646970667358221220460120ede0ddea72138db0ef71d0e3bd44c58ac8b3ced6b47edd10f45e064b6264736f6c63430008140033",
  "linkReferences": {},
  "deployedLinkReferences": {}
}