{
  "address": "0xd626a619a2CdB92269025f7a32aa46c49077e5A2",
  "abi": [
    {
      "inputs": [
        {
          "internalType": "address",
          "name": "_feeToken",
          "type": "address"
        },
        {
          "internalType": "uint256",
          "name": "_initialFee",
          "type": "uint256"
        },
        {
          "internalType": "address",
          "name": "_uniswapPool",
          "type": "address"
        },
        {
          "internalType": "bool",
          "name": "_isToken0USDC",
          "type": "bool"
        }
      ],
      "stateMutability": "nonpayable",
      "type": "constructor"
    },
    {
      "inputs": [],
      "name": "InvalidShortString",
      "type": "error"
    },
    {
      "inputs": [
        {
          "internalType": "string",
          "name": "str",
          "type": "string"
        }
      ],
      "name": "StringTooLong",
      "type": "error"
    },
    {
      "anonymous": false,
      "inputs": [
        {
          "indexed": false,
          "internalType": "address",
          "name": "from",
          "type": "address"
        },
        {
          "indexed": false,
          "internalType": "address",
          "name": "relayer",
          "type": "address"
        },
        {
          "indexed": false,
          "internalType": "uint256",
          "name": "usdcFee",
          "type": "uint256"
        },
        {
          "indexed": false,
          "internalType": "uint256",
          "name": "balance",
          "type": "uint256"
        },
        {
          "indexed": false,
          "internalType": "uint256",
          "name": "allowance",
          "type": "uint256"
        },
        {
          "indexed": false,
          "internalType": "uint256",
          "name": "gasLimit",
          "type": "uint256"
        },
        {
          "indexed": false,
          "internalType": "uint256",
          "name": "gasPrice",
          "type": "uint256"
        },
        {
          "indexed": false,
          "internalType": "uint256",
          "name": "ethPriceInUSDC",
          "type": "uint256"
        }
      ],
      "name": "DebugInfo",
      "type": "event"
    },
    {
      "anonymous": false,
      "inputs": [],
      "name": "EIP712DomainChanged",
      "type": "event"
    },
    {
      "anonymous": false,
      "inputs": [
        {
          "indexed": false,
          "internalType": "address",
          "name": "newToken",
          "type": "address"
        }
      ],
      "name": "FeeTokenUpdated",
      "type": "event"
    },
    {
      "anonymous": false,
      "inputs": [
        {
          "indexed": false,
          "internalType": "uint256",
          "name": "newFee",
          "type": "uint256"
        }
      ],
      "name": "FeeUpdated",
      "type": "event"
    },
    {
      "anonymous": false,
      "inputs": [
        {
          "indexed": true,
          "internalType": "address",
          "name": "previousOwner",
          "type": "address"
        },
        {
          "indexed": true,
          "internalType": "address",
          "name": "newOwner",
          "type": "address"
        }
      ],
      "name": "OwnershipTransferred",
      "type": "event"
    },
    {
      "anonymous": false,
      "inputs": [
        {
          "indexed": true,
          "internalType": "address",
          "name": "from",
          "type": "address"
        },
        {
          "indexed": true,
          "internalType": "address",
          "name": "to",
          "type": "address"
        },
        {
          "indexed": false,
          "internalType": "bool",
          "name": "success",
          "type": "bool"
        },
        {
          "indexed": false,
          "internalType": "bytes",
          "name": "returnData",
          "type": "bytes"
        }
      ],
      "name": "TransactionRelayed",
      "type": "event"
    },
    {
      "anonymous": false,
      "inputs": [
        {
          "indexed": false,
          "internalType": "address",
          "name": "newPool",
          "type": "address"
        }
      ],
      "name": "UniswapPoolUpdated",
      "type": "event"
    },
    {
      "inputs": [],
      "name": "eip712Domain",
      "outputs": [
        {
          "internalType": "bytes1",
          "name": "fields",
          "type": "bytes1"
        },
        {
          "internalType": "string",
          "name": "name",
          "type": "string"
        },
        {
          "internalType": "string",
          "name": "version",
          "type": "string"
        },
        {
          "internalType": "uint256",
          "name": "chainId",
          "type": "uint256"
        },
        {
          "internalType": "address",
          "name": "verifyingContract",
          "type": "address"
        },
        {
          "internalType": "bytes32",
          "name": "salt",
          "type": "bytes32"
        },
        {
          "internalType": "uint256[]",
          "name": "extensions",
          "type": "uint256[]"
        }
      ],
      "stateMutability": "view",
      "type": "function"
    },
    {
      "inputs": [
        {
          "components": [
            {
              "internalType": "address",
              "name": "from",
              "type": "address"
            },
            {
              "internalType": "address",
              "name": "to",
              "type": "address"
            },
            {
              "internalType": "uint256",
              "name": "value",
              "type": "uint256"
            },
            {
              "internalType": "uint256",
              "name": "gas",
              "type": "uint256"
            },
            {
              "internalType": "uint256",
              "name": "nonce",
              "type": "uint256"
            },
            {
              "internalType": "bytes",
              "name": "data",
              "type": "bytes"
            }
          ],
          "internalType": "struct GaslessRelayer.ForwardRequest",
          "name": "req",
          "type": "tuple"
        },
        {
          "internalType": "bytes",
          "name": "signature",
          "type": "bytes"
        }
      ],
      "name": "execute",
      "outputs": [
        {
          "internalType": "bool",
          "name": "success",
          "type": "bool"
        },
        {
          "internalType": "bytes",
          "name": "ret",
          "type": "bytes"
        }
      ],
      "stateMutability": "nonpayable",
      "type": "function"
    },
    {
      "inputs": [],
      "name": "feeToken",
      "outputs": [
        {
          "internalType": "contract IERC20",
          "name": "",
          "type": "address"
        }
      ],
      "stateMutability": "view",
      "type": "function"
    },
    {
      "inputs": [
        {
          "internalType": "uint256",
          "name": "priceX96",
          "type": "uint256"
        }
      ],
      "name": "getActualPrice",
      "outputs": [
        {
          "internalType": "uint256",
          "name": "",
          "type": "uint256"
        }
      ],
      "stateMutability": "view",
      "type": "function"
    },
    {
      "inputs": [],
      "name": "getEthPriceInUSDC",
      "outputs": [
        {
          "internalType": "uint256",
          "name": "",
          "type": "uint256"
        }
      ],
      "stateMutability": "view",
      "type": "function"
    },
    {
      "inputs": [
        {
          "internalType": "address",
          "name": "from",
          "type": "address"
        }
      ],
      "name": "getNonce",
      "outputs": [
        {
          "internalType": "uint256",
          "name": "",
          "type": "uint256"
        }
      ],
      "stateMutability": "view",
      "type": "function"
    },
    {
      "inputs": [
        {
          "internalType": "uint160",
          "name": "sqrtPriceX96",
          "type": "uint160"
        }
      ],
      "name": "getPriceX96FromSqrtPriceX96",
      "outputs": [
        {
          "internalType": "uint256",
          "name": "",
          "type": "uint256"
        }
      ],
      "stateMutability": "pure",
      "type": "function"
    },
    {
      "inputs": [],
      "name": "isToken0USDC",
      "outputs": [
        {
          "internalType": "bool",
          "name": "",
          "type": "bool"
        }
      ],
      "stateMutability": "view",
      "type": "function"
    },
    {
      "inputs": [
        {
          "internalType": "address",
          "name": "",
          "type": "address"
        }
      ],
      "name": "nonces",
      "outputs": [
        {
          "internalType": "uint256",
          "name": "",
          "type": "uint256"
        }
      ],
      "stateMutability": "view",
      "type": "function"
    },
    {
      "inputs": [],
      "name": "owner",
      "outputs": [
        {
          "internalType": "address",
          "name": "",
          "type": "address"
        }
      ],
      "stateMutability": "view",
      "type": "function"
    },
    {
      "inputs": [],
      "name": "relayerFee",
      "outputs": [
        {
          "internalType": "uint256",
          "name": "",
          "type": "uint256"
        }
      ],
      "stateMutability": "view",
      "type": "function"
    },
    {
      "inputs": [],
      "name": "renounceOwnership",
      "outputs": [],
      "stateMutability": "nonpayable",
      "type": "function"
    },
    {
      "inputs": [
        {
          "internalType": "uint256",
          "name": "_newFee",
          "type": "uint256"
        }
      ],
      "name": "setFee",
      "outputs": [],
      "stateMutability": "nonpayable",
      "type": "function"
    },
    {
      "inputs": [
        {
          "internalType": "address",
          "name": "_newToken",
          "type": "address"
        }
      ],
      "name": "setFeeToken",
      "outputs": [],
      "stateMutability": "nonpayable",
      "type": "function"
    },
    {
      "inputs": [
        {
          "internalType": "address",
          "name": "_newPool",
          "type": "address"
        }
      ],
      "name": "setUniswapPool",
      "outputs": [],
      "stateMutability": "nonpayable",
      "type": "function"
    },
    {
      "inputs": [
        {
          "internalType": "address",
          "name": "newOwner",
          "type": "address"
        }
      ],
      "name": "transferOwnership",
      "outputs": [],
      "stateMutability": "nonpayable",
      "type": "function"
    },
    {
      "inputs": [],
      "name": "uniswapPool",
      "outputs": [
        {
          "internalType": "contract IUniswapV3Pool",
          "name": "",
          "type": "address"
        }
      ],
      "stateMutability": "view",
      "type": "function"
    },
    {
      "inputs": [
        {
          "components": [
            {
              "internalType": "address",
              "name": "from",
              "type": "address"
            },
            {
              "internalType": "address",
              "name": "to",
              "type": "address"
            },
            {
              "internalType": "uint256",
              "name": "value",
              "type": "uint256"
            },
            {
              "internalType": "uint256",
              "name": "gas",
              "type": "uint256"
            },
            {
              "internalType": "uint256",
              "name": "nonce",
              "type": "uint256"
            },
            {
              "internalType": "bytes",
              "name": "data",
              "type": "bytes"
            }
          ],
          "internalType": "struct GaslessRelayer.ForwardRequest",
          "name": "req",
          "type": "tuple"
        },
        {
          "internalType": "bytes",
          "name": "signature",
          "type": "bytes"
        }
      ],
      "name": "verify",
      "outputs": [
        {
          "internalType": "bool",
          "name": "",
          "type": "bool"
        }
      ],
      "stateMutability": "view",
      "type": "function"
    },
    {
      "stateMutability": "payable",
      "type": "receive"
    }
  ],
  "transactionHash": "0x2be544794508495f361ff92357f970ed2e029d24338e0a3d6695c76d6c21032f",
  "args": [
    "0x1c7D4B196Cb0C7B01d743Fbc6116a902379C7238",
    "100000",
    "0x3289680dD4d6C10bb19b899729cda5eEF58AEfF1",
    true
  ],
  "numDeployments": 4,
  "solcInputHash": "2594a86397293083765b8245ca97379f",
  "bytecode": "0x610160346200034457601f6200201d38819003918201601f19168301926001600160401b03929091838511838610176200032e5781608092849260409788528339810103126200034457620000548162000365565b926020808301519360606200006b84860162000365565b940151948515158096036200034457835194620000888662000349565b600e8652838601966d23b0b9b632b9b9a932b630bcb2b960911b8852855198620000b28a62000349565b60018a52858a01603160f81b8152620000cb896200037a565b996101209a8b52620000dd8c6200054d565b996101409a8b525190209a8b60e052519020926101009a848c524660a052885194888601917f8b73c3c69bb8fe3d512ecc4cf759cc79239f7b179b0ffacaa9a75d522b39400f83528a87015260608601524660808601523060a086015260a0855260c0850196858810908811176200032e57868952845190206080523060c052600280546001600160a01b031980821633908117909355976001600160a01b03949092859283167f8be0079c531659141344cd1fd0a4f28419497f9722a3daafe3b4186f6b6457e0600080a316948515620002ec57505016938415620002a857927fa0ca04e9956a42929fa24e6299bb6622c8703ac575c61b33e01fb170100ee6dc86848197969487867f8c4d35e54a3f2ef1134138fd8ea3daee6a3c89e10d2665996babdf70261e2c76987fb8dc65e6cb5562c7dbcf0e8300047feabefb8dcf59d737565f34ae0db58874e69c98600354161760035560045416176004558460055560ff8019600654169116176006558951908152a18651908152a18351908152a151916119229384620006fb85396080518461126a015260a05184611336015260c05184611234015260e051846112b9015251836112df01525182610356015251816103800152f35b865162461bcd60e51b815260048101879052601c60248201527f496e76616c696420556e697377617020706f6f6c2061646472657373000000006044820152606490fd5b907f496e76616c69642066656520746f6b656e2061646472657373000000000000006101046064938b62461bcd60e51b855260c4820152601960e48201520152fd5b634e487b7160e01b600052604160045260246000fd5b600080fd5b604081019081106001600160401b038211176200032e57604052565b51906001600160a01b03821682036200034457565b8051602091908281101562000419575090601f825111620003b85780825192015190808310620003a957501790565b82600019910360031b1b161790565b90604051809263305a27a960e01b82528060048301528251908160248401526000935b828510620003ff575050604492506000838284010152601f80199101168101030190fd5b8481018201518686016044015293810193859350620003db565b6001600160401b0381116200032e576000928354926001938481811c9116801562000542575b838210146200052e57601f8111620004f8575b5081601f8411600114620004915750928293918392869462000485575b50501b916000199060031b1c191617905560ff90565b0151925038806200046f565b919083601f1981168780528488209488905b88838310620004dd5750505010620004c3575b505050811b01905560ff90565b015160001960f88460031b161c19169055388080620004b6565b858701518855909601959485019487935090810190620004a3565b85805284601f848820920160051c820191601f860160051c015b8281106200052257505062000452565b87815501859062000512565b634e487b7160e01b86526022600452602486fd5b90607f16906200043f565b805160209081811015620005db5750601f8251116200057a5780825192015190808310620003a957501790565b90604051809263305a27a960e01b82528060048301528251908160248401526000935b828510620005c1575050604492506000838284010152601f80199101168101030190fd5b84810182015186860160440152938101938593506200059d565b9192916001600160401b0381116200032e5760019182548381811c91168015620006ef575b82821014620006d957601f8111620006a0575b5080601f83116001146200065357508192939460009262000647575b5050600019600383901b1c191690821b17905560ff90565b0151905038806200062f565b90601f198316958460005282600020926000905b888210620006885750508385969710620004c357505050811b01905560ff90565b80878596829496860151815501950193019062000667565b8360005283601f83600020920160051c820191601f850160051c015b828110620006cc57505062000613565b60008155018490620006bc565b634e487b7160e01b600052602260045260246000fd5b90607f16906200060056fe60406080815260048036101561001f575b5050361561001d57600080fd5b005b600091823560e01c806315cce22414610a545780632d0335ab1461045c5780632fdeb11114610a355780633a0fad7f14610a1157806347153f821461059e5780634e09a6101461056a578063647846a51461054157806369fe0e2d146104f3578063715018a6146104965780637ecebe001461045c57806384b0196e146103405780638da5cb5b146103175780638f90e9021461025f578063aedc8e381461023c578063bdd3d82514610214578063bf5d3bdb146101ef578063d4e895cb146101c75763f2fde38b146100f25750610010565b346101c35760203660031901126101c3576001600160a01b038235818116939192908490036101bf57610123610bd3565b831561016d575050600254826bffffffffffffffffffffffff60a01b821617600255167f8be0079c531659141344cd1fd0a4f28419497f9722a3daafe3b4186f6b6457e08380a380f35b906020608492519162461bcd60e51b8352820152602660248201527f4f776e61626c653a206e6577206f776e657220697320746865207a65726f206160448201526564647265737360d01b6064820152fd5b8480fd5b8280fd5b8382346101eb57816003193601126101eb576020906101e4611378565b9051908152f35b5080fd5b8382346101eb5760209061020b61020536610b0b565b91610f0f565b90519015158152f35b5090346101c357826003193601126101c3575490516001600160a01b03909116815260209150f35b50823461025c57602036600319011261025c57506101e4602092356114b4565b80fd5b50346101c35760203660031901126101c35781356001600160a01b03811692908390036103135761028e610bd3565b82156102d15780546001600160a01b03191683179055519081527fb8dc65e6cb5562c7dbcf0e8300047feabefb8dcf59d737565f34ae0db58874e690602090a180f35b6020606492519162461bcd60e51b8352820152601c60248201527f496e76616c696420556e697377617020706f6f6c2061646472657373000000006044820152fd5b8380fd5b8382346101eb57816003193601126101eb5760025490516001600160a01b039091168152602090f35b50346101c357826003193601126101c35761037a7f0000000000000000000000000000000000000000000000000000000000000000610c7f565b926103a47f0000000000000000000000000000000000000000000000000000000000000000610da2565b908251926020928385019585871067ffffffffffffffff881117610449575092806103ff8388966103f2998b9996528686528151998a99600f60f81b8b5260e0868c015260e08b0190610b77565b91898303908a0152610b77565b924660608801523060808801528460a088015286840360c088015251928381520193925b82811061043257505050500390f35b835185528695509381019392810192600101610423565b634e487b7160e01b845260419052602483fd5b5090346101c35760203660031901126101c357356001600160a01b038116908190036101c357828291602094526007845220549051908152f35b833461025c578060031936011261025c576104af610bd3565b600280546001600160a01b0319811690915581906001600160a01b03167f8be0079c531659141344cd1fd0a4f28419497f9722a3daafe3b4186f6b6457e08280a380f35b5090346101c35760203660031901126101c3577f8c4d35e54a3f2ef1134138fd8ea3daee6a3c89e10d2665996babdf70261e2c76916020913590610535610bd3565b8160055551908152a180f35b8382346101eb57816003193601126101eb5760035490516001600160a01b039091168152602090f35b5090346101c35760203660031901126101c357356001600160a01b038116929083900361025c57506101e4826020936117e5565b50346101c357916105bb926105b236610b0b565b90829692610f0f565b156109db576060840135803a02933a850482143a1517156109c8576105e86105e1611378565b8096611741565b600554808211156109c05750945b6003546001600160a01b039081169690929061061189610e91565b86516370a0823160e01b815290851683820152602098602494918a818781855afa9081156109b6578a91610985575b5061064a8c610e91565b8951636eb1769f60e11b8152908816868201523087820152918b83604481845afa9283156108c8578b93610956575b50848210610914578483106108d2578b8860648f8e6106988f92610e91565b915195869485936323b872dd60e01b8552168c840152338d8401528a60448401525af19081156108c8578b9161088f575b501561085757917f5a7f31020e1376e114fbdaffcace5c65b44bbfa0a23d287a94cdbc8cd60b672c9391610100936107008e610e91565b93898c51951685528d33908601528b850152606084015260808301528760a08301523a60c083015260e0820152a18261073889610e91565b16865260078752848620918254916000198314610846575050600101905583808688019361076585610e91565b9061077360a08b018b610ea5565b9190828951938492833781018581520392888c013591f1933d15610810576107ea6107e461080c9697987ff58c4d9d66b0fb7f8f24128aedb552f542f6684e19cf741a6e776bc591b4e3e2933d906107ca82610e75565b916107d78a519384610c5d565b8252819b3d92013e610e91565b93610e91565b918085519316931691806107ff898983610bb7565b0390a35192839283610bb7565b0390f35b5061080c9394507ff58c4d9d66b0fb7f8f24128aedb552f542f6684e19cf741a6e776bc591b4e3e26107ea6107e4606098610e91565b634e487b7160e01b88526011905286fd5b885162461bcd60e51b81528086018c905260138188015272119959481d1c985b9cd9995c8819985a5b1959606a1b6044820152606490fd5b90508b81813d83116108c1575b6108a68183610c5d565b810103126108bd576108b79061136b565b386106c9565b8a80fd5b503d61089c565b8a513d8d823e3d90fd5b895162461bcd60e51b81528087018d9052601b818901527f496e73756666696369656e74205553444320616c6c6f77616e636500000000006044820152606490fd5b895162461bcd60e51b81528087018d90526019818901527f496e73756666696369656e7420555344432062616c616e6365000000000000006044820152606490fd5b9092508b81813d831161097e575b61096e8183610c5d565b810103126108bd57519138610679565b503d610964565b90508a81813d83116109af575b61099c8183610c5d565b810103126109ab575138610640565b8980fd5b503d610992565b89513d8c823e3d90fd5b9050946105f6565b634e487b7160e01b845260119052602483fd5b5162461bcd60e51b81526020818401526011602482015270496e76616c6964207369676e617475726560781b6044820152606490fd5b8382346101eb57816003193601126101eb5760209060ff6006541690519015158152f35b8382346101eb57816003193601126101eb576020906005549051908152f35b50346101c35760203660031901126101c35781356001600160a01b038116929083900361031357610a83610bd3565b8215610ac95750600380546001600160a01b03191683179055519081527fa0ca04e9956a42929fa24e6299bb6622c8703ac575c61b33e01fb170100ee6dc90602090a180f35b6020606492519162461bcd60e51b8352820152601960248201527f496e76616c69642066656520746f6b656e2061646472657373000000000000006044820152fd5b9060031990604082840112610b725760043567ffffffffffffffff92838211610b725760c0908286030112610b72576004019260243590838211610b725780602383011215610b72578160040135938411610b725760248483010111610b72576024019190565b600080fd5b919082519283825260005b848110610ba3575050826000602080949584010152601f8019910116010190565b602081830181015184830182015201610b82565b604090610bd09392151581528160208201520190610b77565b90565b6002546001600160a01b03163303610be757565b606460405162461bcd60e51b815260206004820152602060248201527f4f776e61626c653a2063616c6c6572206973206e6f7420746865206f776e65726044820152fd5b6040810190811067ffffffffffffffff821117610c4757604052565b634e487b7160e01b600052604160045260246000fd5b90601f8019910116810190811067ffffffffffffffff821117610c4757604052565b60ff8114610cbd5760ff811690601f8211610cab5760405191610ca183610c2b565b8252602082015290565b604051632cd44ac360e21b8152600490fd5b506040516000805490600182811c90808416938415610d98575b6020948584108114610d845783875286949392918115610d645750600114610d08575b5050610bd092500382610c5d565b60008080527f290decd9548b62a8d60345a988386fc84ba6bc95484008f6362f93160ef3e56395935091905b818310610d4c575050610bd093508201013880610cfa565b85548784018501529485019486945091830191610d34565b915050610bd094925060ff191682840152151560051b8201013880610cfa565b634e487b7160e01b85526022600452602485fd5b91607f1691610cd7565b60ff8114610dc45760ff811690601f8211610cab5760405191610ca183610c2b565b50604051600060019081549182811c90808416938415610e6b575b6020948584108114610d845783875286949392918115610d645750600114610e0f575050610bd092500382610c5d565b60008181527fb10e2d527612073b26eecdfd717e6a320cf44b4afac2b0732d9fcbe2b7fa0cf695935091905b818310610e53575050610bd093508201013880610cfa565b85548784018501529485019486945091830191610e3b565b91607f1691610ddf565b67ffffffffffffffff8111610c4757601f01601f191660200190565b356001600160a01b0381168103610b725790565b903590601e1981360301821215610b72570180359067ffffffffffffffff8211610b7257602001918136038313610b7257565b929192610ee482610e75565b91610ef26040519384610c5d565b829481845281830111610b72578281602093846000960137010152565b91610f1983610e91565b610f2560208501610e91565b91608085013591610f43610f3c60a0880188610ea5565b3691610ed8565b602081519101209160409283519060208201937fdd8f4b70b0f4393e889bd39128a30628a78b61816a9eb8199759e7a349657e48855260018060a01b03978880921687850152166060830152848901356080830152606089013560a08301528560c083015260e082015260e0815261010081019681881067ffffffffffffffff891117610c4757604261100a94611004936110129a8852519020610fe5611231565b9087519161190160f01b83526002830152602282015220923691610ed8565b9061116a565b949094611050565b8261101c86610e91565b16600052600760205260002054149283611037575b50505090565b8192935061104490610e91565b16911614388080611031565b600581101561115457806110615750565b600181036110ae5760405162461bcd60e51b815260206004820152601860248201527f45434453413a20696e76616c6964207369676e617475726500000000000000006044820152606490fd5b600281036110fb5760405162461bcd60e51b815260206004820152601f60248201527f45434453413a20696e76616c6964207369676e6174757265206c656e677468006044820152606490fd5b60031461110457565b60405162461bcd60e51b815260206004820152602260248201527f45434453413a20696e76616c6964207369676e6174757265202773272076616c604482015261756560f01b6064820152608490fd5b634e487b7160e01b600052602160045260246000fd5b90604181511460001461119857611194916020820151906060604084015193015160001a906111a2565b9091565b5050600090600290565b9291907f7fffffffffffffffffffffffffffffff5d576e7357a4501ddfe92f46681b20a083116112255791608094939160ff602094604051948552168484015260408301526060820152600093849182805260015afa156112185781516001600160a01b03811615611212579190565b50600190565b50604051903d90823e3d90fd5b50505050600090600390565b307f00000000000000000000000000000000000000000000000000000000000000006001600160a01b03161480611333575b1561128c577f000000000000000000000000000000000000000000000000000000000000000090565b60405160208101907f8b73c3c69bb8fe3d512ecc4cf759cc79239f7b179b0ffacaa9a75d522b39400f82527f000000000000000000000000000000000000000000000000000000000000000060408201527f000000000000000000000000000000000000000000000000000000000000000060608201524660808201523060a082015260a0815260c0810181811067ffffffffffffffff821117610c475760405251902090565b507f00000000000000000000000000000000000000000000000000000000000000004614611263565b519061ffff82168203610b7257565b51908115158203610b7257565b60048054604051633850c7bd60e01b81526001600160a01b0392909160e0918391829086165afa908115611458576000916113c3575b50610bd0916113be9116806117e5565b6114b4565b60e0813d8211611450575b816113db60e09383610c5d565b810103126101eb57805191838316830361025c5760208201518060020b0361025c576114096040830161135c565b506114166060830161135c565b506114236080830161135c565b5060a082015160ff81160361025c5750916113be9161144760c0610bd0950161136b565b509150916113ae565b3d91506113ce565b6040513d6000823e3d90fd5b90816020910312610b7257516001600160a01b0381168103610b725790565b9190820391821161149057565b634e487b7160e01b600052601160045260246000fd5b604d811161149057600a0a90565b60065460ff169081156116ed5760048054604051630dfe168160e01b81529160209183919082906001600160a01b03165afa8015611458576116cf575b505b60018060a01b03918260045416906040938451630dfe168160e01b81526020908181600481885afa9081156116c4576000916116a7575b5086519482866004818763313ce56760e01b96878352165afa95861561166d57600096611678575b50908260049289519384809263d21220a760e01b82525afa91821561166d579083929160009261163b575b50600490895195869384928352165afa9586156116315750600095611600575b50506000906000146115da5750610bd092818111156115ce576115c8916115c391611483565b6114a6565b906117e5565b50506115c860006114a6565b610bd0936115f492818111156115f9576115c39250611483565b61182a565b50506114a6565b8181969293963d831161162a575b6116188183610c5d565b8101031261025c57505192388061159d565b503d61160e565b513d6000823e3d90fd5b600491925061165f90843d8611611666575b6116578183610c5d565b810190611464565b919061157d565b503d61164d565b88513d6000823e3d90fd5b90958382813d83116116a0575b61168f8183610c5d565b8101031261025c5750519482611552565b503d611685565b6116be9150823d8411611666576116578183610c5d565b3861152a565b87513d6000823e3d90fd5b6116e69060203d8111611666576116578183610c5d565b50386114f1565b6004805460405163d21220a760e01b81529160209183919082906001600160a01b03165afa801561145857611723575b506114f3565b61173a9060203d8111611666576116578183610c5d565b503861171d565b90600019818309818302918280831092039180830392146117d457670de0b6b3a764000090828211156117a4577faccb18165bd6fe31ae1cf318dc5b51eee0e1ba569b88cd74c1773b91fac10669940990828211900360ee1b910360121c170290565b60405162461bcd60e51b81526020600482015260086024820152674f766572666c6f7760c01b6044820152606490fd5b5050670de0b6b3a764000091500490565b600019828209908281029283808410930392808403931461182157600160601b91838311156117a4570990828211900360a01b910360601c1790565b50505060601c90565b600160601b91600019828409928260601b928380861095039480860395146118a657848311156117a4578291096001821901821680920460028082600302188083028203028083028203028083028203028083028203028083028203028092029003029360018380600003040190848311900302920304170290565b5050809250156118b4570490565b60405162461bcd60e51b815260206004820152601060248201526f44656e6f6d696e61746f72207a65726f60801b6044820152606490fdfea2646970667358221220f302a4ab5a034554ba7b506fea01910c4f4d613e8f49e00b824875daac6b4cf964736f6c63430008140033",
  "devdoc": {
    "events": {
      "EIP712DomainChanged()": {
        "details": "MAY be emitted to signal that the domain could have changed."
      }
    },
    "kind": "dev",
    "methods": {
      "eip712Domain()": {
        "details": "See {EIP-5267}. _Available since v4.9._"
      },
      "owner()": {
        "details": "Returns the address of the current owner."
      },
      "renounceOwnership()": {
        "details": "Leaves the contract without owner. It will not be possible to call `onlyOwner` functions. Can only be called by the current owner. NOTE: Renouncing ownership will leave the contract without an owner, thereby disabling any functionality that is only available to the owner."
      },
      "transferOwnership(address)": {
        "details": "Transfers ownership of the contract to a new account (`newOwner`). Can only be called by the current owner."
      }
    },
    "version": 1
  },
  "userdoc": {
    "kind": "user",
    "methods": {},
    "version": 1
  },
  "storageLayout": {
    "storage": [
      {
        "astId": 1199,
        "contract": "contracts/gaslessRelayer.sol:GaslessRelayer",
        "label": "_nameFallback",
        "offset": 0,
        "slot": "0",
        "type": "t_string_storage"
      },
      {
        "astId": 1201,
        "contract": "contracts/gaslessRelayer.sol:GaslessRelayer",
        "label": "_versionFallback",
        "offset": 0,
        "slot": "1",
        "type": "t_string_storage"
      },
      {
        "astId": 7,
        "contract": "contracts/gaslessRelayer.sol:GaslessRelayer",
        "label": "_owner",
        "offset": 0,
        "slot": "2",
        "type": "t_address"
      },
      {
        "astId": 2946,
        "contract": "contracts/gaslessRelayer.sol:GaslessRelayer",
        "label": "feeToken",
        "offset": 0,
        "slot": "3",
        "type": "t_contract(IERC20)215"
      },
      {
        "astId": 2949,
        "contract": "contracts/gaslessRelayer.sol:GaslessRelayer",
        "label": "uniswapPool",
        "offset": 0,
        "slot": "4",
        "type": "t_contract(IUniswapV3Pool)2363"
      },
      {
        "astId": 2951,
        "contract": "contracts/gaslessRelayer.sol:GaslessRelayer",
        "label": "relayerFee",
        "offset": 0,
        "slot": "5",
        "type": "t_uint256"
      },
      {
        "astId": 2953,
        "contract": "contracts/gaslessRelayer.sol:GaslessRelayer",
        "label": "isToken0USDC",
        "offset": 0,
        "slot": "6",
        "type": "t_bool"
      },
      {
        "astId": 2957,
        "contract": "contracts/gaslessRelayer.sol:GaslessRelayer",
        "label": "nonces",
        "offset": 0,
        "slot": "7",
        "type": "t_mapping(t_address,t_uint256)"
      }
    ],
    "types": {
      "t_address": {
        "encoding": "inplace",
        "label": "address",
        "numberOfBytes": "20"
      },
      "t_bool": {
        "encoding": "inplace",
        "label": "bool",
        "numberOfBytes": "1"
      },
      "t_contract(IERC20)215": {
        "encoding": "inplace",
        "label": "contract IERC20",
        "numberOfBytes": "20"
      },
      "t_contract(IUniswapV3Pool)2363": {
        "encoding": "inplace",
        "label": "contract IUniswapV3Pool",
        "numberOfBytes": "20"
      },
      "t_mapping(t_address,t_uint256)": {
        "encoding": "mapping",
        "key": "t_address",
        "label": "mapping(address => uint256)",
        "numberOfBytes": "32",
        "value": "t_uint256"
      },
      "t_string_storage": {
        "encoding": "bytes",
        "label": "string",
        "numberOfBytes": "32"
      },
      "t_uint256": {
        "encoding": "inplace",
        "label": "uint256",
        "numberOfBytes": "32"
      }
    }
  }
}