{
  "address": "0x1b3E66182482AbEB5D8F11e71c9F4898962024d1",
  "abi": [
    {
      "inputs": [
        {
          "internalType": "address",
          "name": "_feeToken",
          "type": "address"
        },
        {
          "internalType": "uint256",
          "name": "_gasOverhead",
          "type": "uint256"
        },
        {
          "internalType": "address",
          "name": "_priceFeed",
          "type": "address"
        }
      ],
      "stateMutability": "nonpayable",
      "type": "constructor"
    },
    {
      "inputs": [],
      "name": "InvalidShortString",
      "type": "error"
    },
    {
      "inputs": [
        {
          "internalType": "string",
          "name": "str",
          "type": "string"
        }
      ],
      "name": "StringTooLong",
      "type": "error"
    },
    {
      "anonymous": false,
      "inputs": [
        {
          "indexed": false,
          "internalType": "address",
          "name": "from",
          "type": "address"
        },
        {
          "indexed": false,
          "internalType": "address",
          "name": "relayer",
          "type": "address"
        },
        {
          "indexed": false,
          "internalType": "uint256",
          "name": "gas",
          "type": "uint256"
        },
        {
          "indexed": false,
          "internalType": "uint256",
          "name": "balance",
          "type": "uint256"
        },
        {
          "indexed": false,
          "internalType": "uint256",
          "name": "allowance",
          "type": "uint256"
        }
      ],
      "name": "DebugInfo",
      "type": "event"
    },
    {
      "anonymous": false,
      "inputs": [],
      "name": "EIP712DomainChanged",
      "type": "event"
    },
    {
      "anonymous": false,
      "inputs": [
        {
          "indexed": false,
          "internalType": "address",
          "name": "newToken",
          "type": "address"
        }
      ],
      "name": "FeeTokenUpdated",
      "type": "event"
    },
    {
      "anonymous": false,
      "inputs": [
        {
          "indexed": true,
          "internalType": "address",
          "name": "previousOwner",
          "type": "address"
        },
        {
          "indexed": true,
          "internalType": "address",
          "name": "newOwner",
          "type": "address"
        }
      ],
      "name": "OwnershipTransferred",
      "type": "event"
    },
    {
      "anonymous": false,
      "inputs": [
        {
          "indexed": true,
          "internalType": "address",
          "name": "from",
          "type": "address"
        },
        {
          "indexed": true,
          "internalType": "address",
          "name": "to",
          "type": "address"
        },
        {
          "indexed": false,
          "internalType": "bool",
          "name": "success",
          "type": "bool"
        },
        {
          "indexed": false,
          "internalType": "bytes",
          "name": "returnData",
          "type": "bytes"
        }
      ],
      "name": "TransactionRelayed",
      "type": "event"
    },
    {
      "anonymous": false,
      "inputs": [
        {
          "indexed": false,
          "internalType": "uint256",
          "name": "newGas",
          "type": "uint256"
        }
      ],
      "name": "gasOverheadUpdated",
      "type": "event"
    },
    {
      "inputs": [],
      "name": "eip712Domain",
      "outputs": [
        {
          "internalType": "bytes1",
          "name": "fields",
          "type": "bytes1"
        },
        {
          "internalType": "string",
          "name": "name",
          "type": "string"
        },
        {
          "internalType": "string",
          "name": "version",
          "type": "string"
        },
        {
          "internalType": "uint256",
          "name": "chainId",
          "type": "uint256"
        },
        {
          "internalType": "address",
          "name": "verifyingContract",
          "type": "address"
        },
        {
          "internalType": "bytes32",
          "name": "salt",
          "type": "bytes32"
        },
        {
          "internalType": "uint256[]",
          "name": "extensions",
          "type": "uint256[]"
        }
      ],
      "stateMutability": "view",
      "type": "function"
    },
    {
      "inputs": [
        {
          "components": [
            {
              "internalType": "address",
              "name": "from",
              "type": "address"
            },
            {
              "internalType": "address",
              "name": "to",
              "type": "address"
            },
            {
              "internalType": "uint256",
              "name": "value",
              "type": "uint256"
            },
            {
              "internalType": "uint256",
              "name": "gas",
              "type": "uint256"
            },
            {
              "internalType": "uint256",
              "name": "nonce",
              "type": "uint256"
            },
            {
              "internalType": "bytes",
              "name": "data",
              "type": "bytes"
            }
          ],
          "internalType": "struct GaslessRelayer.ForwardRequest",
          "name": "req",
          "type": "tuple"
        },
        {
          "internalType": "bytes",
          "name": "signature",
          "type": "bytes"
        }
      ],
      "name": "execute",
      "outputs": [
        {
          "internalType": "bool",
          "name": "success",
          "type": "bool"
        },
        {
          "internalType": "bytes",
          "name": "ret",
          "type": "bytes"
        }
      ],
      "stateMutability": "nonpayable",
      "type": "function"
    },
    {
      "inputs": [],
      "name": "feeToken",
      "outputs": [
        {
          "internalType": "contract IERC20",
          "name": "",
          "type": "address"
        }
      ],
      "stateMutability": "view",
      "type": "function"
    },
    {
      "inputs": [],
      "name": "gasOverhead",
      "outputs": [
        {
          "internalType": "uint256",
          "name": "",
          "type": "uint256"
        }
      ],
      "stateMutability": "view",
      "type": "function"
    },
    {
      "inputs": [],
      "name": "getEthPriceInUSDC",
      "outputs": [
        {
          "internalType": "uint256",
          "name": "",
          "type": "uint256"
        }
      ],
      "stateMutability": "view",
      "type": "function"
    },
    {
      "inputs": [
        {
          "internalType": "address",
          "name": "from",
          "type": "address"
        }
      ],
      "name": "getNonce",
      "outputs": [
        {
          "internalType": "uint256",
          "name": "",
          "type": "uint256"
        }
      ],
      "stateMutability": "view",
      "type": "function"
    },
    {
      "inputs": [
        {
          "internalType": "address",
          "name": "",
          "type": "address"
        }
      ],
      "name": "nonces",
      "outputs": [
        {
          "internalType": "uint256",
          "name": "",
          "type": "uint256"
        }
      ],
      "stateMutability": "view",
      "type": "function"
    },
    {
      "inputs": [],
      "name": "owner",
      "outputs": [
        {
          "internalType": "address",
          "name": "",
          "type": "address"
        }
      ],
      "stateMutability": "view",
      "type": "function"
    },
    {
      "inputs": [],
      "name": "priceFeed",
      "outputs": [
        {
          "internalType": "contract AggregatorV3Interface",
          "name": "",
          "type": "address"
        }
      ],
      "stateMutability": "view",
      "type": "function"
    },
    {
      "inputs": [],
      "name": "renounceOwnership",
      "outputs": [],
      "stateMutability": "nonpayable",
      "type": "function"
    },
    {
      "inputs": [
        {
          "internalType": "uint256",
          "name": "_newGas",
          "type": "uint256"
        }
      ],
      "name": "setFee",
      "outputs": [],
      "stateMutability": "nonpayable",
      "type": "function"
    },
    {
      "inputs": [
        {
          "internalType": "address",
          "name": "_newToken",
          "type": "address"
        }
      ],
      "name": "setFeeToken",
      "outputs": [],
      "stateMutability": "nonpayable",
      "type": "function"
    },
    {
      "inputs": [
        {
          "internalType": "address",
          "name": "newOwner",
          "type": "address"
        }
      ],
      "name": "transferOwnership",
      "outputs": [],
      "stateMutability": "nonpayable",
      "type": "function"
    },
    {
      "inputs": [
        {
          "components": [
            {
              "internalType": "address",
              "name": "from",
              "type": "address"
            },
            {
              "internalType": "address",
              "name": "to",
              "type": "address"
            },
            {
              "internalType": "uint256",
              "name": "value",
              "type": "uint256"
            },
            {
              "internalType": "uint256",
              "name": "gas",
              "type": "uint256"
            },
            {
              "internalType": "uint256",
              "name": "nonce",
              "type": "uint256"
            },
            {
              "internalType": "bytes",
              "name": "data",
              "type": "bytes"
            }
          ],
          "internalType": "struct GaslessRelayer.ForwardRequest",
          "name": "req",
          "type": "tuple"
        },
        {
          "internalType": "bytes",
          "name": "signature",
          "type": "bytes"
        }
      ],
      "name": "verify",
      "outputs": [
        {
          "internalType": "bool",
          "name": "",
          "type": "bool"
        }
      ],
      "stateMutability": "view",
      "type": "function"
    },
    {
      "stateMutability": "payable",
      "type": "receive"
    }
  ],
  "transactionHash": "0x0d0c7f78c3de4eca12787045f1449fca837cd1cdfc31a8d6c3cac0085c2e9d0d",
  "args": [
    "0x1c7D4B196Cb0C7B01d743Fbc6116a902379C7238",
    "100000",
    "0x694AA1769357215DE4FAC081bf1f309aDC325306"
  ],
  "numDeployments": 5,
  "solcInputHash": "9c889e1e1872bff6419f0c8a8ee1698d",
  "bytecode": "0x6101606040523480156200001257600080fd5b50604051620030cd380380620030cd833981810160405281019062000038919062000517565b6040518060400160405280600e81526020017f4761736c65737352656c617965720000000000000000000000000000000000008152506040518060400160405280600181526020017f3100000000000000000000000000000000000000000000000000000000000000815250620000ba6000836200027860201b90919060201c565b6101208181525050620000d86001826200027860201b90919060201c565b6101408181525050818051906020012060e08181525050808051906020012061010081815250504660a0818152505062000117620002d060201b60201c565b608081815250503073ffffffffffffffffffffffffffffffffffffffff1660c08173ffffffffffffffffffffffffffffffffffffffff1681525050505062000174620001686200032d60201b60201c565b6200033560201b60201c565b82600460006101000a81548173ffffffffffffffffffffffffffffffffffffffff021916908373ffffffffffffffffffffffffffffffffffffffff1602179055508160058190555080600360006101000a81548173ffffffffffffffffffffffffffffffffffffffff021916908373ffffffffffffffffffffffffffffffffffffffff1602179055507fa0ca04e9956a42929fa24e6299bb6622c8703ac575c61b33e01fb170100ee6dc836040516200022e919062000584565b60405180910390a17f9852a7b7f7eac6963e003aec15e5884d12962aeac7c818c9de0d4cf02770d49182604051620002679190620005b2565b60405180910390a150505062000af3565b60006020835110156200029e576200029683620003fb60201b60201c565b9050620002ca565b82620002b0836200046860201b60201c565b6000019081620002c191906200083f565b5060ff60001b90505b92915050565b60007f8b73c3c69bb8fe3d512ecc4cf759cc79239f7b179b0ffacaa9a75d522b39400f60e0516101005146306040516020016200031295949392919062000941565b60405160208183030381529060405280519060200120905090565b600033905090565b6000600260009054906101000a900473ffffffffffffffffffffffffffffffffffffffff16905081600260006101000a81548173ffffffffffffffffffffffffffffffffffffffff021916908373ffffffffffffffffffffffffffffffffffffffff1602179055508173ffffffffffffffffffffffffffffffffffffffff168173ffffffffffffffffffffffffffffffffffffffff167f8be0079c531659141344cd1fd0a4f28419497f9722a3daafe3b4186f6b6457e060405160405180910390a35050565b600080829050601f815111156200044b57826040517f305a27a900000000000000000000000000000000000000000000000000000000815260040162000442919062000a2d565b60405180910390fd5b805181620004599062000a83565b60001c1760001b915050919050565b6000819050919050565b600080fd5b600073ffffffffffffffffffffffffffffffffffffffff82169050919050565b6000620004a48262000477565b9050919050565b620004b68162000497565b8114620004c257600080fd5b50565b600081519050620004d681620004ab565b92915050565b6000819050919050565b620004f181620004dc565b8114620004fd57600080fd5b50565b6000815190506200051181620004e6565b92915050565b60008060006060848603121562000533576200053262000472565b5b60006200054386828701620004c5565b9350506020620005568682870162000500565b92505060406200056986828701620004c5565b9150509250925092565b6200057e8162000497565b82525050565b60006020820190506200059b600083018462000573565b92915050565b620005ac81620004dc565b82525050565b6000602082019050620005c96000830184620005a1565b92915050565b600081519050919050565b7f4e487b7100000000000000000000000000000000000000000000000000000000600052604160045260246000fd5b7f4e487b7100000000000000000000000000000000000000000000000000000000600052602260045260246000fd5b600060028204905060018216806200065157607f821691505b60208210810362000667576200066662000609565b5b50919050565b60008190508160005260206000209050919050565b60006020601f8301049050919050565b600082821b905092915050565b600060088302620006d17fffffffffffffffffffffffffffffffffffffffffffffffffffffffffffffffff8262000692565b620006dd868362000692565b95508019841693508086168417925050509392505050565b6000819050919050565b6000620007206200071a6200071484620004dc565b620006f5565b620004dc565b9050919050565b6000819050919050565b6200073c83620006ff565b620007546200074b8262000727565b8484546200069f565b825550505050565b600090565b6200076b6200075c565b6200077881848462000731565b505050565b5b81811015620007a0576200079460008262000761565b6001810190506200077e565b5050565b601f821115620007ef57620007b9816200066d565b620007c48462000682565b81016020851015620007d4578190505b620007ec620007e38562000682565b8301826200077d565b50505b505050565b600082821c905092915050565b60006200081460001984600802620007f4565b1980831691505092915050565b60006200082f838362000801565b9150826002028217905092915050565b6200084a82620005cf565b67ffffffffffffffff811115620008665762000865620005da565b5b62000872825462000638565b6200087f828285620007a4565b600060209050601f831160018114620008b75760008415620008a2578287015190505b620008ae858262000821565b8655506200091e565b601f198416620008c7866200066d565b60005b82811015620008f157848901518255600182019150602085019450602081019050620008ca565b868310156200091157848901516200090d601f89168262000801565b8355505b6001600288020188555050505b505050505050565b6000819050919050565b6200093b8162000926565b82525050565b600060a08201905062000958600083018862000930565b62000967602083018762000930565b62000976604083018662000930565b620009856060830185620005a1565b62000994608083018462000573565b9695505050505050565b600082825260208201905092915050565b60005b83811015620009cf578082015181840152602081019050620009b2565b60008484015250505050565b6000601f19601f8301169050919050565b6000620009f982620005cf565b62000a0581856200099e565b935062000a17818560208601620009af565b62000a2281620009db565b840191505092915050565b6000602082019050818103600083015262000a498184620009ec565b905092915050565b600081519050919050565b6000819050602082019050919050565b600062000a7a825162000926565b80915050919050565b600062000a908262000a51565b8262000a9c8462000a5c565b905062000aa98162000a6c565b9250602082101562000aec5762000ae77fffffffffffffffffffffffffffffffffffffffffffffffffffffffffffffffff8360200360080262000692565b831692505b5050919050565b60805160a05160c05160e05161010051610120516101405161257f62000b4e6000396000610a4601526000610a120152600061144a01526000611429015260006111090152600061115f01526000611188015261257f6000f3fe6080604052600436106100e15760003560e01c80637ecebe001161007f5780638da5cb5b116100595780638da5cb5b146102c0578063bf5d3bdb146102eb578063d4e895cb14610328578063f2fde38b14610353576100e8565b80637ecebe001461022757806383fea4ef1461026457806384b0196e1461028f576100e8565b8063647846a5116100bb578063647846a51461019157806369fe0e2d146101bc578063715018a6146101e5578063741bef1a146101fc576100e8565b806315cce224146100ed5780632d0335ab1461011657806347153f8214610153576100e8565b366100e857005b600080fd5b3480156100f957600080fd5b50610114600480360381019061010f91906115e4565b61037c565b005b34801561012257600080fd5b5061013d600480360381019061013891906115e4565b6103ff565b60405161014a919061162a565b60405180910390f35b34801561015f57600080fd5b5061017a600480360381019061017591906116ce565b610448565b6040516101889291906117f5565b60405180910390f35b34801561019d57600080fd5b506101a6610938565b6040516101b39190611884565b60405180910390f35b3480156101c857600080fd5b506101e360048036038101906101de91906118cb565b61095e565b005b3480156101f157600080fd5b506101fa6109a7565b005b34801561020857600080fd5b506102116109bb565b60405161021e9190611919565b60405180910390f35b34801561023357600080fd5b5061024e600480360381019061024991906115e4565b6109e1565b60405161025b919061162a565b60405180910390f35b34801561027057600080fd5b506102796109f9565b604051610286919061162a565b60405180910390f35b34801561029b57600080fd5b506102a46109ff565b6040516102b79796959493929190611aaa565b60405180910390f35b3480156102cc57600080fd5b506102d5610b01565b6040516102e29190611b2e565b60405180910390f35b3480156102f757600080fd5b50610312600480360381019061030d91906116ce565b610b2b565b60405161031f9190611b49565b60405180910390f35b34801561033457600080fd5b5061033d610ce1565b60405161034a919061162a565b60405180910390f35b34801561035f57600080fd5b5061037a600480360381019061037591906115e4565b610dd1565b005b610384610e54565b80600460006101000a81548173ffffffffffffffffffffffffffffffffffffffff021916908373ffffffffffffffffffffffffffffffffffffffff1602179055507fa0ca04e9956a42929fa24e6299bb6622c8703ac575c61b33e01fb170100ee6dc816040516103f49190611b2e565b60405180910390a150565b6000600660008373ffffffffffffffffffffffffffffffffffffffff1673ffffffffffffffffffffffffffffffffffffffff168152602001908152602001600020549050919050565b60006060610457858585610b2b565b610496576040517f08c379a000000000000000000000000000000000000000000000000000000000815260040161048d90611bb0565b60405180910390fd5b6000600460009054906101000a900473ffffffffffffffffffffffffffffffffffffffff1673ffffffffffffffffffffffffffffffffffffffff166370a082318760000160208101906104e991906115e4565b6040518263ffffffff1660e01b81526004016105059190611b2e565b602060405180830381865afa158015610522573d6000803e3d6000fd5b505050506040513d601f19601f820116820180604052508101906105469190611be5565b90506000600460009054906101000a900473ffffffffffffffffffffffffffffffffffffffff1673ffffffffffffffffffffffffffffffffffffffff1663dd62ed3e88600001602081019061059b91906115e4565b306040518363ffffffff1660e01b81526004016105b9929190611c12565b602060405180830381865afa1580156105d6573d6000803e3d6000fd5b505050506040513d601f19601f820116820180604052508101906105fa9190611be5565b9050600060055488606001356106109190611c6a565b905060003a9050600081836106259190611c9e565b90506000610631610ce1565b90506000670de0b6b3a7640000828461064a9190611c9e565b6106549190611d0f565b90507f64b5c06dd4c8753fb3daa4a219bad5de5eb04d76b76667ff967b94d22a2805718c600001602081019061068a91906115e4565b33838a8a60405161069f959493929190611d40565b60405180910390a1600460009054906101000a900473ffffffffffffffffffffffffffffffffffffffff1673ffffffffffffffffffffffffffffffffffffffff166323b872dd8d60000160208101906106f891906115e4565b33846040518463ffffffff1660e01b815260040161071893929190611d93565b6020604051808303816000875af1158015610737573d6000803e3d6000fd5b505050506040513d601f19601f8201168201806040525081019061075b9190611df6565b61079a576040517f08c379a000000000000000000000000000000000000000000000000000000000815260040161079190611e6f565b60405180910390fd5b600660008d60000160208101906107b191906115e4565b73ffffffffffffffffffffffffffffffffffffffff1673ffffffffffffffffffffffffffffffffffffffff16815260200190815260200160002060008154809291906107fc90611e8f565b91905055508b602001602081019061081491906115e4565b73ffffffffffffffffffffffffffffffffffffffff168c606001358d604001358e8060a001906108449190611ee6565b604051610852929190611f88565b600060405180830381858888f193505050503d8060008114610890576040519150601f19603f3d011682016040523d82523d6000602084013e610895565b606091505b50809950819a5050508b60200160208101906108b191906115e4565b73ffffffffffffffffffffffffffffffffffffffff168c60000160208101906108da91906115e4565b73ffffffffffffffffffffffffffffffffffffffff167ff58c4d9d66b0fb7f8f24128aedb552f542f6684e19cf741a6e776bc591b4e3e28b8b6040516109219291906117f5565b60405180910390a350505050505050935093915050565b600460009054906101000a900473ffffffffffffffffffffffffffffffffffffffff1681565b610966610e54565b806005819055507f9852a7b7f7eac6963e003aec15e5884d12962aeac7c818c9de0d4cf02770d4918160405161099c919061162a565b60405180910390a150565b6109af610e54565b6109b96000610ed2565b565b600360009054906101000a900473ffffffffffffffffffffffffffffffffffffffff1681565b60066020528060005260406000206000915090505481565b60055481565b600060608060008060006060610a3f60007f0000000000000000000000000000000000000000000000000000000000000000610f9890919063ffffffff16565b610a7360017f0000000000000000000000000000000000000000000000000000000000000000610f9890919063ffffffff16565b46306000801b600067ffffffffffffffff811115610a9457610a93611fa1565b5b604051908082528060200260200182016040528015610ac25781602001602082028036833780820191505090505b507f0f00000000000000000000000000000000000000000000000000000000000000959493929190965096509650965096509650965090919293949596565b6000600260009054906101000a900473ffffffffffffffffffffffffffffffffffffffff16905090565b600080610c3484848080601f016020809104026020016040519081016040528093929190818152602001838380828437600081840152601f19601f82011690508083019250505050505050610c267fdd8f4b70b0f4393e889bd39128a30628a78b61816a9eb8199759e7a349657e48886000016020810190610bad91906115e4565b896020016020810190610bc091906115e4565b8a604001358b606001358c608001358d8060a00190610bdf9190611ee6565b604051610bed929190611f88565b6040518091039020604051602001610c0b9796959493929190611fd0565b60405160208183030381529060405280519060200120611048565b61106290919063ffffffff16565b9050846080013560066000876000016020810190610c5291906115e4565b73ffffffffffffffffffffffffffffffffffffffff1673ffffffffffffffffffffffffffffffffffffffff16815260200190815260200160002054148015610cd75750846000016020810190610ca891906115e4565b73ffffffffffffffffffffffffffffffffffffffff168173ffffffffffffffffffffffffffffffffffffffff16145b9150509392505050565b600080600360009054906101000a900473ffffffffffffffffffffffffffffffffffffffff1673ffffffffffffffffffffffffffffffffffffffff1663feaf968c6040518163ffffffff1660e01b815260040160a060405180830381865afa158015610d51573d6000803e3d6000fd5b505050506040513d601f19601f82011682018060405250810190610d7591906120b7565b50505091505060008113610dbe576040517f08c379a0000000000000000000000000000000000000000000000000000000008152600401610db59061217e565b60405180910390fd5b606481610dcb9190611d0f565b91505090565b610dd9610e54565b600073ffffffffffffffffffffffffffffffffffffffff168173ffffffffffffffffffffffffffffffffffffffff1603610e48576040517f08c379a0000000000000000000000000000000000000000000000000000000008152600401610e3f90612210565b60405180910390fd5b610e5181610ed2565b50565b610e5c611089565b73ffffffffffffffffffffffffffffffffffffffff16610e7a610b01565b73ffffffffffffffffffffffffffffffffffffffff1614610ed0576040517f08c379a0000000000000000000000000000000000000000000000000000000008152600401610ec79061227c565b60405180910390fd5b565b6000600260009054906101000a900473ffffffffffffffffffffffffffffffffffffffff16905081600260006101000a81548173ffffffffffffffffffffffffffffffffffffffff021916908373ffffffffffffffffffffffffffffffffffffffff1602179055508173ffffffffffffffffffffffffffffffffffffffff168173ffffffffffffffffffffffffffffffffffffffff167f8be0079c531659141344cd1fd0a4f28419497f9722a3daafe3b4186f6b6457e060405160405180910390a35050565b606060ff60001b8314610fb557610fae83611091565b9050611042565b818054610fc1906122cb565b80601f0160208091040260200160405190810160405280929190818152602001828054610fed906122cb565b801561103a5780601f1061100f5761010080835404028352916020019161103a565b820191906000526020600020905b81548152906001019060200180831161101d57829003601f168201915b505050505090505b92915050565b600061105b611055611105565b836111bc565b9050919050565b600080600061107185856111fd565b9150915061107e8161124e565b819250505092915050565b600033905090565b6060600061109e836113b4565b90506000602067ffffffffffffffff8111156110bd576110bc611fa1565b5b6040519080825280601f01601f1916602001820160405280156110ef5781602001600182028036833780820191505090505b5090508181528360208201528092505050919050565b60007f000000000000000000000000000000000000000000000000000000000000000073ffffffffffffffffffffffffffffffffffffffff163073ffffffffffffffffffffffffffffffffffffffff1614801561118157507f000000000000000000000000000000000000000000000000000000000000000046145b156111ae577f000000000000000000000000000000000000000000000000000000000000000090506111b9565b6111b6611404565b90505b90565b60006040517f190100000000000000000000000000000000000000000000000000000000000081528360028201528260228201526042812091505092915050565b600080604183510361123e5760008060006020860151925060408601519150606086015160001a90506112328782858561149a565b94509450505050611247565b60006002915091505b9250929050565b60006004811115611262576112616122fc565b5b816004811115611275576112746122fc565b5b03156113b1576001600481111561128f5761128e6122fc565b5b8160048111156112a2576112a16122fc565b5b036112e2576040517f08c379a00000000000000000000000000000000000000000000000000000000081526004016112d990612377565b60405180910390fd5b600260048111156112f6576112f56122fc565b5b816004811115611309576113086122fc565b5b03611349576040517f08c379a0000000000000000000000000000000000000000000000000000000008152600401611340906123e3565b60405180910390fd5b6003600481111561135d5761135c6122fc565b5b8160048111156113705761136f6122fc565b5b036113b0576040517f08c379a00000000000000000000000000000000000000000000000000000000081526004016113a790612475565b60405180910390fd5b5b50565b60008060ff8360001c169050601f8111156113fb576040517fb3512b0c00000000000000000000000000000000000000000000000000000000815260040160405180910390fd5b80915050919050565b60007f8b73c3c69bb8fe3d512ecc4cf759cc79239f7b179b0ffacaa9a75d522b39400f7f00000000000000000000000000000000000000000000000000000000000000007f0000000000000000000000000000000000000000000000000000000000000000463060405160200161147f959493929190612495565b60405160208183030381529060405280519060200120905090565b6000807f7fffffffffffffffffffffffffffffff5d576e7357a4501ddfe92f46681b20a08360001c11156114d5576000600391509150611573565b6000600187878787604051600081526020016040526040516114fa9493929190612504565b6020604051602081039080840390855afa15801561151c573d6000803e3d6000fd5b505050602060405103519050600073ffffffffffffffffffffffffffffffffffffffff168173ffffffffffffffffffffffffffffffffffffffff160361156a57600060019250925050611573565b80600092509250505b94509492505050565b600080fd5b600080fd5b600073ffffffffffffffffffffffffffffffffffffffff82169050919050565b60006115b182611586565b9050919050565b6115c1816115a6565b81146115cc57600080fd5b50565b6000813590506115de816115b8565b92915050565b6000602082840312156115fa576115f961157c565b5b6000611608848285016115cf565b91505092915050565b6000819050919050565b61162481611611565b82525050565b600060208201905061163f600083018461161b565b92915050565b600080fd5b600060c082840312156116605761165f611645565b5b81905092915050565b600080fd5b600080fd5b600080fd5b60008083601f84011261168e5761168d611669565b5b8235905067ffffffffffffffff8111156116ab576116aa61166e565b5b6020830191508360018202830111156116c7576116c6611673565b5b9250929050565b6000806000604084860312156116e7576116e661157c565b5b600084013567ffffffffffffffff81111561170557611704611581565b5b6117118682870161164a565b935050602084013567ffffffffffffffff81111561173257611731611581565b5b61173e86828701611678565b92509250509250925092565b60008115159050919050565b61175f8161174a565b82525050565b600081519050919050565b600082825260208201905092915050565b60005b8381101561179f578082015181840152602081019050611784565b60008484015250505050565b6000601f19601f8301169050919050565b60006117c782611765565b6117d18185611770565b93506117e1818560208601611781565b6117ea816117ab565b840191505092915050565b600060408201905061180a6000830185611756565b818103602083015261181c81846117bc565b90509392505050565b6000819050919050565b600061184a61184561184084611586565b611825565b611586565b9050919050565b600061185c8261182f565b9050919050565b600061186e82611851565b9050919050565b61187e81611863565b82525050565b60006020820190506118996000830184611875565b92915050565b6118a881611611565b81146118b357600080fd5b50565b6000813590506118c58161189f565b92915050565b6000602082840312156118e1576118e061157c565b5b60006118ef848285016118b6565b91505092915050565b600061190382611851565b9050919050565b611913816118f8565b82525050565b600060208201905061192e600083018461190a565b92915050565b60007fff0000000000000000000000000000000000000000000000000000000000000082169050919050565b61196981611934565b82525050565b600081519050919050565b600082825260208201905092915050565b60006119968261196f565b6119a0818561197a565b93506119b0818560208601611781565b6119b9816117ab565b840191505092915050565b6119cd816115a6565b82525050565b6000819050919050565b6119e6816119d3565b82525050565b600081519050919050565b600082825260208201905092915050565b6000819050602082019050919050565b611a2181611611565b82525050565b6000611a338383611a18565b60208301905092915050565b6000602082019050919050565b6000611a57826119ec565b611a6181856119f7565b9350611a6c83611a08565b8060005b83811015611a9d578151611a848882611a27565b9750611a8f83611a3f565b925050600181019050611a70565b5085935050505092915050565b600060e082019050611abf600083018a611960565b8181036020830152611ad1818961198b565b90508181036040830152611ae5818861198b565b9050611af4606083018761161b565b611b0160808301866119c4565b611b0e60a08301856119dd565b81810360c0830152611b208184611a4c565b905098975050505050505050565b6000602082019050611b4360008301846119c4565b92915050565b6000602082019050611b5e6000830184611756565b92915050565b7f496e76616c6964207369676e6174757265000000000000000000000000000000600082015250565b6000611b9a60118361197a565b9150611ba582611b64565b602082019050919050565b60006020820190508181036000830152611bc981611b8d565b9050919050565b600081519050611bdf8161189f565b92915050565b600060208284031215611bfb57611bfa61157c565b5b6000611c0984828501611bd0565b91505092915050565b6000604082019050611c2760008301856119c4565b611c3460208301846119c4565b9392505050565b7f4e487b7100000000000000000000000000000000000000000000000000000000600052601160045260246000fd5b6000611c7582611611565b9150611c8083611611565b9250828201905080821115611c9857611c97611c3b565b5b92915050565b6000611ca982611611565b9150611cb483611611565b9250828202611cc281611611565b91508282048414831517611cd957611cd8611c3b565b5b5092915050565b7f4e487b7100000000000000000000000000000000000000000000000000000000600052601260045260246000fd5b6000611d1a82611611565b9150611d2583611611565b925082611d3557611d34611ce0565b5b828204905092915050565b600060a082019050611d5560008301886119c4565b611d6260208301876119c4565b611d6f604083018661161b565b611d7c606083018561161b565b611d89608083018461161b565b9695505050505050565b6000606082019050611da860008301866119c4565b611db560208301856119c4565b611dc2604083018461161b565b949350505050565b611dd38161174a565b8114611dde57600080fd5b50565b600081519050611df081611dca565b92915050565b600060208284031215611e0c57611e0b61157c565b5b6000611e1a84828501611de1565b91505092915050565b7f466565207472616e73666572206661696c656400000000000000000000000000600082015250565b6000611e5960138361197a565b9150611e6482611e23565b602082019050919050565b60006020820190508181036000830152611e8881611e4c565b9050919050565b6000611e9a82611611565b91507fffffffffffffffffffffffffffffffffffffffffffffffffffffffffffffffff8203611ecc57611ecb611c3b565b5b600182019050919050565b600080fd5b600080fd5b600080fd5b60008083356001602003843603038112611f0357611f02611ed7565b5b80840192508235915067ffffffffffffffff821115611f2557611f24611edc565b5b602083019250600182023603831315611f4157611f40611ee1565b5b509250929050565b600081905092915050565b82818337600083830152505050565b6000611f6f8385611f49565b9350611f7c838584611f54565b82840190509392505050565b6000611f95828486611f63565b91508190509392505050565b7f4e487b7100000000000000000000000000000000000000000000000000000000600052604160045260246000fd5b600060e082019050611fe5600083018a6119dd565b611ff260208301896119c4565b611fff60408301886119c4565b61200c606083018761161b565b612019608083018661161b565b61202660a083018561161b565b61203360c08301846119dd565b98975050505050505050565b600069ffffffffffffffffffff82169050919050565b61205e8161203f565b811461206957600080fd5b50565b60008151905061207b81612055565b92915050565b6000819050919050565b61209481612081565b811461209f57600080fd5b50565b6000815190506120b18161208b565b92915050565b600080600080600060a086880312156120d3576120d261157c565b5b60006120e18882890161206c565b95505060206120f2888289016120a2565b945050604061210388828901611bd0565b935050606061211488828901611bd0565b92505060806121258882890161206c565b9150509295509295909350565b7f496e76616c696420707269636520666565640000000000000000000000000000600082015250565b600061216860128361197a565b915061217382612132565b602082019050919050565b600060208201905081810360008301526121978161215b565b9050919050565b7f4f776e61626c653a206e6577206f776e657220697320746865207a65726f206160008201527f6464726573730000000000000000000000000000000000000000000000000000602082015250565b60006121fa60268361197a565b91506122058261219e565b604082019050919050565b60006020820190508181036000830152612229816121ed565b9050919050565b7f4f776e61626c653a2063616c6c6572206973206e6f7420746865206f776e6572600082015250565b600061226660208361197a565b915061227182612230565b602082019050919050565b6000602082019050818103600083015261229581612259565b9050919050565b7f4e487b7100000000000000000000000000000000000000000000000000000000600052602260045260246000fd5b600060028204905060018216806122e357607f821691505b6020821081036122f6576122f561229c565b5b50919050565b7f4e487b7100000000000000000000000000000000000000000000000000000000600052602160045260246000fd5b7f45434453413a20696e76616c6964207369676e61747572650000000000000000600082015250565b600061236160188361197a565b915061236c8261232b565b602082019050919050565b6000602082019050818103600083015261239081612354565b9050919050565b7f45434453413a20696e76616c6964207369676e6174757265206c656e67746800600082015250565b60006123cd601f8361197a565b91506123d882612397565b602082019050919050565b600060208201905081810360008301526123fc816123c0565b9050919050565b7f45434453413a20696e76616c6964207369676e6174757265202773272076616c60008201527f7565000000000000000000000000000000000000000000000000000000000000602082015250565b600061245f60228361197a565b915061246a82612403565b604082019050919050565b6000602082019050818103600083015261248e81612452565b9050919050565b600060a0820190506124aa60008301886119dd565b6124b760208301876119dd565b6124c460408301866119dd565b6124d1606083018561161b565b6124de60808301846119c4565b9695505050505050565b600060ff82169050919050565b6124fe816124e8565b82525050565b600060808201905061251960008301876119dd565b61252660208301866124f5565b61253360408301856119dd565b61254060608301846119dd565b9594505050505056fea2646970667358221220ac69faf4ba41323cce2143ac87ebcea0cecf4be258aa1d79d7317e9a7825648564736f6c63430008140033",
  "devdoc": {
    "events": {
      "EIP712DomainChanged()": {
        "details": "MAY be emitted to signal that the domain could have changed."
      }
    },
    "kind": "dev",
    "methods": {
      "eip712Domain()": {
        "details": "See {EIP-5267}. _Available since v4.9._"
      },
      "owner()": {
        "details": "Returns the address of the current owner."
      },
      "renounceOwnership()": {
        "details": "Leaves the contract without owner. It will not be possible to call `onlyOwner` functions. Can only be called by the current owner. NOTE: Renouncing ownership will leave the contract without an owner, thereby disabling any functionality that is only available to the owner."
      },
      "transferOwnership(address)": {
        "details": "Transfers ownership of the contract to a new account (`newOwner`). Can only be called by the current owner."
      }
    },
    "version": 1
  },
  "userdoc": {
    "kind": "user",
    "methods": {},
    "version": 1
  },
  "storageLayout": {
    "storage": [
      {
        "astId": 1245,
        "contract": "contracts/gaslessRelayer.sol:GaslessRelayer",
        "label": "_nameFallback",
        "offset": 0,
        "slot": "0",
        "type": "t_string_storage"
      },
      {
        "astId": 1247,
        "contract": "contracts/gaslessRelayer.sol:GaslessRelayer",
        "label": "_versionFallback",
        "offset": 0,
        "slot": "1",
        "type": "t_string_storage"
      },
      {
        "astId": 53,
        "contract": "contracts/gaslessRelayer.sol:GaslessRelayer",
        "label": "_owner",
        "offset": 0,
        "slot": "2",
        "type": "t_address"
      },
      {
        "astId": 2404,
        "contract": "contracts/gaslessRelayer.sol:GaslessRelayer",
        "label": "priceFeed",
        "offset": 0,
        "slot": "3",
        "type": "t_contract(AggregatorV3Interface)45"
      },
      {
        "astId": 2407,
        "contract": "contracts/gaslessRelayer.sol:GaslessRelayer",
        "label": "feeToken",
        "offset": 0,
        "slot": "4",
        "type": "t_contract(IERC20)261"
      },
      {
        "astId": 2409,
        "contract": "contracts/gaslessRelayer.sol:GaslessRelayer",
        "label": "gasOverhead",
        "offset": 0,
        "slot": "5",
        "type": "t_uint256"
      },
      {
        "astId": 2413,
        "contract": "contracts/gaslessRelayer.sol:GaslessRelayer",
        "label": "nonces",
        "offset": 0,
        "slot": "6",
        "type": "t_mapping(t_address,t_uint256)"
      }
    ],
    "types": {
      "t_address": {
        "encoding": "inplace",
        "label": "address",
        "numberOfBytes": "20"
      },
      "t_contract(AggregatorV3Interface)45": {
        "encoding": "inplace",
        "label": "contract AggregatorV3Interface",
        "numberOfBytes": "20"
      },
      "t_contract(IERC20)261": {
        "encoding": "inplace",
        "label": "contract IERC20",
        "numberOfBytes": "20"
      },
      "t_mapping(t_address,t_uint256)": {
        "encoding": "mapping",
        "key": "t_address",
        "label": "mapping(address => uint256)",
        "numberOfBytes": "32",
        "value": "t_uint256"
      },
      "t_string_storage": {
        "encoding": "bytes",
        "label": "string",
        "numberOfBytes": "32"
      },
      "t_uint256": {
        "encoding": "inplace",
        "label": "uint256",
        "numberOfBytes": "32"
      }
    }
  }
}