{
  "address": "0xb629FE2581472D8B65A2C590511E5670D7299435",
  "abi": [
    {
      "inputs": [
        {
          "internalType": "address",
          "name": "_feeToken",
          "type": "address"
        },
        {
          "internalType": "uint256",
          "name": "_initialFee",
          "type": "uint256"
        }
      ],
      "stateMutability": "nonpayable",
      "type": "constructor"
    },
    {
      "inputs": [],
      "name": "InvalidShortString",
      "type": "error"
    },
    {
      "inputs": [
        {
          "internalType": "string",
          "name": "str",
          "type": "string"
        }
      ],
      "name": "StringTooLong",
      "type": "error"
    },
    {
      "anonymous": false,
      "inputs": [
        {
          "indexed": false,
          "internalType": "address",
          "name": "from",
          "type": "address"
        },
        {
          "indexed": false,
          "internalType": "address",
          "name": "relayer",
          "type": "address"
        },
        {
          "indexed": false,
          "internalType": "uint256",
          "name": "fee",
          "type": "uint256"
        },
        {
          "indexed": false,
          "internalType": "uint256",
          "name": "balance",
          "type": "uint256"
        },
        {
          "indexed": false,
          "internalType": "uint256",
          "name": "allowance",
          "type": "uint256"
        }
      ],
      "name": "DebugInfo",
      "type": "event"
    },
    {
      "anonymous": false,
      "inputs": [],
      "name": "EIP712DomainChanged",
      "type": "event"
    },
    {
      "anonymous": false,
      "inputs": [
        {
          "indexed": false,
          "internalType": "address",
          "name": "newToken",
          "type": "address"
        }
      ],
      "name": "FeeTokenUpdated",
      "type": "event"
    },
    {
      "anonymous": false,
      "inputs": [
        {
          "indexed": false,
          "internalType": "uint256",
          "name": "newFee",
          "type": "uint256"
        }
      ],
      "name": "FeeUpdated",
      "type": "event"
    },
    {
      "anonymous": false,
      "inputs": [
        {
          "indexed": true,
          "internalType": "address",
          "name": "previousOwner",
          "type": "address"
        },
        {
          "indexed": true,
          "internalType": "address",
          "name": "newOwner",
          "type": "address"
        }
      ],
      "name": "OwnershipTransferred",
      "type": "event"
    },
    {
      "anonymous": false,
      "inputs": [
        {
          "indexed": true,
          "internalType": "address",
          "name": "from",
          "type": "address"
        },
        {
          "indexed": true,
          "internalType": "address",
          "name": "to",
          "type": "address"
        },
        {
          "indexed": false,
          "internalType": "bool",
          "name": "success",
          "type": "bool"
        },
        {
          "indexed": false,
          "internalType": "bytes",
          "name": "returnData",
          "type": "bytes"
        }
      ],
      "name": "TransactionRelayed",
      "type": "event"
    },
    {
      "inputs": [],
      "name": "eip712Domain",
      "outputs": [
        {
          "internalType": "bytes1",
          "name": "fields",
          "type": "bytes1"
        },
        {
          "internalType": "string",
          "name": "name",
          "type": "string"
        },
        {
          "internalType": "string",
          "name": "version",
          "type": "string"
        },
        {
          "internalType": "uint256",
          "name": "chainId",
          "type": "uint256"
        },
        {
          "internalType": "address",
          "name": "verifyingContract",
          "type": "address"
        },
        {
          "internalType": "bytes32",
          "name": "salt",
          "type": "bytes32"
        },
        {
          "internalType": "uint256[]",
          "name": "extensions",
          "type": "uint256[]"
        }
      ],
      "stateMutability": "view",
      "type": "function"
    },
    {
      "inputs": [
        {
          "components": [
            {
              "internalType": "address",
              "name": "from",
              "type": "address"
            },
            {
              "internalType": "address",
              "name": "to",
              "type": "address"
            },
            {
              "internalType": "uint256",
              "name": "value",
              "type": "uint256"
            },
            {
              "internalType": "uint256",
              "name": "gas",
              "type": "uint256"
            },
            {
              "internalType": "uint256",
              "name": "nonce",
              "type": "uint256"
            },
            {
              "internalType": "bytes",
              "name": "data",
              "type": "bytes"
            }
          ],
          "internalType": "struct GaslessRelayer.ForwardRequest",
          "name": "req",
          "type": "tuple"
        },
        {
          "internalType": "bytes",
          "name": "signature",
          "type": "bytes"
        }
      ],
      "name": "execute",
      "outputs": [
        {
          "internalType": "bool",
          "name": "success",
          "type": "bool"
        },
        {
          "internalType": "bytes",
          "name": "ret",
          "type": "bytes"
        }
      ],
      "stateMutability": "nonpayable",
      "type": "function"
    },
    {
      "inputs": [],
      "name": "feeToken",
      "outputs": [
        {
          "internalType": "contract IERC20",
          "name": "",
          "type": "address"
        }
      ],
      "stateMutability": "view",
      "type": "function"
    },
    {
      "inputs": [
        {
          "internalType": "address",
          "name": "from",
          "type": "address"
        }
      ],
      "name": "getNonce",
      "outputs": [
        {
          "internalType": "uint256",
          "name": "",
          "type": "uint256"
        }
      ],
      "stateMutability": "view",
      "type": "function"
    },
    {
      "inputs": [
        {
          "internalType": "address",
          "name": "",
          "type": "address"
        }
      ],
      "name": "nonces",
      "outputs": [
        {
          "internalType": "uint256",
          "name": "",
          "type": "uint256"
        }
      ],
      "stateMutability": "view",
      "type": "function"
    },
    {
      "inputs": [],
      "name": "owner",
      "outputs": [
        {
          "internalType": "address",
          "name": "",
          "type": "address"
        }
      ],
      "stateMutability": "view",
      "type": "function"
    },
    {
      "inputs": [],
      "name": "relayerFee",
      "outputs": [
        {
          "internalType": "uint256",
          "name": "",
          "type": "uint256"
        }
      ],
      "stateMutability": "view",
      "type": "function"
    },
    {
      "inputs": [],
      "name": "renounceOwnership",
      "outputs": [],
      "stateMutability": "nonpayable",
      "type": "function"
    },
    {
      "inputs": [
        {
          "internalType": "uint256",
          "name": "_newFee",
          "type": "uint256"
        }
      ],
      "name": "setFee",
      "outputs": [],
      "stateMutability": "nonpayable",
      "type": "function"
    },
    {
      "inputs": [
        {
          "internalType": "address",
          "name": "_newToken",
          "type": "address"
        }
      ],
      "name": "setFeeToken",
      "outputs": [],
      "stateMutability": "nonpayable",
      "type": "function"
    },
    {
      "inputs": [
        {
          "internalType": "address",
          "name": "newOwner",
          "type": "address"
        }
      ],
      "name": "transferOwnership",
      "outputs": [],
      "stateMutability": "nonpayable",
      "type": "function"
    },
    {
      "inputs": [
        {
          "components": [
            {
              "internalType": "address",
              "name": "from",
              "type": "address"
            },
            {
              "internalType": "address",
              "name": "to",
              "type": "address"
            },
            {
              "internalType": "uint256",
              "name": "value",
              "type": "uint256"
            },
            {
              "internalType": "uint256",
              "name": "gas",
              "type": "uint256"
            },
            {
              "internalType": "uint256",
              "name": "nonce",
              "type": "uint256"
            },
            {
              "internalType": "bytes",
              "name": "data",
              "type": "bytes"
            }
          ],
          "internalType": "struct GaslessRelayer.ForwardRequest",
          "name": "req",
          "type": "tuple"
        },
        {
          "internalType": "bytes",
          "name": "signature",
          "type": "bytes"
        }
      ],
      "name": "verify",
      "outputs": [
        {
          "internalType": "bool",
          "name": "",
          "type": "bool"
        }
      ],
      "stateMutability": "view",
      "type": "function"
    },
    {
      "stateMutability": "payable",
      "type": "receive"
    }
  ],
  "transactionHash": "0x53d41bfcf02fa0e3be0e81640e1dbe745dad9a25eb9ba5438d7172648b856a22",
  "args": [
    "0x1c7D4B196Cb0C7B01d743Fbc6116a902379C7238",
    "100000"
  ],
  "numDeployments": 3,
  "solcInputHash": "edfe363d1bf85c2a850572a5cd78728c",
  "bytecode": "0x6101606040523480156200001257600080fd5b5060405162002c0838038062002c088339818101604052810190620000389190620004d5565b6040518060400160405280600e81526020017f4761736c65737352656c617965720000000000000000000000000000000000008152506040518060400160405280600181526020017f3100000000000000000000000000000000000000000000000000000000000000815250620000ba6000836200023660201b90919060201c565b6101208181525050620000d86001826200023660201b90919060201c565b6101408181525050818051906020012060e08181525050808051906020012061010081815250504660a08181525050620001176200028e60201b60201c565b608081815250503073ffffffffffffffffffffffffffffffffffffffff1660c08173ffffffffffffffffffffffffffffffffffffffff168152505050506200017462000168620002eb60201b60201c565b620002f360201b60201c565b81600360006101000a81548173ffffffffffffffffffffffffffffffffffffffff021916908373ffffffffffffffffffffffffffffffffffffffff160217905550806004819055507fa0ca04e9956a42929fa24e6299bb6622c8703ac575c61b33e01fb170100ee6dc82604051620001ed91906200052d565b60405180910390a17f8c4d35e54a3f2ef1134138fd8ea3daee6a3c89e10d2665996babdf70261e2c76816040516200022691906200055b565b60405180910390a1505062000a9c565b60006020835110156200025c576200025483620003b960201b60201c565b905062000288565b826200026e836200042660201b60201c565b60000190816200027f9190620007e8565b5060ff60001b90505b92915050565b60007f8b73c3c69bb8fe3d512ecc4cf759cc79239f7b179b0ffacaa9a75d522b39400f60e051610100514630604051602001620002d0959493929190620008ea565b60405160208183030381529060405280519060200120905090565b600033905090565b6000600260009054906101000a900473ffffffffffffffffffffffffffffffffffffffff16905081600260006101000a81548173ffffffffffffffffffffffffffffffffffffffff021916908373ffffffffffffffffffffffffffffffffffffffff1602179055508173ffffffffffffffffffffffffffffffffffffffff168173ffffffffffffffffffffffffffffffffffffffff167f8be0079c531659141344cd1fd0a4f28419497f9722a3daafe3b4186f6b6457e060405160405180910390a35050565b600080829050601f815111156200040957826040517f305a27a9000000000000000000000000000000000000000000000000000000008152600401620004009190620009d6565b60405180910390fd5b805181620004179062000a2c565b60001c1760001b915050919050565b6000819050919050565b600080fd5b600073ffffffffffffffffffffffffffffffffffffffff82169050919050565b6000620004628262000435565b9050919050565b620004748162000455565b81146200048057600080fd5b50565b600081519050620004948162000469565b92915050565b6000819050919050565b620004af816200049a565b8114620004bb57600080fd5b50565b600081519050620004cf81620004a4565b92915050565b60008060408385031215620004ef57620004ee62000430565b5b6000620004ff8582860162000483565b92505060206200051285828601620004be565b9150509250929050565b620005278162000455565b82525050565b60006020820190506200054460008301846200051c565b92915050565b62000555816200049a565b82525050565b60006020820190506200057260008301846200054a565b92915050565b600081519050919050565b7f4e487b7100000000000000000000000000000000000000000000000000000000600052604160045260246000fd5b7f4e487b7100000000000000000000000000000000000000000000000000000000600052602260045260246000fd5b60006002820490506001821680620005fa57607f821691505b60208210810362000610576200060f620005b2565b5b50919050565b60008190508160005260206000209050919050565b60006020601f8301049050919050565b600082821b905092915050565b6000600883026200067a7fffffffffffffffffffffffffffffffffffffffffffffffffffffffffffffffff826200063b565b6200068686836200063b565b95508019841693508086168417925050509392505050565b6000819050919050565b6000620006c9620006c3620006bd846200049a565b6200069e565b6200049a565b9050919050565b6000819050919050565b620006e583620006a8565b620006fd620006f482620006d0565b84845462000648565b825550505050565b600090565b6200071462000705565b62000721818484620006da565b505050565b5b8181101562000749576200073d6000826200070a565b60018101905062000727565b5050565b601f8211156200079857620007628162000616565b6200076d846200062b565b810160208510156200077d578190505b620007956200078c856200062b565b83018262000726565b50505b505050565b600082821c905092915050565b6000620007bd600019846008026200079d565b1980831691505092915050565b6000620007d88383620007aa565b9150826002028217905092915050565b620007f38262000578565b67ffffffffffffffff8111156200080f576200080e62000583565b5b6200081b8254620005e1565b620008288282856200074d565b600060209050601f8311600181146200086057600084156200084b578287015190505b620008578582620007ca565b865550620008c7565b601f198416620008708662000616565b60005b828110156200089a5784890151825560018201915060208501945060208101905062000873565b86831015620008ba5784890151620008b6601f891682620007aa565b8355505b6001600288020188555050505b505050505050565b6000819050919050565b620008e481620008cf565b82525050565b600060a082019050620009016000830188620008d9565b620009106020830187620008d9565b6200091f6040830186620008d9565b6200092e60608301856200054a565b6200093d60808301846200051c565b9695505050505050565b600082825260208201905092915050565b60005b83811015620009785780820151818401526020810190506200095b565b60008484015250505050565b6000601f19601f8301169050919050565b6000620009a28262000578565b620009ae818562000947565b9350620009c081856020860162000958565b620009cb8162000984565b840191505092915050565b60006020820190508181036000830152620009f2818462000995565b905092915050565b600081519050919050565b6000819050602082019050919050565b600062000a238251620008cf565b80915050919050565b600062000a3982620009fa565b8262000a458462000a05565b905062000a528162000a15565b9250602082101562000a955762000a907fffffffffffffffffffffffffffffffffffffffffffffffffffffffffffffffff836020036008026200063b565b831692505b5050919050565b60805160a05160c05160e05161010051610120516101405161211162000af76000396000610939015260006109050152600061124d0152600061122c01526000610f0c01526000610f6201526000610f8b01526121116000f3fe6080604052600436106100ab5760003560e01c8063715018a611610064578063715018a6146101da5780637ecebe00146101f157806384b0196e1461022e5780638da5cb5b1461025f578063bf5d3bdb1461028a578063f2fde38b146102c7576100b2565b806315cce224146100b75780632d0335ab146100e05780632fdeb1111461011d57806347153f8214610148578063647846a51461018657806369fe0e2d146101b1576100b2565b366100b257005b600080fd5b3480156100c357600080fd5b506100de60048036038101906100d991906113e7565b6102f0565b005b3480156100ec57600080fd5b50610107600480360381019061010291906113e7565b610373565b604051610114919061142d565b60405180910390f35b34801561012957600080fd5b506101326103bc565b60405161013f919061142d565b60405180910390f35b34801561015457600080fd5b5061016f600480360381019061016a91906114d1565b6103c2565b60405161017d9291906115f8565b60405180910390f35b34801561019257600080fd5b5061019b610857565b6040516101a89190611687565b60405180910390f35b3480156101bd57600080fd5b506101d860048036038101906101d391906116ce565b61087d565b005b3480156101e657600080fd5b506101ef6108c6565b005b3480156101fd57600080fd5b50610218600480360381019061021391906113e7565b6108da565b604051610225919061142d565b60405180910390f35b34801561023a57600080fd5b506102436108f2565b6040516102569796959493929190611871565b60405180910390f35b34801561026b57600080fd5b506102746109f4565b60405161028191906118f5565b60405180910390f35b34801561029657600080fd5b506102b160048036038101906102ac91906114d1565b610a1e565b6040516102be9190611910565b60405180910390f35b3480156102d357600080fd5b506102ee60048036038101906102e991906113e7565b610bd4565b005b6102f8610c57565b80600360006101000a81548173ffffffffffffffffffffffffffffffffffffffff021916908373ffffffffffffffffffffffffffffffffffffffff1602179055507fa0ca04e9956a42929fa24e6299bb6622c8703ac575c61b33e01fb170100ee6dc8160405161036891906118f5565b60405180910390a150565b6000600560008373ffffffffffffffffffffffffffffffffffffffff1673ffffffffffffffffffffffffffffffffffffffff168152602001908152602001600020549050919050565b60045481565b600060606103d1858585610a1e565b610410576040517f08c379a000000000000000000000000000000000000000000000000000000000815260040161040790611977565b60405180910390fd5b6000600360009054906101000a900473ffffffffffffffffffffffffffffffffffffffff1673ffffffffffffffffffffffffffffffffffffffff166370a0823187600001602081019061046391906113e7565b6040518263ffffffff1660e01b815260040161047f91906118f5565b602060405180830381865afa15801561049c573d6000803e3d6000fd5b505050506040513d601f19601f820116820180604052508101906104c091906119ac565b90506000600360009054906101000a900473ffffffffffffffffffffffffffffffffffffffff1673ffffffffffffffffffffffffffffffffffffffff1663dd62ed3e88600001602081019061051591906113e7565b306040518363ffffffff1660e01b81526004016105339291906119d9565b602060405180830381865afa158015610550573d6000803e3d6000fd5b505050506040513d601f19601f8201168201806040525081019061057491906119ac565b90507f64b5c06dd4c8753fb3daa4a219bad5de5eb04d76b76667ff967b94d22a2805718760000160208101906105aa91906113e7565b3360045485856040516105c1959493929190611a02565b60405180910390a1600360009054906101000a900473ffffffffffffffffffffffffffffffffffffffff1673ffffffffffffffffffffffffffffffffffffffff166323b872dd88600001602081019061061a91906113e7565b336004546040518463ffffffff1660e01b815260040161063c93929190611a55565b6020604051808303816000875af115801561065b573d6000803e3d6000fd5b505050506040513d601f19601f8201168201806040525081019061067f9190611ab8565b6106be576040517f08c379a00000000000000000000000000000000000000000000000000000000081526004016106b590611b31565b60405180910390fd5b600560008860000160208101906106d591906113e7565b73ffffffffffffffffffffffffffffffffffffffff1673ffffffffffffffffffffffffffffffffffffffff168152602001908152602001600020600081548092919061072090611b80565b919050555086602001602081019061073891906113e7565b73ffffffffffffffffffffffffffffffffffffffff1687606001358860400135898060a001906107689190611bd7565b604051610776929190611c79565b600060405180830381858888f193505050503d80600081146107b4576040519150601f19603f3d011682016040523d82523d6000602084013e6107b9565b606091505b5080945081955050508660200160208101906107d591906113e7565b73ffffffffffffffffffffffffffffffffffffffff168760000160208101906107fe91906113e7565b73ffffffffffffffffffffffffffffffffffffffff167ff58c4d9d66b0fb7f8f24128aedb552f542f6684e19cf741a6e776bc591b4e3e286866040516108459291906115f8565b60405180910390a35050935093915050565b600360009054906101000a900473ffffffffffffffffffffffffffffffffffffffff1681565b610885610c57565b806004819055507f8c4d35e54a3f2ef1134138fd8ea3daee6a3c89e10d2665996babdf70261e2c76816040516108bb919061142d565b60405180910390a150565b6108ce610c57565b6108d86000610cd5565b565b60056020528060005260406000206000915090505481565b60006060806000806000606061093260007f0000000000000000000000000000000000000000000000000000000000000000610d9b90919063ffffffff16565b61096660017f0000000000000000000000000000000000000000000000000000000000000000610d9b90919063ffffffff16565b46306000801b600067ffffffffffffffff81111561098757610986611c92565b5b6040519080825280602002602001820160405280156109b55781602001602082028036833780820191505090505b507f0f00000000000000000000000000000000000000000000000000000000000000959493929190965096509650965096509650965090919293949596565b6000600260009054906101000a900473ffffffffffffffffffffffffffffffffffffffff16905090565b600080610b2784848080601f016020809104026020016040519081016040528093929190818152602001838380828437600081840152601f19601f82011690508083019250505050505050610b197fdd8f4b70b0f4393e889bd39128a30628a78b61816a9eb8199759e7a349657e48886000016020810190610aa091906113e7565b896020016020810190610ab391906113e7565b8a604001358b606001358c608001358d8060a00190610ad29190611bd7565b604051610ae0929190611c79565b6040518091039020604051602001610afe9796959493929190611cc1565b60405160208183030381529060405280519060200120610e4b565b610e6590919063ffffffff16565b9050846080013560056000876000016020810190610b4591906113e7565b73ffffffffffffffffffffffffffffffffffffffff1673ffffffffffffffffffffffffffffffffffffffff16815260200190815260200160002054148015610bca5750846000016020810190610b9b91906113e7565b73ffffffffffffffffffffffffffffffffffffffff168173ffffffffffffffffffffffffffffffffffffffff16145b9150509392505050565b610bdc610c57565b600073ffffffffffffffffffffffffffffffffffffffff168173ffffffffffffffffffffffffffffffffffffffff1603610c4b576040517f08c379a0000000000000000000000000000000000000000000000000000000008152600401610c4290611da2565b60405180910390fd5b610c5481610cd5565b50565b610c5f610e8c565b73ffffffffffffffffffffffffffffffffffffffff16610c7d6109f4565b73ffffffffffffffffffffffffffffffffffffffff1614610cd3576040517f08c379a0000000000000000000000000000000000000000000000000000000008152600401610cca90611e0e565b60405180910390fd5b565b6000600260009054906101000a900473ffffffffffffffffffffffffffffffffffffffff16905081600260006101000a81548173ffffffffffffffffffffffffffffffffffffffff021916908373ffffffffffffffffffffffffffffffffffffffff1602179055508173ffffffffffffffffffffffffffffffffffffffff168173ffffffffffffffffffffffffffffffffffffffff167f8be0079c531659141344cd1fd0a4f28419497f9722a3daafe3b4186f6b6457e060405160405180910390a35050565b606060ff60001b8314610db857610db183610e94565b9050610e45565b818054610dc490611e5d565b80601f0160208091040260200160405190810160405280929190818152602001828054610df090611e5d565b8015610e3d5780601f10610e1257610100808354040283529160200191610e3d565b820191906000526020600020905b815481529060010190602001808311610e2057829003601f168201915b505050505090505b92915050565b6000610e5e610e58610f08565b83610fbf565b9050919050565b6000806000610e748585611000565b91509150610e8181611051565b819250505092915050565b600033905090565b60606000610ea1836111b7565b90506000602067ffffffffffffffff811115610ec057610ebf611c92565b5b6040519080825280601f01601f191660200182016040528015610ef25781602001600182028036833780820191505090505b5090508181528360208201528092505050919050565b60007f000000000000000000000000000000000000000000000000000000000000000073ffffffffffffffffffffffffffffffffffffffff163073ffffffffffffffffffffffffffffffffffffffff16148015610f8457507f000000000000000000000000000000000000000000000000000000000000000046145b15610fb1577f00000000000000000000000000000000000000000000000000000000000000009050610fbc565b610fb9611207565b90505b90565b60006040517f190100000000000000000000000000000000000000000000000000000000000081528360028201528260228201526042812091505092915050565b60008060418351036110415760008060006020860151925060408601519150606086015160001a90506110358782858561129d565b9450945050505061104a565b60006002915091505b9250929050565b6000600481111561106557611064611e8e565b5b81600481111561107857611077611e8e565b5b03156111b4576001600481111561109257611091611e8e565b5b8160048111156110a5576110a4611e8e565b5b036110e5576040517f08c379a00000000000000000000000000000000000000000000000000000000081526004016110dc90611f09565b60405180910390fd5b600260048111156110f9576110f8611e8e565b5b81600481111561110c5761110b611e8e565b5b0361114c576040517f08c379a000000000000000000000000000000000000000000000000000000000815260040161114390611f75565b60405180910390fd5b600360048111156111605761115f611e8e565b5b81600481111561117357611172611e8e565b5b036111b3576040517f08c379a00000000000000000000000000000000000000000000000000000000081526004016111aa90612007565b60405180910390fd5b5b50565b60008060ff8360001c169050601f8111156111fe576040517fb3512b0c00000000000000000000000000000000000000000000000000000000815260040160405180910390fd5b80915050919050565b60007f8b73c3c69bb8fe3d512ecc4cf759cc79239f7b179b0ffacaa9a75d522b39400f7f00000000000000000000000000000000000000000000000000000000000000007f00000000000000000000000000000000000000000000000000000000000000004630604051602001611282959493929190612027565b60405160208183030381529060405280519060200120905090565b6000807f7fffffffffffffffffffffffffffffff5d576e7357a4501ddfe92f46681b20a08360001c11156112d8576000600391509150611376565b6000600187878787604051600081526020016040526040516112fd9493929190612096565b6020604051602081039080840390855afa15801561131f573d6000803e3d6000fd5b505050602060405103519050600073ffffffffffffffffffffffffffffffffffffffff168173ffffffffffffffffffffffffffffffffffffffff160361136d57600060019250925050611376565b80600092509250505b94509492505050565b600080fd5b600080fd5b600073ffffffffffffffffffffffffffffffffffffffff82169050919050565b60006113b482611389565b9050919050565b6113c4816113a9565b81146113cf57600080fd5b50565b6000813590506113e1816113bb565b92915050565b6000602082840312156113fd576113fc61137f565b5b600061140b848285016113d2565b91505092915050565b6000819050919050565b61142781611414565b82525050565b6000602082019050611442600083018461141e565b92915050565b600080fd5b600060c0828403121561146357611462611448565b5b81905092915050565b600080fd5b600080fd5b600080fd5b60008083601f8401126114915761149061146c565b5b8235905067ffffffffffffffff8111156114ae576114ad611471565b5b6020830191508360018202830111156114ca576114c9611476565b5b9250929050565b6000806000604084860312156114ea576114e961137f565b5b600084013567ffffffffffffffff81111561150857611507611384565b5b6115148682870161144d565b935050602084013567ffffffffffffffff81111561153557611534611384565b5b6115418682870161147b565b92509250509250925092565b60008115159050919050565b6115628161154d565b82525050565b600081519050919050565b600082825260208201905092915050565b60005b838110156115a2578082015181840152602081019050611587565b60008484015250505050565b6000601f19601f8301169050919050565b60006115ca82611568565b6115d48185611573565b93506115e4818560208601611584565b6115ed816115ae565b840191505092915050565b600060408201905061160d6000830185611559565b818103602083015261161f81846115bf565b90509392505050565b6000819050919050565b600061164d61164861164384611389565b611628565b611389565b9050919050565b600061165f82611632565b9050919050565b600061167182611654565b9050919050565b61168181611666565b82525050565b600060208201905061169c6000830184611678565b92915050565b6116ab81611414565b81146116b657600080fd5b50565b6000813590506116c8816116a2565b92915050565b6000602082840312156116e4576116e361137f565b5b60006116f2848285016116b9565b91505092915050565b60007fff0000000000000000000000000000000000000000000000000000000000000082169050919050565b611730816116fb565b82525050565b600081519050919050565b600082825260208201905092915050565b600061175d82611736565b6117678185611741565b9350611777818560208601611584565b611780816115ae565b840191505092915050565b611794816113a9565b82525050565b6000819050919050565b6117ad8161179a565b82525050565b600081519050919050565b600082825260208201905092915050565b6000819050602082019050919050565b6117e881611414565b82525050565b60006117fa83836117df565b60208301905092915050565b6000602082019050919050565b600061181e826117b3565b61182881856117be565b9350611833836117cf565b8060005b8381101561186457815161184b88826117ee565b975061185683611806565b925050600181019050611837565b5085935050505092915050565b600060e082019050611886600083018a611727565b81810360208301526118988189611752565b905081810360408301526118ac8188611752565b90506118bb606083018761141e565b6118c8608083018661178b565b6118d560a08301856117a4565b81810360c08301526118e78184611813565b905098975050505050505050565b600060208201905061190a600083018461178b565b92915050565b60006020820190506119256000830184611559565b92915050565b7f496e76616c6964207369676e6174757265000000000000000000000000000000600082015250565b6000611961601183611741565b915061196c8261192b565b602082019050919050565b6000602082019050818103600083015261199081611954565b9050919050565b6000815190506119a6816116a2565b92915050565b6000602082840312156119c2576119c161137f565b5b60006119d084828501611997565b91505092915050565b60006040820190506119ee600083018561178b565b6119fb602083018461178b565b9392505050565b600060a082019050611a17600083018861178b565b611a24602083018761178b565b611a31604083018661141e565b611a3e606083018561141e565b611a4b608083018461141e565b9695505050505050565b6000606082019050611a6a600083018661178b565b611a77602083018561178b565b611a84604083018461141e565b949350505050565b611a958161154d565b8114611aa057600080fd5b50565b600081519050611ab281611a8c565b92915050565b600060208284031215611ace57611acd61137f565b5b6000611adc84828501611aa3565b91505092915050565b7f466565207472616e73666572206661696c656400000000000000000000000000600082015250565b6000611b1b601383611741565b9150611b2682611ae5565b602082019050919050565b60006020820190508181036000830152611b4a81611b0e565b9050919050565b7f4e487b7100000000000000000000000000000000000000000000000000000000600052601160045260246000fd5b6000611b8b82611414565b91507fffffffffffffffffffffffffffffffffffffffffffffffffffffffffffffffff8203611bbd57611bbc611b51565b5b600182019050919050565b600080fd5b600080fd5b600080fd5b60008083356001602003843603038112611bf457611bf3611bc8565b5b80840192508235915067ffffffffffffffff821115611c1657611c15611bcd565b5b602083019250600182023603831315611c3257611c31611bd2565b5b509250929050565b600081905092915050565b82818337600083830152505050565b6000611c608385611c3a565b9350611c6d838584611c45565b82840190509392505050565b6000611c86828486611c54565b91508190509392505050565b7f4e487b7100000000000000000000000000000000000000000000000000000000600052604160045260246000fd5b600060e082019050611cd6600083018a6117a4565b611ce3602083018961178b565b611cf0604083018861178b565b611cfd606083018761141e565b611d0a608083018661141e565b611d1760a083018561141e565b611d2460c08301846117a4565b98975050505050505050565b7f4f776e61626c653a206e6577206f776e657220697320746865207a65726f206160008201527f6464726573730000000000000000000000000000000000000000000000000000602082015250565b6000611d8c602683611741565b9150611d9782611d30565b604082019050919050565b60006020820190508181036000830152611dbb81611d7f565b9050919050565b7f4f776e61626c653a2063616c6c6572206973206e6f7420746865206f776e6572600082015250565b6000611df8602083611741565b9150611e0382611dc2565b602082019050919050565b60006020820190508181036000830152611e2781611deb565b9050919050565b7f4e487b7100000000000000000000000000000000000000000000000000000000600052602260045260246000fd5b60006002820490506001821680611e7557607f821691505b602082108103611e8857611e87611e2e565b5b50919050565b7f4e487b7100000000000000000000000000000000000000000000000000000000600052602160045260246000fd5b7f45434453413a20696e76616c6964207369676e61747572650000000000000000600082015250565b6000611ef3601883611741565b9150611efe82611ebd565b602082019050919050565b60006020820190508181036000830152611f2281611ee6565b9050919050565b7f45434453413a20696e76616c6964207369676e6174757265206c656e67746800600082015250565b6000611f5f601f83611741565b9150611f6a82611f29565b602082019050919050565b60006020820190508181036000830152611f8e81611f52565b9050919050565b7f45434453413a20696e76616c6964207369676e6174757265202773272076616c60008201527f7565000000000000000000000000000000000000000000000000000000000000602082015250565b6000611ff1602283611741565b9150611ffc82611f95565b604082019050919050565b6000602082019050818103600083015261202081611fe4565b9050919050565b600060a08201905061203c60008301886117a4565b61204960208301876117a4565b61205660408301866117a4565b612063606083018561141e565b612070608083018461178b565b9695505050505050565b600060ff82169050919050565b6120908161207a565b82525050565b60006080820190506120ab60008301876117a4565b6120b86020830186612087565b6120c560408301856117a4565b6120d260608301846117a4565b9594505050505056fea2646970667358221220c10ad18baf0962f44f3c9f2a9bdc039d01a44e5f0478ee4c4790ba1128dabb4764736f6c63430008140033",
  "devdoc": {
    "events": {
      "EIP712DomainChanged()": {
        "details": "MAY be emitted to signal that the domain could have changed."
      }
    },
    "kind": "dev",
    "methods": {
      "eip712Domain()": {
        "details": "See {EIP-5267}. _Available since v4.9._"
      },
      "owner()": {
        "details": "Returns the address of the current owner."
      },
      "renounceOwnership()": {
        "details": "Leaves the contract without owner. It will not be possible to call `onlyOwner` functions. Can only be called by the current owner. NOTE: Renouncing ownership will leave the contract without an owner, thereby disabling any functionality that is only available to the owner."
      },
      "transferOwnership(address)": {
        "details": "Transfers ownership of the contract to a new account (`newOwner`). Can only be called by the current owner."
      }
    },
    "version": 1
  },
  "userdoc": {
    "kind": "user",
    "methods": {},
    "version": 1
  },
  "storageLayout": {
    "storage": [
      {
        "astId": 1199,
        "contract": "contracts/gaslessRelayer.sol:GaslessRelayer",
        "label": "_nameFallback",
        "offset": 0,
        "slot": "0",
        "type": "t_string_storage"
      },
      {
        "astId": 1201,
        "contract": "contracts/gaslessRelayer.sol:GaslessRelayer",
        "label": "_versionFallback",
        "offset": 0,
        "slot": "1",
        "type": "t_string_storage"
      },
      {
        "astId": 7,
        "contract": "contracts/gaslessRelayer.sol:GaslessRelayer",
        "label": "_owner",
        "offset": 0,
        "slot": "2",
        "type": "t_address"
      },
      {
        "astId": 2357,
        "contract": "contracts/gaslessRelayer.sol:GaslessRelayer",
        "label": "feeToken",
        "offset": 0,
        "slot": "3",
        "type": "t_contract(IERC20)215"
      },
      {
        "astId": 2359,
        "contract": "contracts/gaslessRelayer.sol:GaslessRelayer",
        "label": "relayerFee",
        "offset": 0,
        "slot": "4",
        "type": "t_uint256"
      },
      {
        "astId": 2363,
        "contract": "contracts/gaslessRelayer.sol:GaslessRelayer",
        "label": "nonces",
        "offset": 0,
        "slot": "5",
        "type": "t_mapping(t_address,t_uint256)"
      }
    ],
    "types": {
      "t_address": {
        "encoding": "inplace",
        "label": "address",
        "numberOfBytes": "20"
      },
      "t_contract(IERC20)215": {
        "encoding": "inplace",
        "label": "contract IERC20",
        "numberOfBytes": "20"
      },
      "t_mapping(t_address,t_uint256)": {
        "encoding": "mapping",
        "key": "t_address",
        "label": "mapping(address => uint256)",
        "numberOfBytes": "32",
        "value": "t_uint256"
      },
      "t_string_storage": {
        "encoding": "bytes",
        "label": "string",
        "numberOfBytes": "32"
      },
      "t_uint256": {
        "encoding": "inplace",
        "label": "uint256",
        "numberOfBytes": "32"
      }
    }
  }
}